:040000000128EE2FB6
:100AF400C425FD25D526FD25CA25FD2DFE001200A1
:100B04001E00FE0B812D0034640080010131890B2D
:100B1400872D0034CA25FD25D526FD255626FD251D
:100B2400C425FD2D21000E108E1022000E148E14EB
:100B3400F001F00AF101FD2D083023009F0024305C
:100B44009E0090309D0067309B009C010800FC00D3
:100B5400BC25DA30F6018426D025013A031DBB2DCD
:100B64007C08AE26D025013A031DBB2D7B08AE269A
:100B7400D0257A2DCA25FD25D526FD25C425FD259C
:100B84005626FD2D22008E10F001F00AF101080016
:100B940022008E14F001F00AF1010800F001F00ABD
:100BA400F101FD25D526FD25031020008E1C03141C
:100BB400003003180130F600F001F00AF101FD25C0
:100BC4005626FD257608080010342834C034003435
:100BD400F03400340034003400340034343400344D
:100BE4000034003408347234803400340034003467
:100BF400003400340034F201F30171087302031D60
:100C0400052E7008720203180800F401F5010000B3
:100C1400F40A0319F50A003075020230031974024C
:100C2400031C092EF20A0319F30AFF2DBC25DA303E
:100C3400F6018426D025013A031D362EA530AE26B2
:100C4400FB01D025013A031D302E7B08E63E8400CB
:100C540085300318013E85000008AE261730FB0AD4
:100C64007B02031C232E8C257A2DF70121008E1480
:100C74000730F800D526FD2520000E0C0139F600BA
:100C8400780A452EF635890B442E7608F704F001D0
:100C9400F00AF101FD255626FD25F803F81F3C2E28
:100CA40021008E107708080022000E10F001F00ACF
:100CB400F1010800573472346934743465344634AD
:100CC400613469346C34653464340D340A34523418
:100CD4006534613464340D340A3400345734723466
:100CE4006934743465340D340A3400345234453470
:100CF400413444340D340A3400344F344B340D340D
:100D04000A340034F800760801397804F900073011
:100D1400FA007908F7007A0A902EF736890B8F2E9D
:100D2400771C972E22008E14992E22008E10F0012B
:100D3400F00AF101FD25D526FD2522000E107A08C2
:100D440003198E1CA62E8E10F001F00AF101FD2568
:100D5400FA03FA1B08008B2EF700F8000730F9009D
:100D64007808F600790AB72EF636890BB62E761C6B
:100D7400BE2E22008E14C02E22008E10F001F00A26
:100D8400F101FD25D526FD2522000E107908031951
:100D94008E1CCD2E8E10F001F00AF101FD25F90311
:100DA400F91B0800B22E22000E14F001F00AF10122
:100DB40008002000E500BC25DA30F6018426D025A1
:100DC400013A031D080020006508AE26D025013A2B
:100DD400031D0800BC25DA30F601F60A8426D02566
:100DE400013A031D08002000E6017B0803190F2FB8
:100DF40066087C07FD0086008701372681001630CF
:100E040020006606031D082F8C25092FD0252000FD
:100E1400E60A7B086602031CFA2E7A2DF400FF30E2
:100E2400F700F800F901FA0170080319452F790851
:100E34007407F200860087010108F706F501F60140
:100E4400771C2B2F0130F836F70CF706A030F80684
:100E54002D2FF836F70CF50A0319F60A003076023E
:100E6400083003197502031C222FF90A0319FA0A20
:100E74007008F200F30173087A02031D432F72080D
:100E84007902031C192F7808F1007708F000080094
:100E940023008E100E108E1121008C1222008C164D
:100EA4001D119D1321000E128E168E1122008E111B
:100EB40094259E25DE27DB261730F0004C301027C2
:100EC400E3272000911E632F230019082000CB0084
:100ED4004B0B902F4A304806FB3003194906031D7B
:100EE400862F18260C30FB003030A9256A30FB0011
:100EF4006C30A925E9274A08343ED5270730CA0AA9
:100F04004A02031C7D2F992FE9274A08203ED52742
:100F14001330CA0A4A02031C872F992FE9274A086B
:100F24003C3ED5270630CA0A4A02031C912F2200F0
:100F34008E112000CA01911E9D2F23001908200044
:100F4400CB006C30FB01FB0AA9252430FB000030E8
:100F5400A925DE27DB261730F0004C301027E327C5
:100F6400E4004908E30022008E15A1302000480661
:100F7400D33003194906031DC92FCA014A08433E49
:100F8400D5270430CA0A4A020318D22FC02FCA0137
:100F94004A084C3ED5271730CA0A4A02031CCA2FF6
:100FA40022008E11632F86008701010823009A0016
:100FB4009E1CDA2F200008001730FB004C30FC0088
:100FC400A53471082000C9007008C8000800220078
:100FD4008E152000CA0108004830840000308500C6
:100FE4001D3086255C3084008630850020308600E4
:0C0FF400003087002830802520004A2FA4
:020000040001F9
:04000E00E4E9FFD84A
:00000001FF
