:020000040000fa
:080000000002040000000000f2
:020000040000fa
:040008007804000078
:020000040000fa
:04000c007804000074
:020000040000fa
:040010007804000070
:020000040000fa
:04001400780400006c
:020000040000fa
:040018007804000068
:020000040000fa
:04001c007804000064
:020000040000fa
:040020007804000060
:020000040000fa
:04002400780400005c
:020000040000fa
:040028007804000058
:020000040000fa
:04002c007804000054
:020000040000fa
:040030007804000050
:020000040000fa
:04003400280300009d
:020000040000fa
:040038007804000048
:020000040000fa
:04003c007804000044
:020000040000fa
:040040007804000040
:020000040000fa
:040044005e03000057
:020000040000fa
:040048007804000038
:020000040000fa
:04004c007804000034
:020000040000fa
:040050007804000030
:020000040000fa
:04005400780400002c
:020000040000fa
:040058007804000028
:020000040000fa
:04005c007804000024
:020000040000fa
:040060007804000020
:020000040000fa
:04006400780400001c
:020000040000fa
:040068007804000018
:020000040000fa
:04006c007804000014
:020000040000fa
:040070007804000010
:020000040000fa
:040074008a030000fb
:020000040000fa
:040078007804000008
:020000040000fa
:04007c007804000004
:020000040000fa
:040080007804000000
:020000040000fa
:0400840078040000fc
:020000040000fa
:0400880078040000f8
:020000040000fa
:04008c0078040000f4
:020000040000fa
:0400900078040000f0
:020000040000fa
:0400940078040000ec
:020000040000fa
:0400980078040000e8
:020000040000fa
:04009c0078040000e4
:020000040000fa
:0400a00078040000e0
:020000040000fa
:0400a40078040000dc
:020000040000fa
:0400a80078040000d8
:020000040000fa
:0400ac0078040000d4
:020000040000fa
:0400b00078040000d0
:020000040000fa
:0400b40078040000cc
:020000040000fa
:0400b80078040000c8
:020000040000fa
:0400bc0078040000c4
:020000040000fa
:0400c00078040000c0
:020000040000fa
:0400c40078040000bc
:020000040000fa
:0400c80078040000b8
:020000040000fa
:0400cc0078040000b4
:020000040000fa
:0400d00078040000b0
:020000040000fa
:0400d40078040000ac
:020000040000fa
:0400d80078040000a8
:020000040000fa
:0400dc0078040000a4
:020000040000fa
:0400e00078040000a0
:020000040000fa
:0400e400780400009c
:020000040000fa
:0400e8007804000098
:020000040000fa
:0400ec007804000094
:020000040000fa
:0400f0007804000090
:020000040000fa
:0400f400780400008c
:020000040000fa
:0400f8007804000088
:020000040000fa
:0400fc007804000084
:020000040000fa
:04010000780400007f
:020000040000fa
:04010400780400007b
:020000040000fa
:040108007804000077
:020000040000fa
:04010c007804000073
:020000040000fa
:04011000780400006f
:020000040000fa
:04011400780400006b
:020000040000fa
:040118007804000067
:020000040000fa
:04011c007804000063
:020000040000fa
:04012000780400005f
:020000040000fa
:04012400780400005b
:020000040000fa
:040128007804000057
:020000040000fa
:04012c007804000053
:020000040000fa
:04013000780400004f
:020000040000fa
:04013400780400004b
:020000040000fa
:040138007804000047
:020000040000fa
:04013c007804000043
:020000040000fa
:04014000780400003f
:020000040000fa
:04014400780400003b
:020000040000fa
:040148007804000037
:020000040000fa
:04014c007804000033
:020000040000fa
:04015000780400002f
:020000040000fa
:04015400780400002b
:020000040000fa
:040158007804000027
:020000040000fa
:04015c007804000023
:020000040000fa
:04016000780400001f
:020000040000fa
:04016400780400001b
:020000040000fa
:040168007804000017
:020000040000fa
:04016c007804000013
:020000040000fa
:04017000b8030000d0
:020000040000fa
:040174001204000071
:020000040000fa
:040178007804000007
:020000040000fa
:04017c007804000003
:020000040000fa
:0401800078040000ff
:020000040000fa
:0401840078040000fb
:020000040000fa
:0401880078040000f7
:020000040000fa
:04018c0078040000f3
:020000040000fa
:0401900078040000ef
:020000040000fa
:0401940078040000eb
:020000040000fa
:0401980078040000e7
:020000040000fa
:04019c0078040000e3
:020000040000fa
:0401a00078040000df
:020000040000fa
:0401a40078040000db
:020000040000fa
:0401a80078040000d7
:020000040000fa
:0401ac0078040000d3
:020000040000fa
:0401b00078040000cf
:020000040000fa
:0401b40078040000cb
:020000040000fa
:0401b80078040000c7
:020000040000fa
:0401bc0078040000c3
:020000040000fa
:0401c00078040000bf
:020000040000fa
:0401c40078040000bb
:020000040000fa
:0401c80078040000b7
:020000040000fa
:0401cc0078040000b3
:020000040000fa
:0401d00078040000af
:020000040000fa
:0401d40078040000ab
:020000040000fa
:0401d80078040000a7
:020000040000fa
:0401dc0078040000a3
:020000040000fa
:0401e000780400009f
:020000040000fa
:0401e400780400009b
:020000040000fa
:0401e8007804000097
:020000040000fa
:0401ec007804000093
:020000040000fa
:0401f000780400008f
:020000040000fa
:0401f400780400008b
:020000040000fa
:0401f8007804000087
:020000040000fa
:0401fc007804000083
:020000040000fa
:040208007804000076
:020000040000fa
:04020c007804000072
:020000040000fa
:04021000780400006e
:020000040000fa
:04021400780400006a
:020000040000fa
:040218007804000066
:020000040000fa
:04021c007804000062
:020000040000fa
:04022000780400005e
:020000040000fa
:04022400780400005a
:020000040000fa
:040228007804000056
:020000040000fa
:04022c007804000052
:020000040000fa
:04023000780400004e
:020000040000fa
:04023400780400004a
:020000040000fa
:040238007804000046
:020000040000fa
:04023c007804000042
:020000040000fa
:04024000780400003e
:020000040000fa
:04024400780400003a
:020000040000fa
:040248007804000036
:020000040000fa
:04024c007804000032
:020000040000fa
:04025000780400002e
:020000040000fa
:04025400780400002a
:020000040000fa
:040258007804000026
:020000040000fa
:04025c007804000022
:020000040000fa
:04026000780400001e
:020000040000fa
:04026400780400001a
:020000040000fa
:040268007804000016
:020000040000fa
:04026c007804000012
:020000040000fa
:04027000780400000e
:020000040000fa
:04027400780400000a
:020000040000fa
:040278007804000006
:020000040000fa
:04027c007804000002
:020000040000fa
:0402800078040000fe
:020000040000fa
:0402840078040000fa
:020000040000fa
:0402880078040000f6
:020000040000fa
:04028c0078040000f2
:020000040000fa
:0402900078040000ee
:020000040000fa
:0402940078040000ea
:020000040000fa
:0402980078040000e6
:020000040000fa
:04029c0078040000e2
:020000040000fa
:0402a00078040000de
:020000040000fa
:0402a40078040000da
:020000040000fa
:0402a80078040000d6
:020000040000fa
:0402ac0078040000d2
:020000040000fa
:0402b00078040000ce
:020000040000fa
:0402b40078040000ca
:020000040000fa
:0402b80078040000c6
:020000040000fa
:0402bc0078040000c2
:020000040000fa
:0402c00078040000be
:020000040000fa
:0402c40078040000ba
:020000040000fa
:0402c80078040000b6
:020000040000fa
:0402cc0078040000b2
:020000040000fa
:0402d00078040000ae
:020000040000fa
:0402d40078040000aa
:020000040000fa
:0402d80078040000a6
:020000040000fa
:0402dc0078040000a2
:020000040000fa
:0402e000780400009e
:020000040000fa
:0402e400780400009a
:020000040000fa
:0402e8007804000096
:020000040000fa
:0402ec007804000092
:020000040000fa
:0402f000780400008e
:020000040000fa
:0402f400780400008a
:020000040000fa
:0402f8007804000086
:020000040000fa
:0402fc007804000082
:020000040000fa
:04030000780400007d
:020000040000fa
:040304007804000079
:020000040000fa
:040308007804000075
:020000040000fa
:04030c007804000071
:020000040000fa
:04031000780400006d
:020000040000fa
:040314007804000069
:020000040000fa
:040318007804000065
:020000040000fa
:04031c007804000061
:020000040000fa
:04032000780400005d
:020000040000fa
:040324007804000059
:020000040000fa
:040328007804000055
:020000040000fa
:04032c007804000051
:020000040000fa
:04033000780400004d
:020000040000fa
:040334007804000049
:020000040000fa
:040338007804000045
:020000040000fa
:04033c007804000041
:020000040000fa
:04034000780400003d
:020000040000fa
:040344007804000039
:020000040000fa
:040348007804000035
:020000040000fa
:04034c007804000031
:020000040000fa
:04035000780400002d
:020000040000fa
:040354007804000029
:020000040000fa
:040358007804000025
:020000040000fa
:04035c007804000021
:020000040000fa
:04036000780400001d
:020000040000fa
:040364007804000019
:020000040000fa
:040368007804000015
:020000040000fa
:04036c007804000011
:020000040000fa
:04037000780400000d
:020000040000fa
:040374007804000009
:020000040000fa
:040378007804000005
:020000040000fa
:04037c007804000001
:020000040000fa
:0403800078040000fd
:020000040000fa
:0403840078040000f9
:020000040000fa
:0403880078040000f5
:020000040000fa
:04038c0078040000f1
:020000040000fa
:0403900078040000ed
:020000040000fa
:0403940078040000e9
:020000040000fa
:0403980078040000e5
:020000040000fa
:04039c0078040000e1
:020000040000fa
:0403a00078040000dd
:020000040000fa
:0403a40078040000d9
:020000040000fa
:0403a80078040000d5
:020000040000fa
:0403ac0078040000d1
:020000040000fa
:0403b00078040000cd
:020000040000fa
:0403b40078040000c9
:020000040000fa
:0403b80078040000c5
:020000040000fa
:0403bc0078040000c1
:020000040000fa
:0403c00078040000bd
:020000040000fa
:0403c40078040000b9
:020000040000fa
:0403c80078040000b5
:020000040000fa
:0403cc0078040000b1
:020000040000fa
:0403d00078040000ad
:020000040000fa
:0403d40078040000a9
:020000040000fa
:0403d80078040000a5
:020000040000fa
:0403dc0078040000a1
:020000040000fa
:0403e000780400009d
:020000040000fa
:0403e4007804000099
:020000040000fa
:0403e8007804000095
:020000040000fa
:0403ec007804000091
:020000040000fa
:0403f000780400008d
:020000040000fa
:0403f4007804000089
:020000040000fa
:0403f8007804000085
:020000040000fa
:0403fc007804000081
:020000040000fa
:100400006fcc21000e7f22000e018800000000004a
:10041000000020000000e000020032000001200087
:100420002002880014000700330107000000e000ec
:1004300003003a00c02a2200010020000200370019
:100440000000200001002000810f70000100320038
:1004500014000700000020000000e000020032004d
:1004600000000200000000009221020000000000d5
:100470000040da000000fe004440a900800a20008d
:100480000000e000030032000020200090018800fe
:100490004440a800000006008a1f78008b1f7800e7
:1004a00000000600a1028800800478000000eb0034
:1004b0001f003700e284440054a0b4009905ba003c
:1004c000e284440054a0b4009906ba00e2844400d7
:1004d00054a0b4000006eb00476fde00fd07b20039
:1004e000ae018800636ce10003003a00eaff0700f8
:1004f0000000eb000e003700606ce10008003a00dd
:10050000004deb000a05e800020039003420ec0041
:100510000af0a0008b05e900f9ff3e000400370057
:100520006168e100010032000086eb000b0007006b
:1005300019c7ba001905ba000e04e00003003a001a
:100540000a00e000dbff3a0000000600fe07b200f0
:10055000ae0288008a047800f5ff37000cd0a300b3
:10056000e20f4d001c00390089027800354dba00b9
:100570000a05e800020039003420ec000af0a0006f
:100580008b05e9000f003200254dba000a05e8008e
:10059000020039003420ec000af0a0008b05e900cd
:1005a000080032000c00e0000600320015cdba0051
:1005b0000a05e800020039003420ec000af0a0002f
:1005c0008b05e9008984e80054a0b4000b00e0002a
:1005d000e2ff3a00000006009902ba00055d7800cb
:1005e0008b05e900f7ff3200c82ade00055d7800c0
:1005f0008b05e900f3ff32000c00e000f1ff320050
:1006000019ddba00eeff3700000000000000000016
:1006100000000000000000000000000000000000da
:1006200000000000000000000000000000000000ca
:1006300000000000000000000000000000000000ba
:1006400000000000000000000000000000000000aa
:100650003600f800809fbe00829fbe00849fbe00cf
:10066000869fbe003200f8003400f8001000200021
:10067000a001880000202000900188008460a9006b
:100680009a0c0200000000000000e00003003200ad
:100690000223020000000000000000003400f90006
:1006a0003200f9004f03be004f02be004f01be00f2
:1006b0004f00be003600f900004006003600f8008a
:1006c000809fbe00829fbe00849fbe00869fbe00aa
:1006d0003200f8003400f80010002000a00188006b
:1006e0000020200090018800562302000000000036
:1006f00084e0a9003400f9003200f9004f03be0085
:100700004f02be004f01be004f00be003600f90090
:1007100000400600809fbe003200f8003400f80060
:1007200010002000a0018800002020009001880017
:10073000dae2ab0009003a00201780004500de0035
:100740000080ea00610060004500dd0021178000a4
:100750000150a10081007000211788008660a90067
:100760003400f9003200f9004f00be0000400600de
:100770003600f800809fbe00829fbe00849fbe00ae
:10078000869fbe00881f78003200f8003400f80011
:1007900010002000a00188000020200090018800a7
:1007a0000400fa000000eb00f0bf9f008e40a9009b
:1007b0005202ab000b0032000004eb00b0128000cc
:1007c000c0ff9f00880178000f81e900e480570096
:1007d000204280000a160200000000005202ab0016
:1007e000f6ff3a007fb897000000e00003003200f7
:1007f0000223020000000000000000000080fa0058
:100800003400f9003200f9004f0478004f03be00b5
:100810004f02be004f01be004f00be003600f9007f
:10082000004006003600f800809fbe00829fbe0098
:10083000849fbe00869fbe00881f78003200f800ab
:100840003400f80010002000a001880000202000e3
:10085000900188000400fa000000eb00f0bf9f0048
:100860008e60a9005322ab0011003a00082020003e
:100870000f81e900e48057000042800090170200d9
:1008800000000000e10f500007003a00cff8970089
:100890000100fb00a012880091128000010064009a
:1008a000f3ff3200020037001000200010428800e1
:1008b0007fb897000000e00003003200022302002e
:1008c00000000000000000000080fa003400f90081
:1008d0003200f9004f0478004f03be004f02be0003
:1008e0004f01be004f00be003600f9000040060078
:1008f0000040da000000fe000000050003f0a20046
:10090000889fbe008a9fbe008c1f780002010700ee
:10091000090133006450e1004f0032006420e1001f
:100920005200320003826c0007003b000905d00032
:100930000306d000820f54000c065d00020039004f
:100940000200320089017800030678008582550094
:1009500004003d000003fd008103fd008502ea0064
:100960008b854200840f720002003b006000100083
:10097000e08018006011b8000005eb007a28e10063
:100980000a00390006007800c75ddd00f707b200f5
:10099000878075002d003700828171000a01780080
:1009a000610560008180d1000080d3008502e900ec
:1009b000f9ff3b00060440008784480002003b002a
:1009c00060041400e0841c000988a30007003200c2
:1009d0008a81710082817100610164008904d10003
:1009e0000884d3008b05e800170037000978a300be
:1009f00013003a000b00e000130034008b05e900ff
:100a00000804440089844c000a4474000978a30057
:100a10000d003a000b00e000070034008b05e900f0
:100a20000804440089844c0001003a000b002000b7
:100a30000978a300f7ff32000001eb000200370045
:100a4000828171000a017800780007000cf0a7008d
:100a500001f0a000c10037006420e10002003a006c
:100a6000838f6c00c10033000801be000200be008d
:100a7000ba003700889fbe008a9fbe008c1f780096
:100a8000a5000700ac00330003866c006450e10051
:100a90002e0032006420e100330032006150e1009a
:100aa0002f0032006120e1003100320085855500c1
:100ab000eb07b00009002000080420000500370003
:100ac0000804440089844c000a00310006034300f6
:100ad00087834b000001530081815b00f8ff3300e6
:100ae0000203be000800a0000804440089844c00f2
:100af000f6ff3900c639dd008301730001003200c2
:100b0000130020008904d1000884d3000998a300b1
:100b1000050032000800a7000300a0008904d100ee
:100b20000884d3008b05e8008904d1000884d30031
:100b30000001eb000281d2003c00070001f0a1009f
:100b40000cf0a70001f0a000840037006420e10051
:100b5000860032000801be000200be00f7ff370029
:100b60006120e100810032006000b800f3ff37002f
:100b70000000200001f82700f0ff3700839f680085
:100b80000100e00002003d0060001000e08018005d
:100b90000300e00002003d0060011100e081190047
:100ba000a90007004f00e00002003b0060001000b9
:100bb000e0801800000006000001be0041000700b0
:100bc0000470a70003f0a10003f8a30013003a008b
:100bd0006509b10010003200090035006928e10004
:100be0000200350001002800000005000000400060
:100bf000818048008502e900fcff3a000000060001
:100c0000f88f4200050035008100d1000080d3003c
:100c10008502e800fcff3a00000006008000eb00bf
:100c2000000005006011b800970037008100200027
:100c3000618055000b003d000b00200061fe2f007d
:100c40000100e1001d003400828171006101640037
:100c50008904d1000884d3000000e800faff3a00bc
:100c60007100200061006400030070000200600059
:100c70000900320061044400e0844c000988a500aa
:100c8000050032008b05e8006808e10002003a0028
:100c90008904d1000884d300f20f20000258e1003b
:100ca00005003d00c75ddd00f907b20089807500d1
:100cb00008007800000006000bf827008b00780081
:100cc00000000500c70ade00f107b200f50fb20010
:100cd00008003200e1cf4200020032000170a000a3
:100ce00024000500810f7000010032000408050097
:100cf00044000500810f700002003a001400050056
:100d00008502e9000000400081c04800fcff3b0074
:100d10000170a000240005000004be00e9ff0700e8
:100d20000003be000405be000200be00e5ff070090
:100d3000844f7500000006000200be006450e10010
:100d4000050036006420e100020036000968a300b7
:100d500001003a000800be000160a0004f067800c4
:100d60004f05be004f04be0000000600f0ff2f003c
:100d7000f1ff2700f9ff3700889fbe008a9fbe0061
:100d80008c1f7800e4ff0700ebff330003866c0044
:100d90006450e100240032006420e10027003200aa
:100da0006150e100220032006120e10021003200a8
:100db0008b854200eb07b1000134b800003ab8005f
:100dc0000804420089844a00013ab8000030b800a3
:100dd0008880400009014a00040033000000400000
:100de00081804800020149008b05e900c909dd0046
:100df000830170000100320013002000c814de00df
:100e00004814dd004709de001200b200c808de0009
:100e10000884700085ff070001f0a1000cf0a70016
:100e200001f0a000cdff37006120e100cfff3200cc
:100e30000801be000200be00f7ff37006150e1006c
:100e4000fcff3a00c9ff37006022b800060220000c
:100e50000000d0008180d2000482d2008582d200be
:100e60000000a0000202520083825a0003003100f9
:100e70000202420083824a000000a1000603e9004a
:100e8000f3ff3a0000000600889fbe008a9fbe0064
:100e9000008270000402710004827100260032009a
:100ea0000004be000200be006011b8006b09200003
:100eb000950220000182cf000a0039000541b100ef
:100ec0000082cf00070039000541b1000982cf0040
:100ed000040039000541b1000882cf00010039004b
:100ee0000541b10005425200120032000a003b00e9
:100ef00082817100610164008100d1000080d30013
:100f00008984d3000884d3008b05e8000442e800fc
:100f1000f7ff3a00070037000804440089844c00ba
:100f200000004800818048008b05e9000442e90088
:100f3000f9ff3a003dff07004f05be004f04be0019
:100f400000000600e68747008e1f7800d0bf9f0094
:100f5000e1bf9f000e0037005fba97001440780091
:100f6000efb99700934078000201e900814f5000eb
:100f7000040032000080fb008180fb000100500073
:100f80000600370066875700041fe800030fe800db
:100f90000200e000f0ff3a000000eb004f0778008d
:100fa0006f00b100000006008001780002003700e9
:100fb000b15978000201e9000200e000fcff3a00ac
:100fc0000000060080017800020037008159780097
:100fd0000201e9000200e000fcff3a000000060008
:020000040000fa
:100fe000514300006f6e00007342000031000000aa
:100ff00051500000726f0000644200003200000097
:10100000514300006f6e0000734200003300000087
:1010100051500000726f0000644200003400000074
:1010200051500000726f0000644200003500000063
:10103000514300006f6e0000734200003600000054
:10104000111100002222000033330000444400004c
:10105000555500006666000077770000888800001c
:1010600099990000aaaa0000bbbb0000cccc0000ec
:10107000dddd0000eeee0000cecd0000acab0000e8
:10108000494400004c45000000a50000a5a5000053
:10109000a5a50000a5a50000a5a50000a5a5000028
:1010a000a5a50000a5a50000a5a50000a5a5000018
:1010b000a500000077770000772e00004672000040
:1010c00065650000525400004f5300002e6f000071
:1010d00072670000004c0000434400000000000064
:1010e0006c650000643100003233000000730000c2
:1010f00074610000727400005f740000617300008e
:101100006b00000042540000657300007431000061
:1011100000420000546500007374000032000000bb
:10112000496e0000744d000061740000680000000a
:020000040000fa
:1011300080007800d10190000000eb0062c821001f
:10114000828f510008003a00a1089000c2c7210018
:10115000828f50000400320001f0a7008100ea00f5
:101160000100e9004f00de00000006006040800042
:101170001000e00002003a000ea8ef000500370062
:10118000604080003000900030009000100090001f
:101190007040880000000600889fbe008a1f78000b
:1011a0000004780001057800494080000088ec00c8
:1011b0001e22020000000000e10f440008003a0077
:1011c0000a00e00006003200014080008180e80053
:1011d00060c82100e4210200000000001400370074
:1011e000090444000040800018009800888f5400d3
:1011f0000600360001408000504080008180e800f9
:10120000f8210200000000000900370001408000c2
:10121000604080008180e800f821020000000000aa
:1012200070408000880f5000010036007840880030
:101230004f0578004f04be0000000600881f7800ac
:1012400000047800480890002c1e020000000000f6
:10125000080078002c1e0200000000004f047800f7
:1012600000000600e4874700889fbe008a9fbe00fa
:101270008c9fbe008e1f780080bf9f000105780004
:1012800004077800850678000606780007047800d1
:10129000820478000981440048089000510a200027
:1012a000e207020000000000c80d90008904d00091
:1012b0008984e90089844500790c98001a407800f7
:1012c000205c98001a04e000070032007a00440015
:1012d000e30045005a6878001a04e000020032007a
:1012e000810f5500fbff3a000040eb00505c980076
:1012f0008d047800e38f540001003600390020008f
:10130000390c98000880e800de210200000000008f
:101310006c004400de210200000000004804980038
:10132000e484140069049800180c98006000b80068
:1013300000149800111498000040eb0040649800dd
:101340000e0178008fb897000b007800881f02000c
:1013500000000000000c78000c00e00001003200ea
:10136000080e78004f0778004f06be004f05be00fc
:101370004f04be004f00b10000000600889fbe0071
:101380000004eb0049c521006a40b9000080440018
:10139000ce210200000000000804e800e40f540021
:1013a000f9ff3a00a0c92100ce2102000000000090
:1013b00040ca2100ce21020000000000c0c7210069
:1013c000ce2102000000000000c92100ce21020051
:1013d0000000000060c82100ce21020000000000d3
:1013e000a0c921006040880040ca21005040880008
:1013f0004f04be0000000600881f7800000478003b
:1014000010200200000000001428ec000008e20098
:1014100006003a0008408800a0408000e10f50001c
:101420000a003a00d5ff0700080037001608e2005e
:1014300006003a0000408000b00890003808900094
:10144000808f500001003e00084088001c28ec00fe
:10145000380890000408e3000100310020408800b3
:101460008880e8006a01b90040c521000200400000
:10147000e421020000000000202002000000000023
:101480001608e2000800320000408000b00890001a
:1014900038089000808f50000300310002230200c2
:1014a00000000000000000004f047800000006006b
:1014b000889fbe008a9fbe008c9fbe008e1f780052
:1014c000000778008106780082047800030678001f
:1014d000840578000505780060022000a41d020044
:1014e00000000000000478000080eb000800e0002d
:1014f0000a00320009804400a41d02000000000020
:10150000400c98000000e00009003a000800780054
:101510002c1e0200000000000080eb004f07780046
:101520004f06be004f05be004f04be00000006007f
:101530006149b800801feb00880378000a03780037
:101540008b0278000c0278008d0078000e00780085
:1015500044ff070008007800a7ff07008f87e90015
:1015600010002000edff3700889fbe0000047800c7
:1015700010200200000000000800e00001003a0016
:10158000084080008884e800090078001e220200dc
:1015900000000000280890000000e0000300320076
:1015a0006c0044001e220200000000001c28ec0019
:1015b00000408000880f500006003a008900780043
:1015c00000c92100e4210200000000001a28ec00fc
:1015d000040037001428ed000800780017ff07000a
:1015e000e2fe070020200200000000001608e200d2
:1015f0000600320000408000880f500003003a00cf
:101600000223020000000000000000004f04be00a2
:1016100000000600889fbe008a1f78000004be00fc
:10162000e38f540001003600390020001020020032
:10163000000000000800e00001003a0008408000bf
:1016400038089000890f5000310032000b00310043
:101650000005eb0001408000888f50000d00320033
:10166000014080001a002000b1089000898f5000ce
:10167000080036000005eb0006003700014080003e
:10168000088568000af0a7000a05ea000a05e900d3
:101690004f55de00390c9800e80090000100e00092
:1016a00002003500e4841400690498006a00b9005f
:1016b00042c5210000004100d8009000808f5000fa
:1016c0000e003a008884e800090078001e2202001b
:1016d00000000000380890000408e3000100310019
:1016e000204088006a00b90042c521000000410086
:1016f00089007800e4210200000000000a00e000f8
:10170000030032000223020000000000000000007d
:1017100020200200000000004f0578004f04be00aa
:1017200000000600889fbe00000478000800e0006a
:101730002100320000408000880f50001e0032005f
:1017400010200200000000000800780078fe07006a
:101750000000e000160032008884e80009007800ec
:101760001e22020000000000380890000408e30078
:1017700001003100204088006a00b90042c5210004
:101780000000410089007800e42102000000000010
:1017900000408000b808900030089000808f500012
:1017a00003003900022302000000000000000000d6
:1017b00020200200000000004f04be0000000600d0
:1017c000889fbe008a1f7800000478000800780017
:1017d00057fe07008004eb000000e0001d0032000f
:1017e0000208e20016003a000040800019002000c4
:1017f000b808900030089000808f50000100310040
:101800008004eb000885e8000a0078001e22020030
:1018100000000000380890000408e30001003100d7
:10182000204088006a00b90042c521000000410044
:101830008a007800e4210200000000000500370063
:10184000ec004400c0c72100e421020000000000b9
:101850008004eb00090078004f0578004f04be00bb
:1018600000000600858120000002eb008001eb00f3
:10187000320720000184280080df20000cff0700d1
:10188000e10f50000c003a00f0f12f004200b600ca
:101890000050a000100288000000000000000000be
:1018a0000ea8ef0010002000b04088000828ef00cc
:1018b000e21f02000000000000000600f0f12f000f
:1018c0004200b6000050a000100288000000000096
:1018d000000000001628ef00c41f020000000000f6
:1018e000000006000228ec0000000600881f7800b7
:1018f000102002000000000048408000202002006c
:1019000000000000080078004f0478000000060086
:101910004040800000000600a0408000000006005b
:101920000000e00001003a00004080007a00400022
:1019300000000600889fbe008a9fbe008c9fbe00ec
:101940000208e20041003a004b4080008b05e800ad
:101950004b40880006003a00604080000a08f8000a
:101960000c08f900504088001028ec00fffd07002b
:101970000005eb00704080008b0f50000300360024
:101980002a0037000d057800020037004cc5210001
:101990001d002000604080001000e00002003a00be
:1019a0000ea8ef002100370060408000300090005a
:1019b0003004900018009000808f55000200310024
:1019c00070408800190037008884e800090078001a
:1019d0001e22020000000000280890000000e00025
:1019e000030032006c0044001e22020000000000d0
:1019f000380890000408e30001003100204088000e
:101a00006a00b9000000460089007800e421020065
:101a10000000000000408000b808900030089000ee
:101a2000808f5000d7ff3100daff37000040800080
:101a3000300890006a00b90042c5210062007800b9
:101a4000e10f500004003e00040037001228ec00b3
:101a50000005eb00010037001a0020000608e20034
:101a6000010032001a0020000a0078004f06be0074
:101a70004f05be004f04be0000000600889fbe0058
:101a80008a9fbe0010200200000000000228ed0026
:101a90000004eb000208e20036003a001408e200fd
:101aa0001b003a003300370010e48000300490003f
:101ab0006c0044001e220200000000008884e80040
:101ac000090078001e220200000000003808900083
:101ad0000408e30001003100204088006a00b900da
:101ae0000080450089007800e42102000000000029
:101af00000408000b808900030089000808f5000af
:101b00000500390010002000304088000200370036
:101b1000cac721004bc521001a00e000e2ff3a00cd
:101b20000800e0000100320090fd070098408000ae
:101b30000800e00008003200190020007dff0700c7
:101b40000000e00001003200394088000804e9008c
:101b5000faff3a001228ef000004eb000608e2004a
:101b60000400320002230200000000000000000018
:101b7000180020002020020000000000080078006b
:101b80004f05be004f04be0000000600889fbe0047
:101b900009c921001200370052ff0700190478001c
:101ba000b6ff07000800e0000d0032001020020020
:101bb00000000000b0e48000300490000880e800dd
:101bc0001e220200000000001428ed001a28ed007b
:101bd00020200200000000000800780097fd0700a8
:101be0001a08e200ecff3a004f04be0000000600b5
:101bf000881f780048c52100e4ff0700100020007e
:101c0000980f1000030036000223020000000000bd
:101c100000000000be21020000000000f6ff3700b7
:101c2000881f7800000478000800e00007003200f8
:101c30002cff07008000eb000800780056fd07002d
:101c40008eff07000000e00003003a0002230200bc
:101c500000000000000000004f04780000000600b3
:101c6000889fbe000004be001eff070040408000a9
:101c70009800780081844400810f500006003100f4
:101c8000898f500015003600090c7800890f50002c
:101c90000900310005003700898f50000d003e001b
:101ca000890f50000b0039000c00370000805400f1
:101cb0008000eb0038fd070070ff07000000e00027
:101cc00008003a00022302000000000000000000ab
:101cd00004003700090c7800f4ff3700090c780085
:101ce000f5ff37004f04be00000006000208e200c6
:101cf000030032001000200030408800340037001c
:101d00000628ef000040800070089000740050002a
:101d10004201200051842800a207020000000000b8
:101d20000000e0000500320001408000004080001b
:101d3000fa804000c0210200000000002040800026
:101d40006a01b90041c52100e10079000100e0000d
:101d500009003a000001e9006a11b90041c52100fb
:101d6000828040000000e90011017800ea80500004
:101d70000200e000fbff32006a01b9008281e80046
:101d800041c52100e1817900930190000282400069
:101d9000130298006401410081004100818f5100cd
:101da00004003a006a02b90061c521009301900065
:101db00083307a006a01b9008280e80042c52100c0
:101dc000e2807800b1009000014088002040880047
:101dd00000000600889fbe0000047800102002006a
:101de000000000000800e00001003a000840800008
:101df0008884e800090078001e220200000000002c
:101e0000280890000000e000030032006c0044004d
:101e10001e220200000000008900780060c8210036
:101e2000e421020000000000202002000000000069
:101e30001608e20005003200102002000000000039
:101e4000cafc0700202002000000000000408000c3
:101e5000880f50000c003a001608e200040032001f
:101e6000022302000000000000000000060037000e
:101e700030e480001408e30002003a000028ef007c
:101e80000100370099ff07004f04be000000060064
:101e9000881f78000104780001408000ec80400039
:101ea000f821020000000000110020000800780066
:101eb000b9fc07004f04780000000600881f780076
:101ec0000204780002408000030028008180710035
:101ed0006101980001408000ec804000e421020094
:101ee000000000001100200008007800aafc070094
:101ef0004f04780000000600889fbe00300090006c
:101f0000b00490006c844400080078001e22020097
:101f1000000000000208e2000f003a000984e80017
:101f2000080078001e22020000000000390890001e
:101f30000408e30001003100204088006a00b90075
:101f400042c521000000410088007800e421020021
:101f5000000000000400370088007800c0c721009e
:101f6000e4210200000000000040800039099000d8
:101f7000b00890000000eb00810f51000200360015
:101f800010002000304088004f04be000000060012
:101f9000889fbe0002002800028870003004900074
:101fa0001e220200000000008884e800090078007a
:101fb0001e22020000000000380890000408e30020
:101fc00001003100204088006a00b90042c52100ac
:101fd0000000410089007800e421020000000000b8
:101fe0000040800038099000b00890000000eb002d
:101ff000810f5100020036001000200030408800a0
:102000004f04be00000006008140800001087800f7
:10201000414080001100980000000600889fbe002b
:102020008a1f7800800478000105780010200200e3
:1020300000000000414080001a0078000004eb001e
:10204000e10f400012003200190178008340800047
:10205000828f510004003200190190001800200006
:10206000828f50000a0031001901900082815000d7
:1020700018002000830f5000050036008100510039
:10208000008d400009007800dfff07000004eb002e
:102090002020020000000000080078004f057800b2
:1020a0004f04be00000006001000200030408800f1
:1020b00000000600004080006000900001408000a9
:1020c000024080003209900064011100e200980093
:1020d00000000600889fbe008a1f78000005780077
:1020e0000104780010200200000000000040800081
:1020f0009010900000109000e00f5000e08f58000a
:102100000b003a000040800011c0b300416098000d
:102110000800e000060032001100200008007800ee
:102120001dfc070002230200000000000000000068
:10213000202002000000000010200200000000002b
:10214000004080000014900090149000e00f5400b4
:10215000e08f5c000c0032000a00e0000500320055
:10216000004080006011b800021098001310980021
:10217000050037000040800061015400e0815c00f0
:102180000210980013109800004080008040eb007f
:102190004160980020200200000000000800be00fe
:1021a0004f0578004f04be0000000600889fbe0067
:1021b0008a9fbe008c9fbe000004be000205be00c8
:1021c0000406be0010200200000000000040800055
:1021d00040609000e24f50001a003200044080003e
:1021e00004109000941090000884ea008984ea00aa
:1021f00088026000098160008001eb00c010dd00f2
:10220000000020006129b800020070008380700087
:1022100000129800111298000040800011c0b30015
:10222000416098000d00e00006003200110020001f
:102230000d007800d8fb0700022302000000000018
:10224000000000002020020000000000102002001a
:10225000000000000c00e00004003200004080009c
:102260000011900090119000028ebe00004080008e
:10227000406090000004eb00e14f5000100032007d
:102280000440800004109000941090000a85ea0039
:102290008b85ea008a0260000b8160008001eb0000
:1022a000c010dd00000020006129b80002007000ad
:1022b000838070000012980011129800180020000e
:1022c000004080008040eb00416098002020020028
:1022d00000000000080078004f06be004f05be0059
:1022e0004f04be0000000600889fbe008a9fbe000b
:1022f0008c1f78000205be000104780004067800f7
:102300008004780010200200000000000c00e000b3
:10231000030032000910900099109000008ebe005a
:102320004960900021c0b300c1649800e20f5400de
:102330001000320003003e00e10f54001c003a0080
:1023400005003700e30f540011003200e40f540081
:1023500017003a0011003700091190009911900000
:1023600002057500838575008a1498009b149800f7
:102370000f00370009119000991190006101410090
:10238000e0814900821498009314980008003700f7
:102390008a1498009b149800050037000004eb0095
:1023a000e24f50001c0032008a1498009b149800e1
:1023b00018002000e14f500017003a000984e8009f
:1023c000080078001e22020000000000390890007a
:1023d0000408e30001003100204088006a00b900d1
:1023e00042c521000000410088007800e42102007d
:1023f0000000000000408000b90890003008900004
:1024000018002000808f50000300360002230200d5
:10241000000000000000000020200200000000007a
:10242000080078004f0678004f05be004f04be003c
:1024300000000600889fbe008a1f7800850478008f
:10244000000478000400e00003003200081390004c
:1024500098139000068abe004862900020c0b30026
:1024600040649800e28f50001000320003003e00ec
:10247000e18f50001c003a0005003700e38f500048
:1024800011003200e48f500017003a0011003700ad
:102490000810900098109000000171008181710077
:1024a00002149800131498000f00370008109000d1
:1024b0009810900061004000e080480000149800ef
:1024c00011149800080037000214980013149800a3
:1024d000050037000000eb00e24f520026003200fa
:1024e000021498001314980010002000e14f5200cd
:1024f00021003a000208e2000f003a000885e800d7
:102500000a0078001e220200000000003808900037
:102510000408e30001003100204088006a00b9008f
:1025200042c52100000041008a007800e421020039
:102530000000000004003700ec004400c0c7210088
:10254000e4210200000000000040800038099000f3
:10255000b008900010002000810f510006003600e6
:102560000900e00002003200800c78000200370011
:1025700010002000304088004f0578004f04be0056
:1025800000000600889fbe008a1f78000004be007d
:102590004860900021c0b300416498000811900089
:1025a0009811900061014100e081490002149800f7
:1025b00013149800e14f500021003a000208e20095
:1025c0000f003a000885e8000a0078001e22020089
:1025d00000000000380890000408e300010031000a
:1025e000204088006a00b90042c521000000410077
:1025f0008a007800e4210200000000000400370097
:10260000ec004400c0c72100e421020000000000eb
:1026100000408000b808900030089000808f500083
:10262000070036000900e00003003200100020001f
:10263000800c780002003700100020003040880035
:102640004f0578004f04be0000000600889fbe00c2
:102650000000e00002003a0009408000010037005d
:102660008004780010200200000000004960900003
:102670000004eb00e24f500003003a000040eb0082
:10268000c064980018002000202002000000000014
:10269000080078004f04be0000000600881f780084
:1026a000000478001020020000000000680c900078
:1026b000202002000000000008f0a7000804ea0043
:1026c0000800e9004f00de004f047800000006001b
:1026d000881f78000004780010200200000000002d
:1026e000e8089000780890000084680008f0a700cf
:1026f0000804ea000804e9004f44de00202002003c
:1027000000000000080078004f0478000000060078
:1027100081017800001190000200e0000c003200fe
:10272000b0009000828040003100980010029000bc
:10273000848f50000200390090007800310098002a
:10274000b000900003007800d407020000000000f1
:1027500000000600889fbe008a1f780000047800f1
:1027600002057800e80c9000081190000200e000db
:10277000210032000a00e0000d003a00280090001d
:10278000d407020000000000a8009000081090008c
:10279000008040002004980098009000810f5000b5
:1027a0001500390018007800200498001200370046
:1027b00038009000d407020000000000881090004c
:1027c0008100ea00380090000100400030049800c9
:1027d000980f500003003100180090008100400065
:1027e00031049800e20f550003003a000900e000b0
:1027f000010032008904e9008904e800690c9800ae
:102800000000eb004f0578004f04be0000000600fa
:10281000889fbe008a1f7800000478001020020004
:1028200000000000b86490000904e00013003400c8
:10283000180890000000e00005003a000f00370083
:10284000180890000000e00002003a000b0037007a
:10285000720544000a0078007c0f020000000000ae
:102860000000e000020032005410020000000000ee
:102870008944e9004240a900f1ff3c0000c0eb00a0
:1028800030649800202002000000000010200200a8
:1028900000000000a86490000904e0001300340068
:1028a000480090000000e00005003a000f003700eb
:1028b000480090000000e00002003a000b003700e2
:1028c000680544000a0078007c0f02000000000048
:1028d0000000e0000200320054100200000000007e
:1028e0008944e9004240a900f1ff3c0000c0eb0030
:1028f0002064980020200200000000004f057800ae
:102900004f04be0000000600889fbe000004be0009
:1029100010200200000000001800780078099000e4
:1029200088109000028ab9008401400013049800c6
:102930008001eb00630c9800200498000201e9007c
:102940000191b900820040003104980000c0eb0002
:1029500020649800306498000900e0000c003a0000
:10296000480090000000e0000f00320068004400c2
:102970007c0f0200000000000000e0000a003200ae
:1029800002230200000000000000000006003700e3
:1029900068004400ce2102000000000072004400e4
:1029a000ce210200000000002020020000000000f4
:1029b000100020004f04be00000006000100e000ef
:1029c00002003a00040a780001003700020a780089
:1029d000700a98000112980011002000040078008d
:1029e000c9ff070000000600889fbe008a9fbe0046
:1029f0000005780081047800824578000000eb0033
:102a00000900e000010032000ac8b9004002b0002d
:102a1000a41d020000000000000478000800e0008f
:102a2000070032004202200008014100080278003d
:102a30008b417800890078000a007800dfff0700ea
:102a4000080078004f05be004f04be0000000600dd
:102a50000600fa00889fbe008a9fbe008c1f780087
:102a600001067800a2bf9f000305780000047800eb
:102a70008004eb00e8054400102002000000000084
:102a8000e808900078089000808f5000020039001c
:102a9000e20f550019003a000a0178008c00780016
:102aa000080078002bff0700980890000100e00064
:102ab00009003200720044007c0f02000000000098
:102ac0000000e000090032000223020000000000c4
:102ad00000000000050037000000e00003003200a5
:102ae000022302000000000000000000202002007d
:102af0000000000010002000410037002fb89700b0
:102b00000000e00004003a00202002000000000065
:102b10000000eb003a0037000900e00004003a0032
:102b2000708057000410020000000000190020000f
:102b30002020020000000000720c020000000000d3
:102b4000102002000000000028609000e14f4000cb
:102b500002003a000040eb002064980038609000ca
:102b6000e14f400002003a000040eb003064980062
:102b70002020020000000000ec8057007080570009
:102b80000e100200000000000000e00017003a00f4
:102b900008007800cefe07000000e0000e003200c2
:102ba000afb897000b007800480f0200000000004b
:102bb0000800780016ff07003e0d0200000000002c
:102bc0000000e000acff3a00022302000000000019
:102bd00000000000a8ff3700080078000cff070085
:102be0003e0d020000000000a3ff3700080078003f
:102bf00007ff07003e0d0200000000000000eb0090
:102c00004f0678004f05be004f04be000080fa005a
:102c100000000600889fbe008a1f78000205780029
:102c2000800478006909900079089000800f5100b5
:102c3000030039000000eb00e28f510018003a0059
:102c4000396490000301780009007800c1fe070094
:102c5000e14f44000f003a00990890001000200056
:102c60000100e0000e003200728044007c0f020080
:102c70000000000080007800100020000100e0004b
:102c8000070032000a00e00005003200000d780065
:102c9000030037000844e800b864980010002000e2
:102ca0004f0578004f04be0000000600881f780022
:102cb0000104780060099000f00990008000eb00aa
:102cc000830f510016003100b06090000201e8004f
:102cd00062089800e1cf40000e003a001009900011
:102ce000110020000200e0000d00320072004000e0
:102cf0007c0f020000000000110020000000e00036
:102d0000070032000800e00005003200010c7800e6
:102d1000030037008140e800316098001100200076
:102d2000010078004f047800000006000600fa0059
:102d3000889fbe008a9fbe008c9fbe00010678005f
:102d400092bf9f0083067800000478000005eb0026
:102d5000f20544001020020000000000e80c900082
:102d60000900e00024003200380590008c00780053
:102d70000800780066fe07000d00e0000e003a0033
:102d80008904e900690c9800480090000000e00008
:102d900015003200680044007c0f020000000000b3
:102da0000000e000100032000223020000000000da
:102db000000000000c0037003a049800180890004a
:102dc0000000e00008003200720044007c0f0200a6
:102dd000000000000000e0000300320002230200b7
:102de00000000000000000002020020000000000a1
:102df00010002000450037001fb897000000e000d9
:102e000004003a0020200200000000000000eb0057
:102e10003e0037000a00e00004003a0072805700cc
:102e200004100200000000001a0020002020020010
:102e300000000000720c02000000000010200200e0
:102e40000000000028609000e14f400002003a00be
:102e50000040eb002064980038609000e14f400093
:102e600002003a000040eb0030649800202002008d
:102e700000000000ee805700728057000e10020024
:102e8000000000000000e00017003a000800780091
:102e900002fe07000000e0000e0032009fb897001d
:102ea0000b007800480f02000000000008007800c6
:102eb00057fe07003e0d0200000000000000e00089
:102ec000a4ff3a00022302000000000000000000fe
:102ed000a0ff3700080078004dfe07003e0d0200fd
:102ee000000000009bff37000800780048fe070044
:102ef0003e0d02000000000008007800e7fd07001a
:102f00000000e00093ff32000000eb004f06be001f
:102f10004f05be004f04be000080fa00000006000e
:102f2000889fbe008a9fbe0082057800000478005a
:102f3000e80c90000000eb000900e00019003200ee
:102f40002865900008007800f1fd07008904e90079
:102f5000690c9800e14f45000f003a00c80090004e
:102f6000100020000100e0000e0032006800440064
:102f70007c0f02000000000080007800100020009c
:102f80000100e000070032000b00e0000500320005
:102f9000800d7800030037000a45e8002a64980095
:102fa000100020004f05be004f04be0000000600c8
:102fb000889fbe0000047800680990000000eb00c4
:102fc0000200e00005003200b8049000080078001c
:102fd000cffd070039049800100020004f04be0008
:102fe00000000600881f780000047800102002000e
:102ff00000000000680c900020200200000000008b
:10300000080078004f04780000000600889fbe008a
:103010008004780010200200000000006908900081
:10302000790c9000000454002020020000000000f1
:10303000080078004f04be00000006006008900001
:10304000000006002c1e0200000000000000060028
:103050006008900000f0a7000000ea000000e9000e
:103060004f00de0000000600e008900070089000ad
:103070000080680000f0a7000000ea000000e900fe
:103080004f00de00000006000200fa00889fbe002c
:103090008a1f780058052000ea0a20000000eb0093
:1030a000ea0e020000000000760c020000000000a2
:1030b000800478000000eb00c0bf9f0068418800da
:1030c0008001eb00f20a2000e880570040418000b8
:1030d00028150200000000000000e000020032009d
:1030e0001000200010418800760c02000000000053
:1030f000890450008a8f540002003e001000200016
:1031000010418800e00b2000808f54000200360040
:103110001000200010418800684188000000eb008a
:10312000ea0e020000000000760c02000000000021
:1031300080047800684188008001eb00f20a2000da
:10314000e880570040418000961602000000000011
:103150000000e00002003200100020001041880052
:10316000760c020000000000890450008a8f540091
:1031700002003e001000200010418800e00b2000fb
:10318000808f54000200360010002000104188009b
:10319000684188002028ec00c0ff37000200fa00d8
:1031a000889fbe008a9fbe00210020000000eb0027
:1031b0000a0b020000000000760c02000000000074
:1031c00000047800f00a2000100e02000000000049
:1031d000760c02000000000008045000610b200083
:1031e000810f5400020036001000200010418800ba
:1031f000760c02000000000080047800b9bf9f0038
:103200000004eb006a0b20007b172000b1042000b3
:103210006a805700300e020000000000760c0200a9
:103220000000000009005000080050008a0f500004
:103230000200360010002000104188001e28ec001b
:10324000b804b0008b0f5400f0ff3a0011002000ca
:103250000000eb000a0b0200000000004f05be005a
:103260004f04be000080fa00000006000400fa00cf
:10327000889fbe008a9fbe008c1f780059052000e1
:10328000c6ff07000000eb0090bf9f000004eb00aa
:10329000ab002000085cdd00760c0200000000009e
:1032a000000578008001eb0008017800ec805700f1
:1032b0004041800096160200000000000000e0007f
:1032c000020032001000200010418800760c02003d
:1032d000000000000a0550008a0f5400020036006a
:1032e00010002000104188006f044400880f550032
:1032f0000200360010002000104188009fb897009f
:103300000104e80098bf9f00e40f5400e1ff34007f
:103310000000eb0090bf9f000004eb001a002000ab
:103320008801780008017800ee8057004041800055
:103330002815020000000000e10f500001003200db
:103340001a4188009fb897000100e80090bf9f00d5
:10335000e40f5000f2ff34000000eb0090bf9f002c
:103360000004eb00ac0020001b0020000864dd001e
:10337000760c020000000000000578008001eb00e0
:1033800008017800ee8057004041800028150200b7
:10339000000000000000e000010032001b41880036
:1033a000760c0200000000000a0550008a0f54004d
:1033b000010036001b4188006f044400880f55004f
:1033c000010036001b4188009fb897000104e80007
:1033d00098bf9f00e40f5400e4ff34002c28ef0056
:1033e00050418000920b020000000000604180000c
:1033f000890f5000070032004801200008007800c3
:10340000100e02000000000061418000898f500012
:10341000faff3a0040012000100e020000000000f8
:103420002c28ef000000eb0090bf9f006011b80057
:10343000ec8057004041800096160200000000001a
:10344000e10f5000020032001000200010418800ff
:103450006011b800ee80570040418000281502003e
:1034600000000000e10f50000200320010002000b8
:103470001041880061418000898f500002003a00ad
:1034800010002000104188003100200050418000d1
:103490000a0b02000000000060418000890f50000c
:1034a00002003a0010002000104188008000eb006c
:1034b000504180000a0b0200000000009fb89700f6
:1034c0000100e80090bf9f00e40f5000d7ff3400d8
:1034d00060418000890f5000070032004801200041
:1034e00008007800100e020000000000614180001a
:1034f000898f5000faff3a0040012000100e0200b0
:10350000000000002c28ef000000eb0090bf9f009f
:10351000180020006011b800ec8057004041800086
:103520009616020000000000e10f5000010032007a
:10353000184188009fb897000100e80090bf9f00e5
:10354000e40f5000f3ff340050418000920b020062
:103550000000000060418000890f50000700320029
:103560004801200008007800100e02000000000052
:1035700061418000898f5000faff3a00400120002d
:10358000100e0200000000002c28ef000000eb00ed
:1035900090bf9f006011b800ee805700404180004e
:1035a0002815020000000000e10f50000200320068
:1035b00010002000104188006011b800ec80570016
:1035c000404180009616020000000000e10f50000c
:1035d000020032001000200010418800614180008c
:1035e000898f500002003a0010002000104188002e
:1035f00031002000504180000a0b02000000000052
:1036000060418000890f500002003a001000200045
:10361000104188008000eb00504180000a0b02003e
:10362000000000009fb897000100e80090bf9f00d5
:10363000e40f5000d7ff340060418000890f500034
:10364000070032004801200008007800100e020038
:103650000000000061418000898f5000faff3a00ad
:1036600040012000100e0200000000001e28ec00a7
:1036700003ff37000041eb00210020005000200034
:10368000f414020000000000404188000000e00047
:10369000100032008002eb00140020008001eb00db
:1036a000320720002188280060932100580a020078
:1036b00000000000a58220000002eb008001eb006a
:1036c000320720009188280040842100580a020017
:1036d0000000000000000600f3408000324180003e
:1036e0000000eb002141800004418000810f520066
:1036f000050032000281690002f0a7000201ea0021
:103700000200ea004f00de0011418000e18f50000e
:1037100001003a000000eb002008f8002408f9003e
:103720001e08f8002608f900000006000200fa0052
:10373000889fbe008a9fbe008000eb00b1bf9f0043
:10374000000478008004eb000005eb001b00200063
:10375000010037008b047800180190008a0178007e
:10376000ea805700180078002815020000000000c9
:10377000e10f5000f7ff3a000900e00002003a00b4
:10378000280090001008e8003fb897000000e8000b
:10379000b0bf9f00f0ff37000200fa00889fbe0014
:1037a0008a9fbe008c1f7800000478006055b80026
:1037b0008004eb001c0020000200370000057800a8
:1037c0008c0578001801900089017800ec80570082
:1037d000180078009616020000000000e10f50006b
:1037e000f8ff3a002fb897008a0f5000f3ff3a0015
:1037f0000b00e00002003a00a80090009108e800e9
:103800000005e800efff3700889fbe008a9fbe00da
:103810008c1f78000006780060002000a41d0200c4
:1038200000000000000478000041eb0021002000af
:1038300010002000f414020000000000000c7800ca
:103840000a0120001a049800e0ca21002004980010
:1038500060002000a41d0200000000008004780029
:10386000980c78008005eb009b04980040cb210069
:10387000a00498008002eb000c0278008801780018
:1038800032072000017f2800c0bc2100580a020036
:10389000000000006022b800890178003207200093
:1038a000817f280060b92100580a02000000000052
:1038b00060002000a41d0200000000000004780049
:1038c0000041eb002100200010002000f414020051
:1038d00000000000000c78001b04980060cb210061
:1038e0002004980060002000a41d020000000000d9
:1038f00080047800980c78009a04980000cb21008e
:10390000a00498006022b8008801780032072000e7
:1039100001802800c0bc2100580a020000000000fd
:103920008002eb000c027800890178003207200049
:103930008180280060b92100580a020000000000c0
:1039400060002000a41d02000000000000047800b8
:103950000041eb002100200050002000f414020080
:1039600000000000000c78001a04980080cb2100b1
:103970002004980060002000a41d02000000000048
:1039800080047800980c78009a04980020cb2100dd
:10399000a00498006022b800880178003207200057
:1039a0000181280060b92100580a020000000000cf
:1039b0006022b80089017800320720008181280048
:1039c000c0bc2100580a0200000000004f06780029
:1039d0004f05be004f04be0000000600889fbe00d9
:1039e000e3cb210084cb210004047800830378001a
:1039f0008000eb0010002000e6ca21008004eb00ec
:103a000045cb21000181400066017900d30f5100b0
:103a100001003a000900780001814000e62b79009e
:103a200065017900d80f510001003a0009007800c3
:103a300001814000652a79008100e800e38f500091
:103a4000f0ff3a004f04be00000006004185200050
:103a50000108a300060032000100e8000000a100f8
:103a60000240210082804000808050000200370028
:103a70000100780001402100a04188003628ef00b5
:103a800081004000e48050000100a100c141880095
:103a90000001eb009200980082087800008150003d
:103aa0001200980001087800724188008241880065
:103ab000000028009041880000000600428320009a
:103ac000010037000101780092007800808f5000db
:103ad000fcff39008201780012029000840241004c
:103ae000850f500004003a001000900004024000ce
:103af00014019800020078001001900002024000ba
:103b0000848f50000b003a00c4418000810f5200a6
:103b100006003200910090000281400012009800df
:103b2000930078001108780003003700040878003b
:103b30000100370001087800808f51000100320039
:103b40008009780000000600889fbe008a9fbe00a2
:103b50008c1f780080047800720c020000000000c6
:103b60003808e20001003a00b8ff07009a418000df
:103b70000a8064000004eb0030003a000900e00015
:103b80002e003200e48444000908a3000200320041
:103b90000900a1008984e8000004eb000900e000ae
:103ba000260032008c4180008c8f540023003e00a0
:103bb000ab41800041832000020037008b00780079
:103bc000800578001b009000808f540003003600b1
:103bd0001b0078000000e000f8ff3a000004eb0052
:103be000c04180008b0f500014003200110078009b
:103bf000640440009b0878009b009000898050007e
:103c0000e88f50000400360009804500110098003c
:103c100099059800a9ff07009b009000010056003d
:103c2000804188002e08e3000100360070418800c2
:103c30008100750091059800800deb003e0d02009b
:103c400000000000080078004f0678004f05be0015
:103c50004f04be0000000600881f78000000e0004e
:103c6000120032006404500070b897009141800047
:103c7000008160000d0032001800e0000b003a00e7
:103c80008180ea000080600010049800720c02003d
:103c900000000000180090003028b40008007800f0
:103ca00086ff07003e0d0200000000004f04780070
:103cb0000000060080418000000006007041800086
:103cc0000000060000000600889fbe008a1f7800e2
:103cd0000004be0002057800e0c2a900e4c2a90009
:103ce000f20b2000103a8000000161006004200007
:103cf00071052000237420008049780081497800f4
:103d00008249780002fc2f00d33680000301610055
:103d1000c201b300d2368800f30f2c0012358000a8
:103d20008281610002302100030171001235880098
:103d3000123a80000260a0002374200080497800bd
:103d400081497800824978000041eb001100200091
:103d50000a007800f41402000000000020428800ed
:103d60000041eb00110020000a007800f41402006a
:103d700000000000004288005062a9005002a90023
:103d800090ff2f005022b6005082a90050a2a90037
:103d900050c2a90050e2a900f0cf2f005022b60077
:103da0005182a90051a2a90051e2a8000800be005a
:103db0001206020000000000020020000318240088
:103dc000bc060200000000000001be00004022000e
:103dd00041a724003a050200000000000200200074
:103de00003f023007e04020000000000dc05020056
:103df00000000000c0128800f0f32f005222b6002d
:103e00005342a80053c2a90053a2a90053e2a9003b
:103e1000f0f12f004200b6000050a0001002880010
:103e200000000000000000008e40a9008e60a90084
:103e3000f08f2f00cc00b6000080a0006006880044
:103e4000f0ff2800cc00b60000c0a000600688008b
:103e50009e60a8009e40a8005202ab000300320002
:103e6000b01280005202ab00fdff3a0010002000ab
:103e7000104288000000eb004f0578004f04be00a0
:103e8000000006008001eb00204280009616020030
:103e90000000000000f0a7000000ea000000ea00b7
:103ea0004f00de00000006000200fa00e1ff9f0064
:103eb0008001eb008f80e90000428000281502009d
:103ec00000000000800078000000eb00e18f50004f
:103ed00005003a00100020004208e2000200320013
:103ee0004228ef008e60a8000080fa000000060063
:103ef00000000600610060004600dd002117800020
:103f00000160a100810070002117880000000600f8
:103f10002000fa0003fe2f0083814700048228005e
:103f20000f000900b4197800800178008119780029
:103f30008000eb00811978008119780082197800df
:103f4000e2fd2f000f0141008002b00083007800e5
:103f5000d2187800808f5000fdff3a000002200048
:103f600003004000210280000118780093018000c6
:103f700003187800a4018000041878000018eb00f2
:103f80000080fa0000000600000006000421ef0097
:103f90000021ef00301f200010088800f0ff2800eb
:103fa000a400b60000c0a000200588008460a9001d
:103fb0009460a8000481a80004a1a90005e1a8005c
:103fc00000000600c61f0200000000000040800044
:103fd000900778004f007800704288003400f900a4
:103fe0003200f9004400f9005400f9003600f900ed
:103ff0004f0778004f06be004f05be004f04be00bd
:104000004f03be004f02be004f01be004f00be0076
:104010004200f90000000600100020000000060029
:10402000f0f12f004200b6000050a00010028800fe
:1040300000000000000000004e28ec000000060018
:104040004e08ed007042880003003a00f0f12f00a6
:104050004220b600000000000000060030002000f2
:10406000100e02000000000030002000100e0200c0
:104070000000000030002000100e020000000000d0
:1040800030002000100e0200000000003000200070
:10409000100e0200000000000000060030002000aa
:1040a000100e02000000000000000600300020009a
:1040b000100e02000000000000000600889fbe00f5
:1040c000000478001804e0000600320039002000e7
:1040d00009007800100e0200000000001804e00043
:1040e000fbff3a004f04be00000006000400fa0087
:1040f000889fbe008a1f7800d8ff0700a08528008f
:10410000eeff07000005eb000004eb008084eb00ed
:104110008801780009017800ea8057009042800009
:104120009616020000000000e10f5000f8ff3a0070
:10413000daff070061006500dcff07000a05e80000
:104140004fb89700ddff07003fb89700100e020040
:1041500000000000eeff37000041eb0041002000ae
:1041600030002000f414020000000000904288009b
:104170008002eb00140020008001eb0032072000d9
:10418000b186280060072200580a020000000000e3
:1041900090428000000006000400fa00889fbe00e4
:1041a0008a9fbe008c9fbe00800478000004eb0054
:1041b0007a4429003b002000bc712700edff2f004e
:1041c0000100370018002000b00720000100200087
:1041d00080bf9f0091bf9f000fb897009fb89700c6
:1041e0000000450081804d0080bf9f0091bf9f006f
:1041f0000fb897009fb89700d2ff2f00028ab9002e
:10420000800152000200b8008180410080bf9f0001
:1042100091bf9f000fb897009fb8970072002000d1
:1042200003002000be0502000000000080bf9f00c8
:1042300091bf9f000fb897009fb897008c0f500058
:104240008d8f5800dfff3a000800e000deff3a00e3
:10425000102002000000000010002000800c7800f8
:104260002020020000000000d7ff37000002780085
:104270008002eb000385200032072000018928001e
:10428000c00c2200580a02000000000000000600d6
:10429000804280005028ef0000f0a7000000ea00f4
:1042a0000000ea004f00de00000006008002eb0084
:1042b000340020008001eb00620e200001872800fe
:1042c000e0162200580a0200000000000000eb0087
:1042d000b40a02000000000000000600881f7800f9
:1042e000481f2000201780004700de000080ea0001
:1042f000610060004700dd00211780000170a1000f
:10430000810070002117880008007800100e02005c
:1043100000000000f3ff3700402202000000000010
:1043200000000600fcff07006100200002b024002e
:1043300003002000200020009e2302000000000057
:104340008002eb00544280008001eb003207200025
:104350007187280060152200580a02000000000042
:1043600000e224007423020000000000320c02006e
:10437000000000000000eb00000006000000060046
:10438000f0f12f004200b6000050a000100288009b
:104390000000000000000000ffff3700e4004000c4
:1043a000110098000081eb00220098003100980075
:1043b000410098000008eb00000006008000eb00c0
:1043c0004100980000000600100190009200980043
:1043d000a2019000a3009800a20190009101980012
:1043e00021019800c00098001008e80000000600b5
:1043f00011027800e10f420002003a00c001900073
:1044000006003700e4014000010037008201780017
:1044100013019000920f5200fcff31001301900035
:104420009200980021019800a30098009101980043
:10443000c00098001008e80000000600c0009000ce
:1044400010019000a001900023019800200190002d
:10445000900190001301980011019000800f51000d
:1044600002003a0022019000920098000001eb0047
:10447000420098001100e900800878000000060062
:10448000e0a2a900001780004200dd000008b20091
:10449000011780000170a1008100700001178800e1
:1044a000e4a2a900201780004200dd000008b2004d
:1044b000211780000170a100810070002117880081
:1044c000d8e2a800e6e4a900f0ff2800ac00b6009e
:1044d00000c0a000600588008660a9006400a800f4
:1044e0009660a800000006000100e000060032000f
:1044f0001020020000000000e4a2a800202002001a
:10450000000000000500370010200200000000003d
:10451000e4a2a90020200200000000000000060024
:104520001020020000000000201780004500de007f
:104530000080ea00610060004500dd002117800076
:104540000150a10081007000211788002020020086
:0845500000000000000006005d
:020000040000fa
:104558004e0800000200000082000000ef0000008a
:10456800541c00005a0000008000000000080000f1
:104578001e00000080000000540800000014000025
:10458800800000002e0800000c00000080000000e1
:10459800ae1c000018000000800000001e0800008b
:1045a8001000000080000000460800000400000021
:1045b8008000000050080000020000008000000099
:1045c8003a08000006000000800000004a080000c9
:1045d8000400000082000000040003000000000046
:1045e800400800000600000080000000520800009b
:0c45f80002000000800000000000000035
:020000040000fa
:104604004200f800801f7800000220001002880099
:10461400811f7800829fbe00849fbe00869fbe00db
:10462400889fbe008a9fbe008c9fbe008e1f7800ac
:104634003600f8005400f8004400f8003200f80096
:104644003400f80070428000801f78000040800031
:104654000f087800760e0200000000000040800081
:10466400900778004f007800704288003400f90009
:104674003200f9004400f9005400f9003600f90052
:104684004f0778004f06be004f05be004f04be0022
:104694004f03be004f02be004f01be004f00be00dc
:1046a4004200f9000000060050088000e14180004b
:1046b400e48f500007003600f14180008100500073
:1046c400d2418000810f510004003100d1418800a3
:1046d400020037008100e800e1418800f0418800d1
:1046e40000000600000178001021ef001221ef0005
:1046f4000621ef000a21ef008001eb00009020006a
:10470400d103200024070200000000006008880094
:104714000ea1ef00f0ff2800a600b60000d0a00014
:104724003005880084e0a90094e0a80011e1a80005
:1047340013e1a800000006000202be004142880006
:10474400820120000400be00641e0200000000007c
:1047540000000600304280004628ef0000f0a70069
:104764000000ea000000ea004f00de00000006003e
:020000040000fa
:020000040001f9
:0457f0003fff000077
:020000040000fa
:020000040001f9
:0457f400ffff0000b3
:020000040000fa
:020000040001f9
:0457f8009de0000030
:020000040000fa
:020000040001f9
:0457fc009f3a0000d0
:00000001FF
