:020000040000fa
:080000000002040000000000f2
:020000040000fa
:04000800c004000030
:020000040000fa
:04000c00c00400002c
:020000040000fa
:04001000c004000028
:020000040000fa
:04001400c004000024
:020000040000fa
:04001800c004000020
:020000040000fa
:04001c00c00400001c
:020000040000fa
:04002000c004000018
:020000040000fa
:04002400c004000014
:020000040000fa
:04002800c004000010
:020000040000fa
:04002c00c00400000c
:020000040000fa
:04003000c004000008
:020000040000fa
:040034002c03000099
:020000040000fa
:04003800c004000000
:020000040000fa
:04003c00c0040000fc
:020000040000fa
:04004000c0040000f8
:020000040000fa
:04004400660300004f
:020000040000fa
:04004800960300001b
:020000040000fa
:04004c00c0040000ec
:020000040000fa
:04005000c0040000e8
:020000040000fa
:04005400c0040000e4
:020000040000fa
:04005800c0040000e0
:020000040000fa
:04005c00c0040000dc
:020000040000fa
:04006000c0040000d8
:020000040000fa
:04006400c0040000d4
:020000040000fa
:04006800c0040000d0
:020000040000fa
:04006c00c0040000cc
:020000040000fa
:04007000c0040000c8
:020000040000fa
:04007400be030000c7
:020000040000fa
:04007800c0040000c0
:020000040000fa
:04007c00c0040000bc
:020000040000fa
:04008000c0040000b8
:020000040000fa
:04008400c0040000b4
:020000040000fa
:04008800c0040000b0
:020000040000fa
:04008c00c0040000ac
:020000040000fa
:04009000c0040000a8
:020000040000fa
:04009400c0040000a4
:020000040000fa
:04009800c0040000a0
:020000040000fa
:04009c00c00400009c
:020000040000fa
:0400a000c004000098
:020000040000fa
:0400a400c004000094
:020000040000fa
:0400a800c004000090
:020000040000fa
:0400ac00c00400008c
:020000040000fa
:0400b000c004000088
:020000040000fa
:0400b400c004000084
:020000040000fa
:0400b800c004000080
:020000040000fa
:0400bc00c00400007c
:020000040000fa
:0400c000c004000078
:020000040000fa
:0400c400c004000074
:020000040000fa
:0400c800c004000070
:020000040000fa
:0400cc00c00400006c
:020000040000fa
:0400d000c004000068
:020000040000fa
:0400d400c004000064
:020000040000fa
:0400d800c004000060
:020000040000fa
:0400dc00c00400005c
:020000040000fa
:0400e000c004000058
:020000040000fa
:0400e400c004000054
:020000040000fa
:0400e800c004000050
:020000040000fa
:0400ec00c00400004c
:020000040000fa
:0400f000c004000048
:020000040000fa
:0400f400c004000044
:020000040000fa
:0400f800c004000040
:020000040000fa
:0400fc00c00400003c
:020000040000fa
:04010000c004000037
:020000040000fa
:04010400c004000033
:020000040000fa
:04010800c00400002f
:020000040000fa
:04010c00c00400002b
:020000040000fa
:04011000c004000027
:020000040000fa
:04011400c004000023
:020000040000fa
:04011800c00400001f
:020000040000fa
:04011c00c00400001b
:020000040000fa
:04012000c004000017
:020000040000fa
:04012400c004000013
:020000040000fa
:04012800c00400000f
:020000040000fa
:04012c00c00400000b
:020000040000fa
:04013000c004000007
:020000040000fa
:04013400c004000003
:020000040000fa
:04013800c0040000ff
:020000040000fa
:04013c00c0040000fb
:020000040000fa
:04014000c0040000f7
:020000040000fa
:04014400c0040000f3
:020000040000fa
:04014800c0040000ef
:020000040000fa
:04014c00c0040000eb
:020000040000fa
:04015000c0040000e7
:020000040000fa
:04015400c0040000e3
:020000040000fa
:04015800c0040000df
:020000040000fa
:04015c00c0040000db
:020000040000fa
:04016000c0040000d7
:020000040000fa
:04016400c0040000d3
:020000040000fa
:04016800c0040000cf
:020000040000fa
:04016c00c0040000cb
:020000040000fa
:040170000004000087
:020000040000fa
:040174005a04000029
:020000040000fa
:04017800c0040000bf
:020000040000fa
:04017c00c0040000bb
:020000040000fa
:04018000c0040000b7
:020000040000fa
:04018400c0040000b3
:020000040000fa
:04018800c0040000af
:020000040000fa
:04018c00c0040000ab
:020000040000fa
:04019000c0040000a7
:020000040000fa
:04019400c0040000a3
:020000040000fa
:04019800c00400009f
:020000040000fa
:04019c00c00400009b
:020000040000fa
:0401a000c004000097
:020000040000fa
:0401a400c004000093
:020000040000fa
:0401a800c00400008f
:020000040000fa
:0401ac00c00400008b
:020000040000fa
:0401b000c004000087
:020000040000fa
:0401b400c004000083
:020000040000fa
:0401b800c00400007f
:020000040000fa
:0401bc00c00400007b
:020000040000fa
:0401c000c004000077
:020000040000fa
:0401c400c004000073
:020000040000fa
:0401c800c00400006f
:020000040000fa
:0401cc00c00400006b
:020000040000fa
:0401d000c004000067
:020000040000fa
:0401d400c004000063
:020000040000fa
:0401d800c00400005f
:020000040000fa
:0401dc00c00400005b
:020000040000fa
:0401e000c004000057
:020000040000fa
:0401e400c004000053
:020000040000fa
:0401e800c00400004f
:020000040000fa
:0401ec00c00400004b
:020000040000fa
:0401f000c004000047
:020000040000fa
:0401f400c004000043
:020000040000fa
:0401f800c00400003f
:020000040000fa
:0401fc00c00400003b
:020000040000fa
:04020800c00400002e
:020000040000fa
:04020c00c00400002a
:020000040000fa
:04021000c004000026
:020000040000fa
:04021400c004000022
:020000040000fa
:04021800c00400001e
:020000040000fa
:04021c00c00400001a
:020000040000fa
:04022000c004000016
:020000040000fa
:04022400c004000012
:020000040000fa
:04022800c00400000e
:020000040000fa
:04022c00c00400000a
:020000040000fa
:04023000c004000006
:020000040000fa
:04023400c004000002
:020000040000fa
:04023800c0040000fe
:020000040000fa
:04023c00c0040000fa
:020000040000fa
:04024000c0040000f6
:020000040000fa
:04024400c0040000f2
:020000040000fa
:04024800c0040000ee
:020000040000fa
:04024c00c0040000ea
:020000040000fa
:04025000c0040000e6
:020000040000fa
:04025400c0040000e2
:020000040000fa
:04025800c0040000de
:020000040000fa
:04025c00c0040000da
:020000040000fa
:04026000c0040000d6
:020000040000fa
:04026400c0040000d2
:020000040000fa
:04026800c0040000ce
:020000040000fa
:04026c00c0040000ca
:020000040000fa
:04027000c0040000c6
:020000040000fa
:04027400c0040000c2
:020000040000fa
:04027800c0040000be
:020000040000fa
:04027c00c0040000ba
:020000040000fa
:04028000c0040000b6
:020000040000fa
:04028400c0040000b2
:020000040000fa
:04028800c0040000ae
:020000040000fa
:04028c00c0040000aa
:020000040000fa
:04029000c0040000a6
:020000040000fa
:04029400c0040000a2
:020000040000fa
:04029800c00400009e
:020000040000fa
:04029c00c00400009a
:020000040000fa
:0402a000c004000096
:020000040000fa
:0402a400c004000092
:020000040000fa
:0402a800c00400008e
:020000040000fa
:0402ac00c00400008a
:020000040000fa
:0402b000c004000086
:020000040000fa
:0402b400c004000082
:020000040000fa
:0402b800c00400007e
:020000040000fa
:0402bc00c00400007a
:020000040000fa
:0402c000c004000076
:020000040000fa
:0402c400c004000072
:020000040000fa
:0402c800c00400006e
:020000040000fa
:0402cc00c00400006a
:020000040000fa
:0402d000c004000066
:020000040000fa
:0402d400c004000062
:020000040000fa
:0402d800c00400005e
:020000040000fa
:0402dc00c00400005a
:020000040000fa
:0402e000c004000056
:020000040000fa
:0402e400c004000052
:020000040000fa
:0402e800c00400004e
:020000040000fa
:0402ec00c00400004a
:020000040000fa
:0402f000c004000046
:020000040000fa
:0402f400c004000042
:020000040000fa
:0402f800c00400003e
:020000040000fa
:0402fc00c00400003a
:020000040000fa
:04030000c004000035
:020000040000fa
:04030400c004000031
:020000040000fa
:04030800c00400002d
:020000040000fa
:04030c00c004000029
:020000040000fa
:04031000c004000025
:020000040000fa
:04031400c004000021
:020000040000fa
:04031800c00400001d
:020000040000fa
:04031c00c004000019
:020000040000fa
:04032000c004000015
:020000040000fa
:04032400c004000011
:020000040000fa
:04032800c00400000d
:020000040000fa
:04032c00c004000009
:020000040000fa
:04033000c004000005
:020000040000fa
:04033400c004000001
:020000040000fa
:04033800c0040000fd
:020000040000fa
:04033c00c0040000f9
:020000040000fa
:04034000c0040000f5
:020000040000fa
:04034400c0040000f1
:020000040000fa
:04034800c0040000ed
:020000040000fa
:04034c00c0040000e9
:020000040000fa
:04035000c0040000e5
:020000040000fa
:04035400c0040000e1
:020000040000fa
:04035800c0040000dd
:020000040000fa
:04035c00c0040000d9
:020000040000fa
:04036000c0040000d5
:020000040000fa
:04036400c0040000d1
:020000040000fa
:04036800c0040000cd
:020000040000fa
:04036c00c0040000c9
:020000040000fa
:04037000c0040000c5
:020000040000fa
:04037400c0040000c1
:020000040000fa
:04037800c0040000bd
:020000040000fa
:04037c00c0040000b9
:020000040000fa
:04038000c0040000b5
:020000040000fa
:04038400c0040000b1
:020000040000fa
:04038800c0040000ad
:020000040000fa
:04038c00c0040000a9
:020000040000fa
:04039000c0040000a5
:020000040000fa
:04039400c0040000a1
:020000040000fa
:04039800c00400009d
:020000040000fa
:04039c00c004000099
:020000040000fa
:0403a000c004000095
:020000040000fa
:0403a400c004000091
:020000040000fa
:0403a800c00400008d
:020000040000fa
:0403ac00c004000089
:020000040000fa
:0403b000c004000085
:020000040000fa
:0403b400c004000081
:020000040000fa
:0403b800c00400007d
:020000040000fa
:0403bc00c004000079
:020000040000fa
:0403c000c004000075
:020000040000fa
:0403c400c004000071
:020000040000fa
:0403c800c00400006d
:020000040000fa
:0403cc00c004000069
:020000040000fa
:0403d000c004000065
:020000040000fa
:0403d400c004000061
:020000040000fa
:0403d800c00400005d
:020000040000fa
:0403dc00c004000059
:020000040000fa
:0403e000c004000055
:020000040000fa
:0403e400c004000051
:020000040000fa
:0403e800c00400004d
:020000040000fa
:0403ec00c004000049
:020000040000fa
:0403f000c004000045
:020000040000fa
:0403f400c004000041
:020000040000fa
:0403f800c00400003d
:020000040000fa
:0403fc00c004000039
:020000040000fa
:100400000f1422000e7f22000e0188000000000061
:10041000000020000000e000020032000001200087
:100420002002880014000700840107000000e0009b
:1004300003003a0080bb23000100200002003700c7
:100440000000200001002000810f70000100320038
:1004500014000700000020000000e000020032004d
:1004600000000200000000005e34020000000000f6
:100470000040da000000fe004440a900200e2000e9
:100480000000e000030032000020200090018800fe
:100490004440a800000006008a1f78008b1f7800e7
:1004a00000000600a1028800800478000000eb0034
:1004b0001f003700e284440054a0b4009905ba003c
:1004c000e284440054a0b4009906ba00e2844400d7
:1004d00054a0b4000006eb00476fde00fd07b20039
:1004e000ae018800636ce10003003a00eaff0700f8
:1004f0000000eb000e003700606ce10008003a00dd
:10050000004deb000a05e800020039003420ec0041
:100510000af0a0008b05e900f9ff3e000400370057
:100520006168e100010032000086eb000b0007006b
:1005300019c7ba001905ba000e04e00003003a001a
:100540000a00e000dbff3a0000000600fe07b200f0
:10055000ae0288008a047800f5ff37000cd0a300b3
:10056000e20f4d001c00390089027800354dba00b9
:100570000a05e800020039003420ec000af0a0006f
:100580008b05e9000f003200254dba000a05e8008e
:10059000020039003420ec000af0a0008b05e900cd
:1005a000080032000c00e0000600320015cdba0051
:1005b0000a05e800020039003420ec000af0a0002f
:1005c0008b05e9008984e80054a0b4000b00e0002a
:1005d000e2ff3a00000006009902ba00055d7800cb
:1005e0008b05e900f7ff3200c82ade00055d7800c0
:1005f0008b05e900f3ff32000c00e000f1ff320050
:1006000019ddba00eeff3700000000000000000016
:1006100000000000000000000000000000000000da
:1006200000000000000000000000000000000000ca
:1006300000000000000000000000000000000000ba
:1006400000000000000000000000000000000000aa
:1006500000000000000000003600f800809fbe008f
:10066000829fbe00849fbe00869fbe003200f800bd
:100670003400f80010002000a001880000202000b5
:10068000900188000000fa008460a9001818020098
:10069000000000000000e00003003200423e0200c3
:1006a00000000000000000000080fa003400f900a3
:1006b0003200f9004f03be004f02be004f01be00e2
:1006c0004f00be003600f900004006003600f8007a
:1006d000809fbe00829fbe00849fbe00869fbe009a
:1006e0003200f8003400f80010002000a00188005b
:1006f00000202000900188000000fa00143e020053
:100700000000000084e0a9000080fa003400f90035
:100710003200f9004f03be004f02be004f01be0081
:100720004f00be003600f90000400600809fbe006a
:100730003200f8003400f80010002000a00188000a
:1007400000202000900188000000fa00b0428000e4
:10075000c142800061004000e0804800b042880053
:10076000c14288008500a9000080fa003400f90029
:100770003200f9004f00be0000400600809fbe001e
:100780003200f8003400f80010002000a0018800ba
:1007900000202000900188000200fa00d11680009d
:1007a00000082000008060000000e0000e003a0019
:1007b0000000eb00000f7800201780004500de00ed
:1007c000614060000004a200614060000080fb0006
:1007d000610060004500dd00211780000150a1008c
:1007e00001007000201788008660a9000080fa00d0
:1007f0003400f9003200f9004f00be00004006004e
:100800003600f800809fbe00829fbe00849fbe001d
:10081000869fbe003200f8003400f800100020006f
:10082000a001880000202000900188000400fa0048
:100830000000eb00100798008e40a9000a00370066
:10084000b012800000407800004f7800d042800055
:100850008e80e8008001eb00010178008e007800b6
:10086000c8260200000000009012800061006000b5
:100870000000e000f2ff3a001e0090000000e000df
:1008800003003200423e02000000000000000000b1
:100890000080fa003400f9003200f9004f03be0076
:1008a0004f02be004f01be004f00be003600f900ef
:1008b000004006003600f800809fbe00829fbe0008
:1008c000849fbe00869fbe003200f8003400f8000e
:1008d00010002000a0018800002020009001880066
:1008e0000400fa000000eb00100798008e60a900d9
:1008f0000f003700e04280008e80e80001017800a0
:100900008e007800ce28020000000000e10f5000a9
:1009100004003a001e4078000000fb00a01288008e
:100920000300370010002000f04288000500370067
:100930009112800000202000008060000000e00094
:10094000ecff32001e0090000000e00003003200c7
:10095000423e020000000000000000000080fa009b
:100960003400f9003200f9004f03be004f02be0010
:100970004f01be004f00be003600f90000400600e7
:100980000040da000000fe000a00fa00e20f50000a
:100990001f003e00f0098100e10f50000600320008
:1009a000802320004523200023232000042320004f
:1009b0000000e00004003a008022200045222000d0
:1009c0002322200004222000060028009403630054
:1009d00002003a0007087800140a730013a8a30065
:1009e00001003a0013a0a0000200780005003700c3
:1009f0001388a300feff32003102fb00840a780056
:100a00000000e9000000e000f9ff3a0008003700ac
:100a100033002000b3bf9f00c0bf9f00d1bf9f0025
:100a2000e2bf9f006a805700110507006fb9970069
:100a3000020078000080fa000000060000000500b7
:100a400003f0a200889fbe008a9fbe008c1f780022
:100a500002010700090133006450e1004f00320039
:100a60006420e1005200320003826c0007003b006a
:100a70000905d0000306d000820f54000c065d006b
:100a80000200390002003200890178000306780074
:100a90008582550004003d000003fd008103fd0038
:100aa0008502ea008b854200840f720002003b0041
:100ab00060001000e08018006011b8000005eb0035
:100ac0007a28e1000a00390006007800c75ddd00e1
:100ad000f707b200878075002d0037008281710012
:100ae0000a017800610560008180d1000080d30098
:100af0008502e900f9ff3b000604400087844800b6
:100b000002003b0060041400e0841c000988a3007c
:100b1000070032008a8171008281710061016400e6
:100b20008904d1000884d3008b05e8001700370042
:100b30000978a30013003a000b00e0001300340012
:100b40008b05e9000804440089844c000a447400c1
:100b50000978a3000d003a000b00e0000700340004
:100b60008b05e9000804440089844c0001003a0028
:100b70000b0020000978a300f7ff32000001eb0012
:100b800002003700828171000a01780078000700b6
:100b90000cf0a70001f0a000c10037006420e100c4
:100ba00002003a00838f6c00c10033000801be00d0
:100bb0000200be00ba003700889fbe008a9fbe00b8
:100bc0008c1f7800a5000700ac00330003866c0082
:100bd0006450e1002e0032006420e1003300320056
:100be0006150e1002f0032006120e100310032004d
:100bf00085855500eb07b00009002000080420009f
:100c0000050037000804440089844c000a003100c4
:100c10000603430087834b000001530081815b0082
:100c2000f8ff33000203be000800a00008044400df
:100c300089844c00f6ff3900c639dd00830173005a
:100c400001003200130020008904d1000884d30081
:100c50000998a300050032000800a7000300a000c7
:100c60008904d1000884d3008b05e8008904d100f1
:100c70000884d3000001eb000281d2003c00070091
:100c800001f0a1000cf0a70001f0a00084003700e3
:100c90006420e100860032000801be000200be00b0
:100ca000f7ff37006120e100810032006000b800ea
:100cb000f3ff37000000200001f82700f0ff3700a5
:100cc000839f68000100e00002003d00600010000a
:100cd000e08018000300e00002003d006001110008
:100ce000e0811900a90007004f00e00002003b006e
:100cf00060001000e0801800000006000001be0047
:100d0000410007000470a70003f0a10003f8a3004e
:100d100013003a006509b1001000320009003500e7
:100d20006928e100020035000100280000000500ec
:100d300000004000818048008502e900fcff3a0085
:100d400000000600f88f4200050035008100d10048
:100d50000080d3008502e800fcff3a000000060096
:100d60008000eb00000005006011b800970037001c
:100d700081002000618055000b003d000b00200029
:100d800061fe2f000100e1001d003400828171002e
:100d9000610164008904d1000884d3000000e800e8
:100da000faff3a0071002000610064000300700047
:100db000020060000900320061044400e0844c003d
:100dc0000988a500050032008b05e8006808e100ed
:100dd00002003a008904d1000884d300f20f2000f9
:100de0000258e10005003d00c75ddd00f907b200d3
:100df0008980750008007800000006000bf82700c5
:100e00008b00780000000500c70ade00f107b20081
:100e1000f50fb20008003200e1cf420002003200bc
:100e20000170a00024000500810f70000100320055
:100e30000408050044000500810f700002003a001c
:100e4000140005008502e9000000400081c0480050
:100e5000fcff3b000170a000240005000004be0060
:100e6000e9ff07000003be000405be000200be004b
:100e7000e5ff0700844f7500000006000200be0079
:100e80006450e100050036006420e10002003600f5
:100e90000968a30001003a000800be000160a0003c
:100ea0004f0678004f05be004f04be00000006004c
:100eb000f0ff2f00f1ff2700f9ff3700889fbe00e9
:100ec0008a9fbe008c1f7800e4ff0700ebff330011
:100ed00003866c006450e100240032006420e100cd
:100ee000270032006150e100220032006120e10061
:100ef000210032008b854200eb07b1000134b800bd
:100f0000003ab8000804420089844a00013ab80057
:100f10000030b8008880400009014a000400330016
:100f20000000400081804800020149008b05e90073
:100f3000c909dd00830170000100320013002000a8
:100f4000c814de004814dd004709de001200b200bc
:100f5000c808de000884700085ff070001f0a100ca
:100f60000cf0a70001f0a000cdff37006120e100e8
:100f7000cfff32000801be000200be00f7ff3700bd
:100f80006150e100fcff3a00c9ff37006022b80061
:100f9000060220000000d0008180d2000482d2002e
:100fa0008582d2000000a0000202520083825a0013
:100fb000030031000202420083824a000000a100c7
:100fc0000603e900f3ff3a0000000600889fbe0018
:100fd0008a9fbe00008270000402710004827100ca
:100fe000260032000004be000200be006011b800fe
:100ff0006b092000950220000182cf000a00390011
:101000000541b1000082cf00070039000541b10061
:101010000982cf00040039000541b1000882cf00e9
:10102000010039000541b1000542520012003200b2
:101030000a003b0082817100610164008100d100df
:101040000080d3008984d3000884d3008b05e80096
:101050000442e800f7ff3a000700370008044400a4
:1010600089844c0000004800818048008b05e9001d
:101070000442e900f9ff3a003dff07004f05be00ba
:101080004f04be00000006000c00fa00889fbe005e
:1010900000047800f0ff2700d0bf9f008004eb0021
:1010a00099bf9f0088bf9f00a8bf9f00200c200011
:1010b000b0bf9f0078815700cfb097007080570075
:1010c000100007000fb89700094878008fb8970004
:1010d000088050004f04be000080fa0000000600a7
:1010e000d0019000028151004240a9000300340069
:1010f00010017800014978000208e800010078003a
:1011000000000600f6874700889fbe008a9fbe0049
:101110008c9fbe008e1f780000057800a1b79f004d
:10112000020778008004eb0090023700afb0970010
:101130008100e800a1b79f0051c2b300814f500069
:1011400003003a00afb097000004eb001100370035
:10115000ba0090000000fb000168a3000700320005
:1011600009017800800078000a007800dcff0700a1
:101170000000e00005003a007c0237008a00780099
:1011800086020700e10f4000780232008904e8007f
:10119000760237000100780031417800d3c2b300f5
:1011a000834f51000c00320007003c00edc151009c
:1011b000834f51000a003200ebc14100834f5100c0
:1011c0000d003a000800370003c3b300834f5100fd
:1011d00009003a00060037000830a000edff370094
:1011e0000800a000ebff37000810a000e9ff37005f
:1011f0000820a000e7ff37000818a3000100320014
:101200000800a1000838a300010032000820a10056
:101210008200fb000103b100e98f50000c003e008a
:10122000000178008000eb006a08b900b201fb0001
:101230000303b10080804100020078009201fb00ae
:101240000303b100e98f5100f7ff360006003700b5
:101250008000eb00a3c2b300834f510002003a00ac
:10126000ce0078000000e8008005eb00e2c2b30089
:10127000904f110009003a0008e0a00064415100bd
:10128000d04f110003003200000178000102780005
:1012900006003700ce0578000000e8000001780065
:1012a000090037006a58b9008085410002007800c3
:1012b000b201fb000303b100e98f5100f9ff3600d2
:1012c00084007800f5ff370032407800a2b79f0015
:1012d000c3c6b300834f5000250032000f003c000e
:1012e00032c6b300824f50008800320004003c0038
:1012f0000004e000220232006b4151000f00370071
:1013000042c6b300824f50001700320065414100d1
:10131000824f500094003a001300370032c7b300e8
:10132000824f50001b00320007003c006441510016
:10133000824f5000100032000241e800824f5000fe
:1013400089003a000f00370052c7b300824f5000a7
:101350008a00320063414100824f500082003a000f
:10136000e0df9f0009003700e0df9f0085003700c5
:101370000840a000d4ff3700e0df9f000860a00015
:1013800080003700e0df9f000850a0000870a00038
:101390007c003700e0df9f004e00780000067800f8
:1013a0000000e00001003a00ac0c22000c017800c3
:1013b0000000eb00010037000000e800e241780087
:1013c0000304e000fcff3a00800678000b00e00018
:1013d000030032008d8f5500010031008b0678002c
:1013e0008005eb008d8f5000010036008d85500088
:1013f000680464002a003a00110037003a009000a7
:101400000068a300070032000901780001022000f3
:101410000a00780032ff07000000e00006003a00f2
:10142000060037008a00780000022000db01070078
:10143000e10f4000010032008904e8008b05e9005b
:101440000b00e000edff3a008085eb001400370050
:101450003a0090000068a300090032000c007800f8
:10146000b000fb0000067800090178000a0078004f
:101470001bff07000000e00008003a0008003700ea
:101480008c0078003100fb00010678008a007800ab
:10149000c2010700e10f4000010032008904e800aa
:1014a0000d0078008006e9000000e000e8ff3a0047
:1014b0000800e000ad013200110037003a00900052
:1014c0000068a30007003200090178000102200033
:1014d0000a00780002ff07000000e00006003a0062
:1014e000060037008a00780000022000ab010700e8
:1014f000e10f4000010032008904e8008b05e9009b
:101500000b00e000edff3a00980137004e01780033
:10151000cf91de00c81ade004818dd004812de0058
:1015200004027000e4df9f000848a30008003200b6
:101530000404e00006003200e14f420004003200e3
:10154000f4df9f0082e79f002d002000020037009b
:10155000f2df9f001d002000e2fd2f000f0141007f
:101560000206e80099ff3700e0df9f00ecfd2f0046
:101570000f0646001d00200094ff3700e0df9f00ab
:10158000080cb30008017800020cb200700064007f
:101590000200e0000d003a000000e000020032000e
:1015a0004e06be00020037004e067800cfe6de0091
:1015b000e00f5600e08f5e000a003d003800b300e7
:1015c00060061600e0861e00060037000000e000fe
:1015d000020032004e06be00020037004e067800c0
:1015e0008006eb000b00e00005003a008c857600d9
:1015f0000bf0a7008b05ea008b05e900cf5dde004c
:1016000088017800030cb200e3b79f0000042000bb
:10161000808f51002300320003003c000300e000f3
:10162000080032002d003700000820006fb297003c
:10163000800f52000d003200000c2000800f52007d
:1016400026003a00220d220010c0b30064014100c0
:10165000b20f5600a28f5e001f0039000040e80064
:10166000ea4f5000f9ff3a001b00370010c0b300ea
:101670000201200003002000820f5600838f5e00cd
:1016800015003900441add00cc11de008301720020
:101690004411dd000040e800e84f5000f6ff3a003a
:1016a0000d00370010c0b3008200200003002000ae
:1016b000820f5600838f5e0007003900431add0059
:1016c000cd11de00830172004311dd000040e8000f
:1016d000eb4f5000f6ff3a00e0df9f006fd9970014
:1016e0000200fb008b0f500002003d00ebdf9f006b
:1016f00003003700808f550001003d008005780011
:101700000100e000030032006300640001003200c9
:101710008100e90008e8a300050032008b8f50002b
:10172000020034008b805000010037008000eb0085
:10173000efd997000300fb000002eb00d4b79f0035
:10174000808f50000200340000805000d0b79f000e
:101750000828a30040003200610164000818a300bb
:101760000f0032003a0090000068a300060032002b
:10177000b10220000200e000010032008180e80098
:10178000090178000d003700b00220000200e000df
:10179000010032000080e8008a0078000e00370067
:1017a0000200e000100032003a0090000068a30040
:1017b0000700320009017800010220000a007800c9
:1017c00047fe07000000e00006003a000600370070
:1017d0008a00780000022000f0000700e10f4000be
:1017e000010032008904e8005fb097000000e000cb
:1017f0005a003200bcb79f00cdb79f00800678002a
:101800003a0090000068a300070032000901780048
:10181000010320000a00780031fe07000000e0000c
:1018200006003a00060037008a0078000003200016
:10183000da000700e10f4000010032008904e800ef
:101840008d06e900eeff3a00ddb79f003fb6970036
:10185000cfb6970041003700dfb197000300e000ea
:101860001a0032000838a30018003a00bcb79f00e5
:10187000cdb79f00830678003a0090000068a3006f
:101880000700320009017800010220000a007800f8
:1018900013fe07000000e00006003a0006003700d3
:1018a0008a00780000022000bc000700e10f400021
:1018b000010032008904e8008d06e900eeff3a00dd
:1018c000ddb79f003fb69700cfb697006101640077
:1018d0000818a3000f0032003a0090000068a3002f
:1018e00006003200b10220000200e00001003200d8
:1018f0008180e800090178000d003700b002200067
:101900000200e000010032000080e8008a00780058
:101910000e0037000200e000100032003a00900094
:101920000068a300070032000901780001022000ce
:101930000a007800eafd07000000e00006003a0017
:10194000060037008a00780000022000930007009c
:10195000e10f4000010032008904e8000b03e900b8
:101960006330b90000017800b2b79f004233dd0058
:10197000200d2200000343008e01780093b79f00e2
:1019800008077800060478005c0037008b05e90042
:10199000000420006fb29700800f52003800320020
:1019a00003003c000400e000080032003e00370065
:1019b00000082000efb09700808f50002000320018
:1019c000000c2000808f500037003a000e48a30022
:1019d000100032001802be000401be000c00be0060
:1019e000f4b79f0085bf9f0068fd0700e0df9f0000
:1019f0000000fb00cf80de007fb297008fba970017
:101a00000401be001c0107000006560081865e002e
:101a10000700370018017800110009000286d8007d
:101a2000a2002000110009000280d800e1df9f0021
:101a30006fd997000243b000e2df9f001a00370021
:101a4000900b22000e58a30001003200800a2200f1
:101a5000210d2200810054000c01be008100e9002c
:101a6000030033008301d1000281d300fbff370064
:101a7000ef006100e0c07800e1df9f000a0037005e
:101a80000c00be00bfb197008301e90003003300e2
:101a90008100d1000080d300fbff37006740600069
:101aa0000043b000e0df9f00ba0090006fda9700bb
:101ab0000400fb000168a300070032000901780060
:101ac000800078000a00780085fd07000000e00033
:101ad00005003a00050037008a0078002f00070053
:101ae000e10f4000010032008904e8003fb0970098
:101af00063005000b0b79f00640454000b00e00086
:101b0000a2ff3a000e0478001fb797000838a30020
:101b100016003200dfb097000100e000130034002f
:101b2000010478003a0090000068a300070032002a
:101b300009017800010220000a00780068fd070012
:101b40000000e00006003a00060037008a00780036
:101b50000002200011000700e10f400001003200e8
:101b60008904e8000804e900eeff3a002fb197006d
:101b700012407800e0df9f000004e0006bfd3a00b7
:101b8000090078004f0778004f06be004f05be00e1
:101b90004f04be006f01b10000000600889fbe0028
:101ba00001047800b80090008084eb000118a300c5
:101bb0003a003200180190000198a30002003a0098
:101bc0000200e00035003a000190a00031049800c6
:101bd00080047800f90fb2000200e00002003a0031
:101be00028009000000c7800ea8f540005003a00ad
:101bf0000178a30003003a0088007800d00020009c
:101c0000e6ff070018009000d8009000810f5000f8
:101c10000b0032000000e800100498001800780063
:101c200009487800000ce80011c0b30080132200be
:101c300001487800ea8f540018003a000500370088
:101c400088007800094078004a0007008004780086
:101c500012003700380090000088a3000f00320007
:101c600018019000a80090004800900046fb070073
:101c700098009000810f500004003200380090005e
:101c80000003b300300498008084eb000000eb00f8
:101c90001004980028009000000c780009007800db
:101ca0004f04be0000000600e68747008e1f780044
:101cb000d0bf9f00e1bf9f000e0037005fba9700c2
:101cc00014407800efb99700934078000201e900d2
:101cd000814f5000040032000080fb008180fb0037
:101ce000010050000600370066875700041fe80017
:101cf000030fe8000200e000f0ff3a000000eb00f4
:101d00004f0778006f00b1000000060080017800e6
:101d100002003700b15978000201e9000200e0003a
:101d2000fcff3a0000000600800178000200370046
:101d3000815978000201e9000200e000fcff3a004e
:101d40000000060000017800b141780003597800d6
:101d50000304e000fcff3a00000006008000780069
:101d60003104e000feff3a000080ea0000804000fd
:101d7000000006000200fa00889fbe00a0ff9f003e
:101d800001047800380090000068a30033003a0096
:101d9000e200600005003a000003b3003004980040
:101da000110498000080eb002e003700d80490004a
:101db0000900e00006003a0012002000e68057000b
:101dc00048009000f0fa070019049800230037003b
:101dd000a80090000100e00008003a00b1132200c2
:101de00021049800010c7800210020005104980083
:101df000110498000030a0003004980018019000f1
:101e0000a800900048009000dffa0700280090002a
:101e10008080eb0011049800aff89700014878002b
:101e2000000ce8002ff89700ea4f50000b003a0032
:101e3000380090000088a3000800320018019000cc
:101e4000a800900048009000cffa07000000eb00c7
:101e500010049800a8009000010c7800aff89700db
:101e60000100fb004f04be000080fa0000000600e5
:101e700000c0da0000000600020ab900001bb90029
:101e80000200b8008100420081004300000006000b
:020000040000fa
:101e9000494400004c450000000900002563000093
:101ea00009250000750900002575000009250000be
:101eb000750d00000a0000000925000075090000ea
:101ec0000925000075250000250d00000a0000000e
:101ed0000925000075090000093c000031250000bb
:101ee000250d00000a000000a5a50000a5a5000022
:101ef000a5a50000a5a50000a5a50000a5a50000ba
:101f0000a5a50000a5a50000a5a50000a5a50000a9
:101f1000514300006f6e000073420000310000006a
:101f200051500000726f0000644200003200000057
:101f3000514300006f6e0000734200003300000048
:101f400051500000726f0000644200003400000035
:101f500051500000726f0000644200003500000024
:101f6000514300006f6e0000734200003600000015
:101f70007374000061720000745f000074610000ff
:101f8000736b0000000d00000a000000764c00009a
:101f90004544000053680000617200006b000000bf
:101fa00076530000746100007475000073540000e3
:101fb000617300006b00000011110000222200007c
:101fc00033330000444400005555000066660000ad
:101fd000777700008888000099990000aaaa00007d
:101fe000bbbb0000cccc0000dddd0000eeee00004d
:101ff000cecd0000acab00004c430000440000001c
:1020000077770000772e00004672000065650000bb
:10201000525400004f5300002e6f00007267000002
:10202000000000004254000065730000743100009d
:10203000004200005465000073740000320000008c
:10204000496e0000744d00006174000068000000db
:042050000400000088
:020000040000fa
:102054001000fa0020079800310798004207980002
:10206400530798006407980075079800e003200060
:10207400c82f020000000000000f78001e00780046
:102084000000e000100032004e009000000040000c
:10209400c82f020000000000800078001e007800b5
:1020a400410898001e007800400890000000e000fd
:1020b40005003a001e007800b03002000000000065
:1020c4000000eb00000f78001e0078000000e00024
:1020d400120032004e0090008000eb000001eb0083
:1020e400821f78009e0378007e039000ee02900029
:1020f4005e0290000001be00be0090002e00900021
:102104000b0007008f87e9001e00780073000700aa
:102114001000200010079800020037000080eb0038
:10212400100798001e0090000080fa0000000600ce
:102134001400fa002007980031079800420798001d
:10214400530798006407980075079800060f9800d5
:10215400170f98004e0090000000400080007800a7
:102164001e0890004008900001017800510a2000e8
:10217400940e0200000000001e089000c0089000a9
:10218400110798001e089000c00890004e019000ae
:10219400f0ff270000004100000040008080400064
:1021a4001e089000711098000000eb00000f7800ea
:1021b4000d0037003e0090001e0040009040780063
:1021c4001e0890001e0040007a004000014878007c
:1021d4003e0090001e004000104078000004e00023
:1021e400050032001e0fe8001e007800f30f5000b7
:1021f400f0ff360001003700000000001e089000c8
:102204008040eb00516898007e009000e30f50007e
:102214000200360030002000700798001e0890006d
:10222400fe009000310898001e0890000080e8002d
:10223400ca380200000000001e0890006c00400034
:10224400ca380200000000001e0890009e0890009a
:10225400410098007e009000e40010001e089000e9
:10226400610098001e0890009e08900011089800d4
:102274001e0990006000b8002019980031199800d8
:102284001e0990006000b800401998005119980088
:102294001e0890008040eb00417898006e01900089
:1022a400ae0090001e00900068370200000000009d
:1022b400800078001e089000010878000e08900045
:1022c4000000e000030032000e0890009e08900019
:1022d400010878000080fa00000006000200fa00fd
:1022e400000f7800623802000000000040408000c7
:1022f4000000e80040408800004080000000e0004a
:1023040007003a009e0078000140880040408000a9
:10231400e10f50000d003a00180507000b003700cc
:10232400704080000000e00008003a000040800097
:10233400b00890001e00780030089000808f500094
:1023440002003e009e00780001408800b0408000fa
:102354000000e800b0408800b14080001e00780012
:10236400011898001e007800b008900060408000ba
:10237400808f5000030036001e0078003008900063
:10238400604088001e81e8001e007800300890003c
:102394006a00b90080007800e00422000080400058
:1023a40082007800d8380200000000007c38020067
:1023b40000000000704080000000e00009003200ce
:1023c40000408000b00890001e00780030089000a3
:1023d400808f500003003100423e020000000000e4
:1023e400000000000080fa00000006000400fa006b
:1023f4001007980062380200000000001e009000e0
:102404000000e00002003a000040800001003700b4
:102414001e009000000f78001e80e800783902004a
:10242400000000001e007800200890000000e0007a
:10243400040032009e0078006c804000783902006d
:1024440000000000b04080000000e800b0408800b8
:10245400004080009e007800808f500009003a0000
:102464001e80e8008000780040092200d83802006d
:1024740000000000304080000000e8003040880088
:1024840006003700404080000000e900404088001a
:102494001e007800c2050700cc0507007c38020046
:1024a40000000000704080000000e00007003200df
:1024b400004080009e007800808f500003003a00a6
:1024c400423e020000000000000000000080fa000c
:1024d400000006000c00fa0040079800510798001d
:1024e4000000eb00000f7800fb0107005140800062
:1024f400110798004e009000900078005e00900054
:1025040000804000200798004e0090009000780062
:102514001e009000808f50000c0036004e0090008a
:10252400900078002e009000808f5000120036003a
:10253400ae0090001e009000808f50000e00360008
:1025440010002000000f78000b0037004e009000b0
:10255400900078002e009000808f500004003e0010
:10256400ae0090001e009000808f500002003600e4
:1025740010002000000f78004e009000ae00900084
:10258400010878001e0078000000e0000500320019
:10259400ae0090001e009000008050008000eb0010
:1025a400c1080700d2010700300798003e009000e0
:1025b4000000e00003003a00423e02000000000078
:1025c400000000000080fa00000006000400fa0089
:1025d400100798000000eb00000f78001e00900028
:1025e4000000e00006003200bb0107008000eb00a1
:1025f4001e009000ac080700bd010700000f780022
:102604001e0078000000e00003003a00423e020091
:1026140000000000000000000080fa000000060036
:102624000800fa0030079800be00900011079800d7
:10263400004080009e009000808f500003003a000c
:102644000000eb00000f78002c0037006238020015
:10265400000000001e009000500090002007980029
:102664007c3802000000000010408000ae009000a2
:10267400808f50000400320020408000ae009000a3
:10268400808f500003003a0020002000000f7800e3
:102694001a003700ae009000e0092200808f50003d
:1026a4000a003a001e009000200890000000e0009c
:1026b40003003a0030002000000f78000f003700bc
:1026c40020002000000f78000c003700ae009000be
:1026d40040092200808f5000030032002e00900039
:1026e4000000e00003003a0040002000000f7800e2
:1026f4000200370010002000000f78001e00780050
:102704000080fa00000006000600fa002007980086
:1027140062380200000000002e0090000000e0007b
:1027240002003a0000408000010037002e009000b3
:10273400000f78001e007800b00890001107980080
:102744007c380200000000001e0090000080fa00a7
:10275400000006000800fa00300798000000eb00b3
:10276400000f78003e0090000000e00002003a00f4
:1027740000408000010037003e00900010079800e0
:102784001e009000b0089000210798002e009000d1
:102794000080fa00000006000c00fa0040079800d0
:1027a400510798000000eb00000f78005e009000d5
:1027b400e30f50000200360030002000500798005c
:1027c40062380200000000004e0090000000e000ab
:1027d40002003a0000408000010037004e009000e3
:1027e400100798001e009000b00890002107980080
:1027f400ae0090005e009000808f50004a003200ce
:10280400de0090002e009000808f50000c003600f7
:10281400004080009e009000808f50000e00320027
:1028240000408000b00890005e009000808f50004f
:1028340009003e0010002000000f78000600370059
:10284400004080009e009000808f500002003a00fb
:1028540010002000000f78001e009000b0089000c7
:10286400310798001e009000de00900031089800a7
:102874001e009000600090000000e000040035009d
:102884005e009000e40010001e00900061009800bb
:102894001e009000500190003e0090006a00b900b4
:1028a40080007800e004220000804000800f510086
:1028b40017003a001e0090000080e80078390200fa
:1028c400000000001e009000b008900060408000ee
:1028d400808f5000030036001e00900030089000e6
:1028e400604088001e0090000081e8001e009000f7
:1028f400300890006a00b90080007800e0042200eb
:102904000080400082007800d838020000000000f7
:102914001e0078000000e00003003200423e020086
:1029240000000000000000007c38020000000000ed
:102934000080fa00000006000400fa001007980066
:1029440062380200000000001e0090000000e00059
:1029540002003a0000408000010037001e00900091
:10296400000f78001e80e8007839020000000000a3
:102974001e007800200890000000e00004003200ef
:102984009e0078006c80400078390200000000004e
:102994001e80e80080007800e0092200d838020098
:1029a400000000007c38020000000000704080003d
:1029b4000000e00005003200623802000000000060
:1029c400820407007c380200000000000040800000
:1029d4009e007800808f50000e003a007040800006
:1029e4000000e00004003200423e0200000000004b
:1029f4000000000007003700f1048100404080001f
:102a0400808f500002003a000028ef0001003700d8
:102a1400f80107000080fa00000006000600fa0032
:102a2400200798000000eb00000f7800ae00900033
:102a3400110798001e009000d0009000e0092200c9
:102a4400808f50000b003a001e009000a0089000f8
:102a5400a0082200808f5000060032001e00900063
:102a6400200890000000e00002003a00100020005e
:102a7400000f78001e0078000080fa0000000600b5
:102a84000400fa00100798009e009000010f7800df
:102a94001e0078000000e0002a00320000408000a0
:102aa4009e007800808f50002600320062380200b9
:102ab400000000001e007800d8ff07000000e000be
:102ac4001e0032001e80e800783902000000000079
:102ad4001e007800b008900060408000808f500095
:102ae400030036001e007800300890006040880023
:102af4001e81e8001e007800300890006a00b900ca
:102b040080007800e0042200008040008200780009
:102b1400d8380200000000001e007800b0089000c1
:102b24000040800030089000808f5000030039007e
:102b3400423e020000000000000000007c38020059
:102b4400000000000080fa00000006000800fa00ff
:102b5400300798000000eb00000f7800be009000e2
:102b6400110798000000eb00200798001e00900059
:102b7400aaff07000000e00029003200e0408000c6
:102b84000000e00020003a001e009000b008900011
:102b94000040800030089000808f5000020039000f
:102ba40010002000000f78001e0090000080e80054
:102bb40078390200000000001e009000b008900068
:102bc40060408000808f5000030036001e0090009b
:102bd40030089000604088001e0090000081e800ea
:102be4001e009000300890006a00b9008000780050
:102bf400e00422000080400082007800d8380200ff
:102c040000000000060037001e0090006c00400029
:102c140080007800a0082200d838020000000000dc
:102c24001e0078000080fa00000006000200fa008e
:102c3400a58120000002eb008001eb003207200098
:102c440081f4280080ba210001fd0700000f7800fc
:102c54001e007800e10f500010003a0011028000bd
:102c6400f0f12f00008060000050a00010028800e6
:102c740000000000000000000080eb00c04088005d
:102c840010002000704088000a28ef0094350200ec
:102c94000000000002380200000000000080fa007a
:102ca400000006000000fa0011028000f0f12f007d
:102cb400008060000050a0001002880000000000a6
:102cc400000000000e28ef0034380200000000006d
:102cd4000080fa00000006000000fa00e0408000d6
:102ce4000000e800e04088000080fa0000000600d0
:102cf4000600fa000000eb00000f78000000eb0073
:102d0400100798006238020000000000e0408000d4
:102d14000000e900e0408800e04080000000e0009e
:102d240048003a00404080000000e00045003200c6
:102d3400240037008004810030009000000f7800e8
:102d44009e0078006c80400078390200000000008a
:102d54001e80e80078390200000000001e007800a0
:102d6400b008900060408000808f5000030036005f
:102d74001e00780030089000604088001e81e80042
:102d84001e007800300890006a00b90080007800c6
:102d9400e00422000080400082007800d83802005d
:102da400000000001e007800b00890000040800081
:102db40030089000808f500002003900100020007d
:102dc40090408800500481000000e000d9ff3a00e0
:102dd4001e0078000000e000010032007b030700c1
:102de40081408000210798002e0090000000e00040
:102df4000c0032008d0007000000e00002003200e9
:102e040010002000904088002e0090000000e9008f
:102e1400200798002e0090000000e000f5ff3a0023
:102e24001028ef00904080000000e0000500320010
:102e34001000200010079800423e0200000000002d
:102e4400000000007c380200000000001e0090001a
:102e54000080fa00000006000200fa006238020056
:102e64000000000051408000010f78007c3802000f
:102e7400000000001e0078000080fa000000060038
:102e84000400fa000000eb00000f780051408000bd
:102e9400110798001e0090000080fa000000060050
:102ea4000000fa00404080000080fa0000000600a4
:102eb4000400fa00100798001e0090000000e000d3
:102ec40002003a0000408000010037001e0090001c
:102ed400000f78009e0078007a8040000080fa009d
:102ee400000006000a00fa00200798003107980045
:102ef400420798000000eb00000f7800400020001b
:102f04001007980074ff070040408000be00900046
:102f1400808f5000410039001e0090000000e9003d
:102f2400100798001e0090006a00b9008000780025
:102f3400e0042200808140001e0078007400b90083
:102f440000007800ae0090000080400012002000d5
:102f540083007800a00207001e0f40001e009000ae
:102f64000000e000ecff3a00134080001e007800ef
:102f74007400b90000007800ae00900000804000aa
:102f84002200200083007800930207001e0f4000f7
:102f9400234080001e0078007400b900000078000f
:102fa400ae009000008040002200200083007800e2
:102fb400890207001e0f40001e0078007400b9004b
:102fc40000007800ae009000008040004200200025
:102fd40041092200800207001e0f40001e007800f5
:102fe4007400b90000007800ae009000008040003a
:102ff40032002000e1092200770207001e0f400082
:103004004e0090000000e00004003200b042800056
:10301400c14280004e0190000089be0034ff0700c9
:103024001e0078000080fa00000006000a00fa0082
:103034000000eb00000f7800e04080000000e0009a
:1030440061003a00504080000000e800100798003a
:103054009e009000514088001e0090000000e00097
:103064000a003a00114080002107980020408000a7
:1030740010408800ae00900021408800a0408000ed
:103084000000e800a0408800d0020700c040800093
:103094009e009000808f50003f00390001003700ef
:1030a4000000000010408000100078000000e000e4
:1030b40003003a000080eb00c0408800360037006f
:1030c40010408000300090003000900030079800dd
:1030d4003e00900090009000410798009e009000f0
:1030e4004e009000808f500003003100ce0090000d
:1030f400c1408800280037003e0090000080e800ae
:1031040078390200000000003e0090002008900082
:103114000000e000040032003e0090006c0040001b
:1031240078390200000000003e009000b0089000d2
:1031340060408000808f5000030036003e00900005
:1031440030089000604088003e0090000081e80054
:103154003e009000300890006a00b90080007800ba
:10316400e00422000080400082007800d838020089
:10317400000000003e009000b00890000040800075
:1031840030089000808f5000c5ff390010002000e7
:10319400000f7800c3ff3700004080003008900023
:1031a4006a00b90080007800e0042200008040003a
:1031b40010007800e10f50000600360010002000d7
:1031c400000f780003003700804080000000e80012
:1031d40080408800904080000000e000020032003f
:1031e40010002000000f78001e0078000080fa0014
:1031f400000006000600fa00e04080000000e00045
:10320400030032001000200090408800570037006f
:103214001228ef00b0428000c142800010418800b3
:10322400214188001241800023418000f040800049
:1032340001418000800f5100818f59000d0036003c
:103244000640800026199000b619900014418000b1
:1032540025418000f04080000141800000005200c0
:1032640081805a000200400083804800201b98009f
:10327400311b98001041800021418000f0408800fb
:1032840001418800004080007010900010079800f1
:103294001e009000740050001007980042012000a6
:1032a40041f728001e009000540e020000000000a8
:1032b4000000e0000500320000408000fa004000f9
:1032c40000408000a0340200000000006140800043
:1032d400010f7800010037001e0fe9001e0078007e
:1032e4006a00b90080007800e004220000804000f9
:1032f400100078000000e000f7ff32001e007800a4
:103304006a00b90080007800e004220000804000d8
:10331400200798002e00900010009000900090006c
:103324002e009000110098002e0090009000900054
:103334002e00900064004000808f500005003a0089
:103344002e00900010009000900090002e0090003d
:10335400110098002e0090001000900030009000a2
:10336400004088009e007800614088000080fa00d8
:10337400000006000400fa00000f7800110798000e
:10338400004080006c004000800078001e0078003f
:103394001439020000000000110020001e009000fb
:1033a400410507000080fa00000006000600fa004c
:1033b400000f780011079800220798000040800051
:1033c4001e019000010028008280700061009800b6
:1033d400004080006c004000800078001e007800ef
:1033e400d838020000000000110020002e009000d8
:1033f4002d0507000080fa00000006000600fa0010
:10340400200798002e0090003000900030009000bb
:10341400100798001e0090006c00400078390200ec
:1034240000000000e04080000000e00018003a00c6
:103434001e0090000080e8007839020000000000bf
:103444001e009000b008900060408000808f500003
:10345400030036001e009000300890006040880091
:103464001e0090000081e8001e00900030089000cb
:103474006a00b90080007800e00422000080400067
:1034840082007800d83802000000000006003700ef
:103494001e0090006c00400080007800a00822000c
:1034a400d8380200000000001e009000b008900010
:1034b4000040800030089000808f500005003600e6
:1034c40010002000000f78001000200090408800b9
:1034d400020037000000eb00000f78001e007800a7
:1034e4000080fa00000006000800fa002007980097
:1034f40031079800be009000000028008100700091
:103504002e009000010878002e00900030009000fa
:10351400100798002e009000783902000000000087
:103524001e0090000080e8007839020000000000ce
:103534001e009000b008900060408000808f500012
:10354400030036001e0090003008900060408800a0
:103554001e0090000081e8001e00900030089000da
:103564006a00b90080007800e00422000080400076
:1035740082007800d8380200000000001e0090008d
:10358400b00890000040800030089000808f500008
:103594000500360010002000000f78001000200005
:1035a40090408800020037000000eb00000f780014
:1035b4001e0078000080fa00000006000200fa00f5
:1035c400000f7800a14080001e00780001087800f8
:1035d400514080001e007800110098000080fa001d
:1035e400000006000800fa00200798003107980040
:1035f400623802000000000051408000110798006a
:103604003e00900010007800e10f400003003a00f3
:103614000000eb00000f7800250037002e0090001a
:1036240090007800a0408000808f50000800320095
:103634002e009000900090001e009000808f50009b
:1036440003003e0010002000000f7800180037002f
:103654002e009000100090009e009000808050008a
:103664003e00900010007800808f50000e00310062
:103674003e009000900078002e0090001001900011
:103684001e00900000005100808040003e00900029
:10369400010878002e009000c8ff07000000eb002e
:1036a400000f78000200370010002000000f78009f
:1036b4007c380200000000001e0078000080fa0040
:1036c400000006000000fa0010002000904088006e
:1036d4000080fa00000006000600fa0020079800a7
:1036e4002e0090000000e00006003200ae009000c2
:1036f400110798001e00900090189000010f7800a8
:10370400020037000000eb00000f78001e00780074
:103714000080fa00000006000600fa001007980076
:10372400210798001e0090000000e0000500320010
:103734009e009000010f78001e007800ae009000fb
:10374400111898000080fa00000006000200fa0038
:10375400000f78002d00070070028100e10f500077
:1037640003003600423e020000000000000000009a
:103774009a34020000000000f6ff37000200fa004d
:103784000000eb00000f7800080037001e007800ee
:103794006a00b90080007800e00422000080400044
:1037a40098380200000000001e0fe8001e00780098
:1037b400e30f5000f5ff360060072200983802003e
:1037c40000000000000822009838020000000000f9
:1037d400a0082200983802000000000040092200de
:1037e4009838020000000000e00922009838020026
:1037f400000000006007220010408800000822003a
:10380400204088000080fa00000006000400fa004e
:103814001f00370030fd0700a004810000f0a7005e
:103824000000ea00000fe9001e0078004f00de00ef
:10383400000f78002efd07001e0078000000e00055
:1038440013003a006238020000000000d004810036
:1038540030009000100798001e0090000080e800df
:103864007839020000000000404080000000e900b8
:1038740040408800304080000000e900304088006b
:103884007c380200000000001e009000c400070005
:10389400304080000000e000deff3a000080fa00c3
:1038a400000006000a00fa0010079800210798009b
:1038b40032079800430798001e0090000000e000c3
:1038c40002003a0000408000010037001e00900012
:1038d400000f78002e0090001e0878001e0178006a
:1038e400fa0041002e009000110098001e0078009c
:1038f400b00890002e009000410098001e0078004f
:10390400c00890002e009000010898001e00780066
:10391400801890002e009000210098002e00900046
:1039240030009000e30f500009003a00eafc070061
:103934001e007800200890000000e0000300320020
:103944002e0090002100200031009800e8fc0700c0
:103954002e0090008000eb00510098001e007800bb
:10396400b0189000201890002e019000600198007b
:10397400710198004e009000e50f500004003200e1
:103984002e009000ce009000310098000400370013
:103994001e00900022fb0700ae009000b0009800cb
:1039a4003e0090000000e000060032001e00780097
:1039b4007010900050000700ae009000900898002e
:1039c400030037002e0090008000eb0011089800df
:1039d4000080fa00000006001000fa00500798006a
:1039e40061079800720798000000eb00000f780050
:1039f4006e009000100078000000e0003b003200f0
:103a0400ee009000110798001e0090001000900036
:103a1400900090001e009000110098001e0090007d
:103a2400900090001e00900064004000808f5000c1
:103a340005003a001e0090001000900090009000d5
:103a44001e009000110098001e00900010009000cd
:103a54003000900020079800ee0090003107980095
:103a64003e00900010009000900090003e009000f6
:103a7400110098003e009000900090003e009000dd
:103a840064004000808f500005003a003e00900022
:103a940010009000900090003e00900011009800eb
:103aa4003e00900010009000300090004007980005
:103ab4001e0078007400b90000007800de00900059
:103ac40000804000fe019000120020008000780079
:103ad4004e00900073ff07001e0fe800ce00900018
:103ae4002e009000808f5000dbff3a001e0078000b
:103af4000080fa00000006000600fa002007980083
:103b04006000b800008fbe00070037002e00900050
:103b14000000e900200798001200200003002000a4
:103b24001e0f41005e9749002e00900090407800df
:103b340050cab30080cf5000f4ff32001e00be0014
:103b44008100d1000080d300008fbe001e007800e9
:103b54000080fa00000006000800fa003007980010
:103b64003e0090000000e00002003a0000408000a7
:103b7400010037003e009000000f78001e0078001e
:103b840070109000100798001e009000daff0700e4
:103b9400200798002e0090000080fa000000060024
:103ba4000200fa00000f78001e0078004008900020
:103bb400b0300200000000001e007800b0300200a7
:103bc400000000000080fa00000006000200fa0075
:103bd40010408000100078000000e00003003a006c
:103be4000080eb00c04088000700370010408000d0
:103bf4003000900030009000000f78001e00780024
:103c040010009000c04088000080fa000000060008
:103c14000200fa0001408000010f78001e007800c5
:103c24000080fa00000006000200fa0070408000e4
:103c34000000e00003003a0010002000000f7800ac
:103c440008003700e04080000000e00003003a0074
:103c540020002000000f7800020037000000eb0075
:103c6400000f78001e0078000080fa0000000600b3
:103c74000600fa001007980021079800ae00900093
:103c84001e009000a20e0200000000001e00900022
:103c9400ae0e020000000000000f7800050037009f
:103ca4001e0090001e00400001c2b30001487800cd
:103cb4001e0fe8001e007800f20f5000f8ff3600d7
:103cc4001e0090001e0040008040eb000148780078
:103cd4001e0090001e0040000080fa000000060054
:103ce4000a00fa00400798004e0090008040eb0064
:103cf4000148780040408000200798004040800040
:103d04007400b90000007800c82f02000000000011
:103d1400100798001e0090000000e00061003200cf
:103d24002e0090000001eb00800078001e0090003f
:103d34006cfc0700200798000000eb003007980097
:103d4400510037003e0090007400b9000000780074
:103d54009e0090000080400030009000e20f500070
:103d64000d003200e20f500003003e00e10f50004e
:103d74000600320011003700e30f50000900320042
:103d8400e40f50000a0032000c00370020c5b300d5
:103d9400004f78000c00370020c4b300004f7800b7
:103da4000900370030c5b300004f78000600370023
:103db40040c4b300004f7800030037000040eb001c
:103dc400004f7800000000003e0090007400b9002d
:103dd400000078009e0090000080400010009000d9
:103de400800078004e009000a1ff07004007980073
:103df4003e0090007400b900000078009e0090001e
:103e040000804000a00190003e0090007400b900c2
:103e1400000078009e00900000804000100990008f
:103e24003e0090007400b900000078009e009000ed
:103e340000804000c00090001e00fb00831f78003b
:103e4400821f7800811f7800801f7800d0f428003a
:103e5400801f78004e00900044080200000000001b
:103e6400ea8757004e009000ae0e020000000000ea
:103e7400ce00900000804000400798003e00900073
:103e84000000e80030079800be0090002e0090006b
:103e9400808f5000abff39001e009000b03002004c
:103ea400000000000080fa00000006001000fa0084
:103eb400700798007e0090008040eb000148780075
:103ec4004040800030079800404080007400b900f2
:103ed40000007800c82f020000000000000f7800e6
:103ee4001e0078000000e000620032003e009000f6
:103ef400ea00470001017800800078001e00780085
:103f0400f8fb0700300798005e009000ee00900078
:103f14004206200003002000c60702000000000043
:103f240050079800610798005e009000ee00900032
:103f3400e00f5000e08f58004b0032000000eb000f
:103f440040079800440037004e0090007400b90008
:103f5400000078001e00400060029000f002900013
:103f64005e009000ee0090000001be000400be0060
:103f7400c6070200000000001007980021079800ff
:103f84004e0090007400b900000078001e0040004c
:103f940010009000800078007e00900034ff07003d
:103fa400700798001e009000ae009000e00f5000d3
:103fb400e08f5800110032001e0190004e00900066
:103fc4007400b900000078001e004000f00090006a
:103fd4006000900000007800821f7800801f780045
:103fe400c0f52800801f78007e009000440802007d
:103ff40000000000e68757000e0037004e009000d6
:104004007400b900000078001e004000f000900029
:104014006000900000007800801f780080f628007f
:10402400801f78007e009000440802000000000019
:10403400e48757007e009000ae0e020000000000ee
:10404400fe00900000804000700798004e00900031
:104054000000e80040079800ce0090003e00900069
:10406400808f5000b8ff39001e007800b030020085
:10407400000000000080fa00000006000200fa00c0
:1040840000408000e0009000010f780000408000b4
:1040940001408000b1089000e480100061009800a5
:1040a4001e0078000080fa00000006000800fa00f4
:1040b40020079800310798006238020000000000d1
:1040c40000408000d018900040189000e00f50008d
:1040d400e08f58000c003a000040800011c0b3008b
:1040e400417898003e0090000000e0000600320095
:1040f400110020003e009000eb010700423e020048
:1041040000000000000000007c38020000000000f5
:104114006238020000000000004080004019900056
:10412400d0199000028fbe001e00be00e00f5000a8
:10413400e08f58000f0032002e0090000000e000d5
:1041440005003200024080006000b8004019980069
:104154005119980007003700024080000082eb00ec
:104164008082eb003e004200ae804a004019980075
:1041740051199800004080008040eb00417898007d
:104184007c380200000000001e00be000080fa001f
:10419400000006000e00fa0010079800210798009e
:1041a4003207980043079800540798006507980061
:1041b4006238020000000000004080004078900057
:1041c400e24f500022003200044080004419900065
:1041d400d41990001e009000ae0090000080ea0008
:1041e4008180ea008202780003017800800178006f
:1041f4000100780083826200000061008000eb000f
:10420400c000dd00000020000001be006128b800ed
:104214000001710081817100421a9800531a9800bc
:104224000040800011c0b300417898006e009000f7
:104234000000e00006003200110020006e00900033
:1042440099010700423e0200000000000000000047
:104254007c38020000000000623802000000000008
:104264005e0090000000e000050032000040800085
:10427400d0189000401890005e0190000089be00a4
:104284000040800040789000e14f500003003a0065
:104294000000eb00000f7800180037000440800095
:1042a40044199000d41990003e009000ce00900074
:1042b4000080ea008180ea0082027800030178002d
:1042c40080017800010078008382620000006100b0
:1042d4008000eb00c000dd00000020000001be00f3
:1042e4006128b8000001710081817100421a9800b0
:1042f400531a980010002000000f7800004080003e
:104304008040eb00417898007c38020000000000f7
:104314001e0078000080fa00000006001000fa0079
:1043240030079800420798005307980061079800e7
:104334007407980010002000000f7800be00900061
:104344001107980062380200000000007e0090000f
:104354000000e000050032001e009000d01890001c
:10436400401890007e0190000089be001e0090005d
:1043740040799000424798001e00900021c0b3008d
:10438400417898006e009000e20f50001700320050
:10439400e20f500005003e000000e0002e00320055
:1043a400e10f5000060032002c003700e30f5000ec
:1043b40017003200e40f50001b00320027003700c2
:1043c4001e00900040199000d01990004e009000fb
:1043d400de00900000007100818071001e019000d9
:1043e40040199800511998001c0037001e009000d5
:1043f400d01890004018900061004000e080480010
:104404001e019000401998005119980013003700bc
:104414001e0090004e019000de01900042189800aa
:10442400531898000d0037004e409000e24f5000a2
:10443400060032001e0090004e019000de01900044
:104444004218980053189800040037000000eb004d
:10445400000f780001003700000000004e4090007b
:10446400e14f500020003a001e0090000080e80058
:1044740078390200000000001e009000b00890008f
:1044840060408000808f5000030036001e009000c2
:1044940030089000604088001e0090000081e80011
:1044a4001e009000300890006a00b9008000780077
:1044b400e00422000080400082007800d838020026
:1044c400000000001e009000b00890000040800032
:1044d40030089000808f500003003600423e0200f6
:1044e40000000000000000007c3802000000000012
:1044f4001e0078000080fa00000006001400fa0094
:1045040040079800520798006307980071079800c5
:10451400040f9800150f980010002000000f780079
:10452400ce009000110798000000eb0020079800cf
:104534000e0890000000e000050032001e0090000c
:10454400d0189000401890000e0990000089be0019
:104554001e00900040799000624798001e00900071
:1045640021c0b300417898007e009000e20f500013
:1045740017003200e20f500005003e000000e0008a
:104584002e003200e10f5000060032002c003700ec
:10459400e30f500017003200e40f50001b003200fc
:1045a400270037001e00900040199000d019900099
:1045b4005e009000ee0090000000710081807100a8
:1045c4001e01900040199800511998001c003700f2
:1045d4001e009000d0189000401890006100400028
:1045e400e08048001e01900040199800511998007d
:1045f400130037001e0090005e019000ee01900051
:1046040042189800531898000d0037006e4090002f
:10461400e24f5000060032001e0090005e01900040
:10462400ee019000421898005318980004003700d7
:104634000000eb00000f78000100370000000000cc
:104644006e409000e14f500030003a00e04080009e
:104654000000e00018003a001e0090000080e8000e
:1046640078390200000000001e009000b00890009d
:1046740060408000808f5000030036001e009000d0
:1046840030089000604088001e0090000081e8001f
:104694001e009000300890006a00b9008000780085
:1046a400e00422000080400082007800d838020034
:1046b40000000000060037001e0090006c0040005f
:1046c40080007800a0082200d83802000000000012
:1046d4001e009000b0089000004080003008900058
:1046e400808f5000090036001e0890000000e00092
:1046f400040032001e089000110020000108780018
:104704000200370010002000904088001e0078004e
:104714000080fa00000006000a00fa003007980042
:1047240041079800be009000010f78000000eb00e4
:10473400100798001e007800c07890004147980048
:104744001e00780021c0b300417898001e00780054
:10475400d01890004018900061004000e0804800ac
:104764001e01780040199800511998004e4090009d
:10477400e14f50002e003a00e04080000000e000cd
:1047840016003a001e80e80078390200000000009c
:104794001e007800b008900060408000808f5000b8
:1047a400030036001e007800300890006040880046
:1047b4001e81e8001e007800300890006a00b900ed
:1047c40080007800e004220000804000820078002d
:1047d400d838020000000000060037009e00780070
:1047e4006c80400080007800a0082200d8380200c5
:1047f400000000001e007800b00890000040800017
:1048040030089000808f5000090036004e00900060
:104814000000e000040032004e009000110020006f
:104824000108780002003700100020009040880042
:104834000080fa00000006000600fa002007980035
:104844002e0090000000e00002003a0000408000ca
:10485400010037002e009000100798006238020013
:10486400000000001e00900040789000e24f5000cd
:1048740006003a001e0090008040eb00417898004a
:1048840010002000000f7800020037000000eb0049
:10489400000f78007c380200000000001e00780041
:1048a4000080fa00000006000800fa0020079800c3
:1048b4003107980051408000010f780000408000cb
:1048c4000080e80078390200000000002e0090000b
:1048d400e10f40000a003a003e0090000000e000b2
:1048e40007003200004080000080e800800078006b
:1048f400e0092200d8380200000000001a00370046
:104904002e0090001e004000100798000040800018
:104914009e009000110098001e0090009e0f500011
:1049240006003100004080008080e80020408000c4
:1049340014390200000000000b0037000040800022
:104944008080e8001040800014390200000000005c
:10495400c04080009e009000808f50000200310013
:104964009e009000c14088000080fa00000006000c
:104974000600fa0010079800210798009e00900096
:10498400010f780062380200000000001e00780069
:10499400100178001e007800f00890001e007800d6
:1049a400001090000088b9000000780080004100e9
:1049b4001e007800110098001e0078008000eb00b3
:1049c400610898001e007800900078001e007800ae
:1049d400210098001e007800100178001e00780065
:1049e400700890008000e9001e007800001090001c
:1049f4000088b90000007800800041001e007800a3
:104a0400310098001e00780080c0eb0021609800ff
:104a14001e00780080c0eb00316098002e009000ea
:104a24000000e0000e003a001e00780040009000f4
:104a34000000e000120032009e0078006880400010
:104a4400001a0200000000000000e0000c00320028
:104a5400423e020000000000000000000800370091
:104a64009e00780068804000983802000000000032
:104a74009e00780072804000983802000000000018
:104a84007c38020000000000100020000080fa00c2
:104a9400000006000c00fa00300798004107980057
:104aa400224f98004e0090000000e00003003a00fe
:104ab4000000eb00000f780005003700be009000f6
:104ac4004e0090000088b90000007800000f7800c4
:104ad400810220001e804000c82f02000000000058
:104ae400100798001e0090000000e000090032004a
:104af4001e0090008002b000200798001e02900063
:104b0400ae4990002e019000ce0090003e0090002f
:104b1400030007001e0090000080fa000000060059
:104b24000a00fa00000f7800110798002207980085
:104b340063479800440798001e0090000000e000be
:104b440004003a00ce0090004e0090000108780066
:104b540003003700ae0090004e009000010878007a
:104b64004e0090009e007800710898004e0090005e
:104b74009e00900001109800110020004e0090004b
:104b84007bff07004e009000ee40900061609800ab
:104b94000080fa00000006001200fa005007980096
:104ba4006107980072079800030f98000000eb005b
:104bb400000f7800de009000110798000100370014
:104bc4000000000062380200000000001e00900097
:104bd400e00890001e00900070089000808f500044
:104be400030039000e089000e20f50001d003a0047
:104bf4000e099000ee0090001e009000fd010700d9
:104c0400200798001e009000100890000000e000ab
:104c14000a0032001e00900072004000001a0200d8
:104c2400000000000000e0000a003200423e0200e2
:104c34000000000000000000060037002e00900075
:104c44000000e00003003200423e020000000000c9
:104c5400000000007c38020000000000100020006a
:104c6400480037007e0090000000e00004003a0095
:104c74007c380200000000000000eb004100370017
:104c84001e0078000000e00005003a0066004700be
:104c9400e01a02000000000010002000000f78005d
:104ca4007c380200000000006e16020000000000c4
:104cb40062380200000000001e0090002060900096
:104cc400e14f400003003a001e0090008040eb00da
:104cd400216098001e00900030609000e14f400079
:104ce40003003a001e0090008040eb003160980001
:104cf4007c38020000000000ee0047006600470018
:104d0400f41a0200000000000000e00018003a005d
:104d14001e0090008f0207000000e0000f00320028
:104d2400fe0090001e00900068004000bc190200c4
:104d3400000000001e009000260207007a16020000
:104d4400000000000000e0009dff3a00423e020027
:104d540000000000000000009aff37001e009000d1
:104d64001c0207007a1602000000000095ff3700bd
:104d74001e009000170207007a16020000000000cf
:104d84000000eb000080fa00000006001000fa00aa
:104d9400400798005107980062079800730798002d
:104da400ce009000110798000000eb002007980047
:104db4001e009000e00890001e0090007008900013
:104dc400808f5000030039007e009000e20f5000f5
:104dd40023003a001e009000b060900061479800e4
:104de4007e019000de0090001e009000810107000b
:104df4006e409000e14f400011003a001e00900008
:104e0400100890000000e000120032001e00900024
:104e140072004000001a0200000000000000e000e0
:104e24000c0032006e0090000000e0000900320027
:104e34006e00900011002000010878000500370082
:104e44006e4090000040e800804078001e00900012
:104e54003160980010002000000f78000200370035
:104e64000000eb00000f78001e0078000080fa00bc
:104e7400000006000e00fa00500798006107980031
:104e8400de009000110798000000eb002007980056
:104e94001e009000e0089000310798001e0090006a
:104ea400f00890003e009000808f500023003600f0
:104eb4001e009000b0609000014f98003e009000ea
:104ec4008000e8001e009000610898000e489000e1
:104ed400e14f400011003a001e00900010089000bd
:104ee4000000e000120032001e009000720040003a
:104ef400001a0200000000000000e0000c00320074
:104f04006e0090000000e000090032006e00900086
:104f14001100200001087800050037000e489000b9
:104f24000040e800804078001e0090003160980046
:104f340010002000000f7800020037000000eb0092
:104f4400000f78001e0078000080fa0000000600c0
:104f54001400fa006007980071079800020f980087
:104f6400130f98000000eb00000f7800ee00900093
:104f7400110798000300370000000000010037000b
:104f84000000000062380200000000001e009000d3
:104f9400e0089000210798002e0090000000e00037
:104fa4002f0032001e009000b000900031079800de
:104fb400fe0090001e009000630107001e08900090
:104fc4000000e00012003a002e0090008000e9008a
:104fd4001e009000610898001e00900040009000a0
:104fe4000000e0001a0032001e009000680040003b
:104ff400001a0200000000000000e000140032006b
:10500400423e0200000000000000000010003700d3
:105014001e009000be009000310098001e00900019
:10502400100890000000e000090032001e0090000b
:1050340072004000001a0200000000000000e000be
:1050440003003200423e02000000000000000000a5
:105054007c38020000000000100020004c003700e3
:105064000e0890000000e00004003a007c380200c2
:10507400000000000000eb00450037001e0078002f
:105084000000e00005003a0068004700e01a020052
:105094000000000010002000000f78007c3802009f
:1050a400000000006e1602000000000062380200da
:1050b400000000001e00900020609000e14f4000be
:1050c40003003a001e0090008040eb00216098002d
:1050d4001e00900030609000e14f400003003a0051
:1050e4001e0090008040eb00316098007c38020084
:1050f40000000000f000470068004700f41a0200b6
:10510400000000000000e00018003a001e009000bb
:10511400700107000000e0000f0032008e089000cc
:105124001e00900072004000bc1902000000000044
:105134001e009000270107007a16020000000000fc
:105144000000e0008cff3a00423e02000000000034
:10515400000000008bff37001e0090001d010700b7
:105164007a1602000000000086ff37001e0090003f
:10517400180107007a160200000000001e009000cb
:10518400540107000000e0007dff32000000eb0046
:105194000080fa00000006001000fa005007980092
:1051a4006107980072079800de00900011079800cc
:1051b4000000eb00200798001e009000e00890001b
:1051c400310798003e0090000000e0002600320005
