:020000040000fa
:080000000002040000000000f2
:020000040000fa
:040008009804000058
:020000040000fa
:04000c009804000054
:020000040000fa
:040010009804000050
:020000040000fa
:04001400980400004c
:020000040000fa
:040018009804000048
:020000040000fa
:04001c009804000044
:020000040000fa
:040020009804000040
:020000040000fa
:04002400980400003c
:020000040000fa
:040028009804000038
:020000040000fa
:04002c009804000034
:020000040000fa
:040030009804000030
:020000040000fa
:040034002c03000099
:020000040000fa
:040038009804000028
:020000040000fa
:04003c009804000024
:020000040000fa
:040040009804000020
:020000040000fa
:04004400660300004f
:020000040000fa
:040048009804000018
:020000040000fa
:04004c009804000014
:020000040000fa
:040050009804000010
:020000040000fa
:04005400980400000c
:020000040000fa
:040058009804000008
:020000040000fa
:04005c009804000004
:020000040000fa
:040060009804000000
:020000040000fa
:0400640098040000fc
:020000040000fa
:0400680098040000f8
:020000040000fa
:04006c0098040000f4
:020000040000fa
:0400700098040000f0
:020000040000fa
:0400740096030000ef
:020000040000fa
:0400780098040000e8
:020000040000fa
:04007c0098040000e4
:020000040000fa
:0400800098040000e0
:020000040000fa
:0400840098040000dc
:020000040000fa
:0400880098040000d8
:020000040000fa
:04008c0098040000d4
:020000040000fa
:0400900098040000d0
:020000040000fa
:0400940098040000cc
:020000040000fa
:0400980098040000c8
:020000040000fa
:04009c0098040000c4
:020000040000fa
:0400a00098040000c0
:020000040000fa
:0400a40098040000bc
:020000040000fa
:0400a80098040000b8
:020000040000fa
:0400ac0098040000b4
:020000040000fa
:0400b00098040000b0
:020000040000fa
:0400b40098040000ac
:020000040000fa
:0400b80098040000a8
:020000040000fa
:0400bc0098040000a4
:020000040000fa
:0400c00098040000a0
:020000040000fa
:0400c400980400009c
:020000040000fa
:0400c8009804000098
:020000040000fa
:0400cc009804000094
:020000040000fa
:0400d0009804000090
:020000040000fa
:0400d400980400008c
:020000040000fa
:0400d8009804000088
:020000040000fa
:0400dc009804000084
:020000040000fa
:0400e0009804000080
:020000040000fa
:0400e400980400007c
:020000040000fa
:0400e8009804000078
:020000040000fa
:0400ec009804000074
:020000040000fa
:0400f0009804000070
:020000040000fa
:0400f400980400006c
:020000040000fa
:0400f8009804000068
:020000040000fa
:0400fc009804000064
:020000040000fa
:04010000980400005f
:020000040000fa
:04010400980400005b
:020000040000fa
:040108009804000057
:020000040000fa
:04010c009804000053
:020000040000fa
:04011000980400004f
:020000040000fa
:04011400980400004b
:020000040000fa
:040118009804000047
:020000040000fa
:04011c009804000043
:020000040000fa
:04012000980400003f
:020000040000fa
:04012400980400003b
:020000040000fa
:040128009804000037
:020000040000fa
:04012c009804000033
:020000040000fa
:04013000980400002f
:020000040000fa
:04013400980400002b
:020000040000fa
:040138009804000027
:020000040000fa
:04013c009804000023
:020000040000fa
:04014000980400001f
:020000040000fa
:04014400980400001b
:020000040000fa
:040148009804000017
:020000040000fa
:04014c009804000013
:020000040000fa
:04015000980400000f
:020000040000fa
:04015400980400000b
:020000040000fa
:040158009804000007
:020000040000fa
:04015c009804000003
:020000040000fa
:0401600098040000ff
:020000040000fa
:0401640098040000fb
:020000040000fa
:0401680098040000f7
:020000040000fa
:04016c0098040000f3
:020000040000fa
:04017000d8030000b0
:020000040000fa
:040174003204000051
:020000040000fa
:0401780098040000e7
:020000040000fa
:04017c0098040000e3
:020000040000fa
:0401800098040000df
:020000040000fa
:0401840098040000db
:020000040000fa
:0401880098040000d7
:020000040000fa
:04018c0098040000d3
:020000040000fa
:0401900098040000cf
:020000040000fa
:0401940098040000cb
:020000040000fa
:0401980098040000c7
:020000040000fa
:04019c0098040000c3
:020000040000fa
:0401a00098040000bf
:020000040000fa
:0401a40098040000bb
:020000040000fa
:0401a80098040000b7
:020000040000fa
:0401ac0098040000b3
:020000040000fa
:0401b00098040000af
:020000040000fa
:0401b40098040000ab
:020000040000fa
:0401b80098040000a7
:020000040000fa
:0401bc0098040000a3
:020000040000fa
:0401c000980400009f
:020000040000fa
:0401c400980400009b
:020000040000fa
:0401c8009804000097
:020000040000fa
:0401cc009804000093
:020000040000fa
:0401d000980400008f
:020000040000fa
:0401d400980400008b
:020000040000fa
:0401d8009804000087
:020000040000fa
:0401dc009804000083
:020000040000fa
:0401e000980400007f
:020000040000fa
:0401e400980400007b
:020000040000fa
:0401e8009804000077
:020000040000fa
:0401ec009804000073
:020000040000fa
:0401f000980400006f
:020000040000fa
:0401f400980400006b
:020000040000fa
:0401f8009804000067
:020000040000fa
:0401fc009804000063
:020000040000fa
:040208009804000056
:020000040000fa
:04020c009804000052
:020000040000fa
:04021000980400004e
:020000040000fa
:04021400980400004a
:020000040000fa
:040218009804000046
:020000040000fa
:04021c009804000042
:020000040000fa
:04022000980400003e
:020000040000fa
:04022400980400003a
:020000040000fa
:040228009804000036
:020000040000fa
:04022c009804000032
:020000040000fa
:04023000980400002e
:020000040000fa
:04023400980400002a
:020000040000fa
:040238009804000026
:020000040000fa
:04023c009804000022
:020000040000fa
:04024000980400001e
:020000040000fa
:04024400980400001a
:020000040000fa
:040248009804000016
:020000040000fa
:04024c009804000012
:020000040000fa
:04025000980400000e
:020000040000fa
:04025400980400000a
:020000040000fa
:040258009804000006
:020000040000fa
:04025c009804000002
:020000040000fa
:0402600098040000fe
:020000040000fa
:0402640098040000fa
:020000040000fa
:0402680098040000f6
:020000040000fa
:04026c0098040000f2
:020000040000fa
:0402700098040000ee
:020000040000fa
:0402740098040000ea
:020000040000fa
:0402780098040000e6
:020000040000fa
:04027c0098040000e2
:020000040000fa
:0402800098040000de
:020000040000fa
:0402840098040000da
:020000040000fa
:0402880098040000d6
:020000040000fa
:04028c0098040000d2
:020000040000fa
:0402900098040000ce
:020000040000fa
:0402940098040000ca
:020000040000fa
:0402980098040000c6
:020000040000fa
:04029c0098040000c2
:020000040000fa
:0402a00098040000be
:020000040000fa
:0402a40098040000ba
:020000040000fa
:0402a80098040000b6
:020000040000fa
:0402ac0098040000b2
:020000040000fa
:0402b00098040000ae
:020000040000fa
:0402b40098040000aa
:020000040000fa
:0402b80098040000a6
:020000040000fa
:0402bc0098040000a2
:020000040000fa
:0402c000980400009e
:020000040000fa
:0402c400980400009a
:020000040000fa
:0402c8009804000096
:020000040000fa
:0402cc009804000092
:020000040000fa
:0402d000980400008e
:020000040000fa
:0402d400980400008a
:020000040000fa
:0402d8009804000086
:020000040000fa
:0402dc009804000082
:020000040000fa
:0402e000980400007e
:020000040000fa
:0402e400980400007a
:020000040000fa
:0402e8009804000076
:020000040000fa
:0402ec009804000072
:020000040000fa
:0402f000980400006e
:020000040000fa
:0402f400980400006a
:020000040000fa
:0402f8009804000066
:020000040000fa
:0402fc009804000062
:020000040000fa
:04030000980400005d
:020000040000fa
:040304009804000059
:020000040000fa
:040308009804000055
:020000040000fa
:04030c009804000051
:020000040000fa
:04031000980400004d
:020000040000fa
:040314009804000049
:020000040000fa
:040318009804000045
:020000040000fa
:04031c009804000041
:020000040000fa
:04032000980400003d
:020000040000fa
:040324009804000039
:020000040000fa
:040328009804000035
:020000040000fa
:04032c009804000031
:020000040000fa
:04033000980400002d
:020000040000fa
:040334009804000029
:020000040000fa
:040338009804000025
:020000040000fa
:04033c009804000021
:020000040000fa
:04034000980400001d
:020000040000fa
:040344009804000019
:020000040000fa
:040348009804000015
:020000040000fa
:04034c009804000011
:020000040000fa
:04035000980400000d
:020000040000fa
:040354009804000009
:020000040000fa
:040358009804000005
:020000040000fa
:04035c009804000001
:020000040000fa
:0403600098040000fd
:020000040000fa
:0403640098040000f9
:020000040000fa
:0403680098040000f5
:020000040000fa
:04036c0098040000f1
:020000040000fa
:0403700098040000ed
:020000040000fa
:0403740098040000e9
:020000040000fa
:0403780098040000e5
:020000040000fa
:04037c0098040000e1
:020000040000fa
:0403800098040000dd
:020000040000fa
:0403840098040000d9
:020000040000fa
:0403880098040000d5
:020000040000fa
:04038c0098040000d1
:020000040000fa
:0403900098040000cd
:020000040000fa
:0403940098040000c9
:020000040000fa
:0403980098040000c5
:020000040000fa
:04039c0098040000c1
:020000040000fa
:0403a00098040000bd
:020000040000fa
:0403a40098040000b9
:020000040000fa
:0403a80098040000b5
:020000040000fa
:0403ac0098040000b1
:020000040000fa
:0403b00098040000ad
:020000040000fa
:0403b40098040000a9
:020000040000fa
:0403b80098040000a5
:020000040000fa
:0403bc0098040000a1
:020000040000fa
:0403c000980400009d
:020000040000fa
:0403c4009804000099
:020000040000fa
:0403c8009804000095
:020000040000fa
:0403cc009804000091
:020000040000fa
:0403d000980400008d
:020000040000fa
:0403d4009804000089
:020000040000fa
:0403d8009804000085
:020000040000fa
:0403dc009804000081
:020000040000fa
:0403e000980400007d
:020000040000fa
:0403e4009804000079
:020000040000fa
:0403e8009804000075
:020000040000fa
:0403ec009804000071
:020000040000fa
:0403f000980400006d
:020000040000fa
:0403f4009804000069
:020000040000fa
:0403f8009804000065
:020000040000fa
:0403fc009804000061
:020000040000fa
:100400002fcf21000e7f22000e0188000000000087
:10041000000020000000e000020032000001200087
:100420002002880014000700430107000000e000dc
:1004300003003a00a027230001002000020037003b
:100440000000200001002000810f70000100320038
:1004500014000700000020000000e000020032004d
:100460000000020000000000b423020000000000b1
:100470000040da000000fe004440a900c01c20003b
:100480000000e000030032000020200090018800fe
:100490004440a800000006008a1f78008b1f7800e7
:1004a00000000600a1028800800478000000eb0034
:1004b0001f003700e284440054a0b4009905ba003c
:1004c000e284440054a0b4009906ba00e2844400d7
:1004d00054a0b4000006eb00476fde00fd07b20039
:1004e000ae018800636ce10003003a00eaff0700f8
:1004f0000000eb000e003700606ce10008003a00dd
:10050000004deb000a05e800020039003420ec0041
:100510000af0a0008b05e900f9ff3e000400370057
:100520006168e100010032000086eb000b0007006b
:1005300019c7ba001905ba000e04e00003003a001a
:100540000a00e000dbff3a0000000600fe07b200f0
:10055000ae0288008a047800f5ff37000cd0a300b3
:10056000e20f4d001c00390089027800354dba00b9
:100570000a05e800020039003420ec000af0a0006f
:100580008b05e9000f003200254dba000a05e8008e
:10059000020039003420ec000af0a0008b05e900cd
:1005a000080032000c00e0000600320015cdba0051
:1005b0000a05e800020039003420ec000af0a0002f
:1005c0008b05e9008984e80054a0b4000b00e0002a
:1005d000e2ff3a00000006009902ba00055d7800cb
:1005e0008b05e900f7ff3200c82ade00055d7800c0
:1005f0008b05e900f3ff32000c00e000f1ff320050
:1006000019ddba00eeff3700000000000000000016
:1006100000000000000000000000000000000000da
:1006200000000000000000000000000000000000ca
:1006300000000000000000000000000000000000ba
:1006400000000000000000000000000000000000aa
:1006500000000000000000003600f800809fbe008f
:10066000829fbe00849fbe00869fbe003200f800bd
:100670003400f80010002000a001880000202000b5
:10068000900188000000fa008460a9005810020060
:10069000000000000000e00003003200d63202003b
:1006a00000000000000000000080fa003400f900a3
:1006b0003200f9004f03be004f02be004f01be00e2
:1006c0004f00be003600f900004006003600f8007a
:1006d000809fbe00829fbe00849fbe00869fbe009a
:1006e0003200f8003400f80010002000a00188005b
:1006f00000202000900188000000fa004c32020027
:100700000000000084e0a9000080fa003400f90035
:100710003200f9004f03be004f02be004f01be0081
:100720004f00be003600f90000400600809fbe006a
:100730003200f8003400f80010002000a00188000a
:1007400000202000900188000200fa00d1168000ed
:1007500000082000008060000000e0000e003a0069
:100760000000eb00000f7800201780004500de003d
:10077000614060000004a200614060000080fb0056
:10078000610060004500dd00211780000150a100dc
:1007900001007000201788008660a9000080fa0020
:1007a0003400f9003200f9004f00be00004006009e
:1007b0003600f800809fbe00829fbe00849fbe006e
:1007c000869fbe003200f8003400f80010002000c0
:1007d000a001880000202000900188000400fa0099
:1007e0000000eb00100798008e40a9000a003700b7
:1007f000b012800000407800004f78006042800016
:100800008e80e8008001eb00010178008e00780006
:10081000dc1a0200000000009012800061006000fd
:100820000000e000f2ff3a001e0090000000e0002f
:1008300003003200d6320200000000000000000079
:100840000080fa003400f9003200f9004f03be00c6
:100850004f02be004f01be004f00be003600f9003f
:10086000004006003600f800809fbe00829fbe0058
:10087000849fbe00869fbe003200f8003400f8005e
:1008800010002000a00188000020200090018800b6
:100890000400fa000000eb00100798008e60a90029
:1008a0000f003700704280008e80e8000101780060
:1008b0008e007800e21c020000000000e10f5000f2
:1008c00004003a001e4078000000fb00a0128800df
:1008d0000300370010002000804288000500370028
:1008e0009112800000202000008060000000e000e5
:1008f000ecff32001e0090000000e0000300320018
:10090000d632020000000000000000000080fa0063
:100910003400f9003200f9004f03be004f02be0060
:100920004f01be004f00be003600f9000040060037
:100930000040da000000fe000000050003f0a20005
:10094000889fbe008a9fbe008c1f780002010700ae
:10095000090133006450e1004f0032006420e100df
:100960005200320003826c0007003b000905d000f2
:100970000306d000820f54000c065d00020039000f
:100980000200320089017800030678008582550054
:1009900004003d000003fd008103fd008502ea0024
:1009a0008b854200840f720002003b006000100043
:1009b000e08018006011b8000005eb007a28e10023
:1009c0000a00390006007800c75ddd00f707b200b5
:1009d000878075002d003700828171000a01780040
:1009e000610560008180d1000080d3008502e900ac
:1009f000f9ff3b00060440008784480002003b00ea
:100a000060041400e0841c000988a3000700320081
:100a10008a81710082817100610164008904d100c2
:100a20000884d3008b05e800170037000978a3007d
:100a300013003a000b00e000130034008b05e900be
:100a40000804440089844c000a4474000978a30017
:100a50000d003a000b00e000070034008b05e900b0
:100a60000804440089844c0001003a000b00200077
:100a70000978a300f7ff32000001eb000200370005
:100a8000828171000a017800780007000cf0a7004d
:100a900001f0a000c10037006420e10002003a002c
:100aa000838f6c00c10033000801be000200be004d
:100ab000ba003700889fbe008a9fbe008c1f780056
:100ac000a5000700ac00330003866c006450e10011
:100ad0002e0032006420e100330032006150e1005a
:100ae0002f0032006120e100310032008585550081
:100af000eb07b000090020000804200005003700c3
:100b00000804440089844c000a00310006034300b5
:100b100087834b000001530081815b00f8ff3300a5
:100b20000203be000800a0000804440089844c00b1
:100b3000f6ff3900c639dd00830173000100320081
:100b4000130020008904d1000884d3000998a30071
:100b5000050032000800a7000300a0008904d100ae
:100b60000884d3008b05e8008904d1000884d300f1
:100b70000001eb000281d2003c00070001f0a1005f
:100b80000cf0a70001f0a000840037006420e10011
:100b9000860032000801be000200be00f7ff3700e9
:100ba0006120e100810032006000b800f3ff3700ef
:100bb0000000200001f82700f0ff3700839f680045
:100bc0000100e00002003d0060001000e08018001d
:100bd0000300e00002003d0060011100e081190007
:100be000a90007004f00e00002003b006000100079
:100bf000e0801800000006000001be004100070070
:100c00000470a70003f0a10003f8a30013003a004a
:100c10006509b10010003200090035006928e100c3
:100c2000020035000100280000000500000040001f
:100c3000818048008502e900fcff3a0000000600c0
:100c4000f88f4200050035008100d1000080d300fc
:100c50008502e800fcff3a00000006008000eb007f
:100c6000000005006011b8009700370081002000e7
:100c7000618055000b003d000b00200061fe2f003d
:100c80000100e1001d0034008281710061016400f7
:100c90008904d1000884d3000000e800faff3a007c
:100ca0007100200061006400030070000200600019
:100cb0000900320061044400e0844c000988a5006a
:100cc000050032008b05e8006808e10002003a00e8
:100cd0008904d1000884d300f20f20000258e100fb
:100ce00005003d00c75ddd00f907b2008980750091
:100cf00008007800000006000bf827008b00780041
:100d000000000500c70ade00f107b200f50fb200cf
:100d100008003200e1cf4200020032000170a00062
:100d200024000500810f7000010032000408050056
:100d300044000500810f700002003a001400050015
:100d40008502e9000000400081c04800fcff3b0034
:100d50000170a000240005000004be00e9ff0700a8
:100d60000003be000405be000200be00e5ff070050
:100d7000844f7500000006000200be006450e100d0
:100d8000050036006420e100020036000968a30077
:100d900001003a000800be000160a0004f06780084
:100da0004f05be004f04be0000000600f0ff2f00fc
:100db000f1ff2700f9ff3700889fbe008a9fbe0021
:100dc0008c1f7800e4ff0700ebff330003866c0004
:100dd0006450e100240032006420e100270032006a
:100de0006150e100220032006120e1002100320068
:100df0008b854200eb07b1000134b800003ab8001f
:100e00000804420089844a00013ab8000030b80062
:100e10008880400009014a000400330000004000bf
:100e200081804800020149008b05e900c909dd0005
:100e3000830170000100320013002000c814de009e
:100e40004814dd004709de001200b200c808de00c9
:100e50000884700085ff070001f0a1000cf0a700d6
:100e600001f0a000cdff37006120e100cfff32008c
:100e70000801be000200be00f7ff37006150e1002c
:100e8000fcff3a00c9ff37006022b80006022000cc
:100e90000000d0008180d2000482d2008582d2007e
:100ea0000000a0000202520083825a0003003100b9
:100eb0000202420083824a000000a1000603e9000a
:100ec000f3ff3a0000000600889fbe008a9fbe0024
:100ed000008270000402710004827100260032005a
:100ee0000004be000200be006011b8006b092000c3
:100ef000950220000182cf000a0039000541b100af
:100f00000082cf00070039000541b1000982cf00ff
:100f1000040039000541b1000882cf00010039000a
:100f20000541b10005425200120032000a003b00a8
:100f300082817100610164008100d1000080d300d2
:100f40008984d3000884d3008b05e8000442e800bc
:100f5000f7ff3a00070037000804440089844c007a
:100f600000004800818048008b05e9000442e90048
:100f7000f9ff3a003dff07004f05be004f04be00d9
:100f800000000600e68747008e1f7800d0bf9f0054
:100f9000e1bf9f000e0037005fba97001440780051
:100fa000efb99700934078000201e900814f5000ab
:100fb000040032000080fb008180fb000100500033
:100fc0000600370066875700041fe800030fe8009b
:100fd0000200e000f0ff3a000000eb004f0778004d
:100fe0006f00b100000006008001780002003700a9
:100ff000b15978000201e9000200e000fcff3a006c
:101000000000060080017800020037008159780056
:101010000201e9000200e000fcff3a0000000600c7
:020000040000fa
:101020007374000061720000745f0000746100005e
:10103000736b0000007600004c4500004453000034
:1010400068610000726b0000007600004c690000cf
:101050007374000054610000736b0000004c0000ca
:1010600069730000743100002e70000078490000a0
:101070006e640000657800002069000073200000a5
:10108000000d00000a0000004c69000073740000ad
:10109000312e0000757800004e7500006d62000072
:1010a000657200004f66000049740000656d000025
:1010b0007320000069730000200000004c690000ec
:1010c0007374000049740000656d0000312e00004b
:1010d00078490000746500006d560000616c0000e6
:1010e000756500002069000073200000004c0000be
:1010f0006973000074490000746500006d310000e0
:101100002e700000785000007265000076690000c3
:101110006f7500007320000069730000200000005c
:101120004c6900007374000049740000656d000094
:10113000312e0000707800004e65000078740000c9
:101140002069000073200000004c0000697300005b
:1011500074490000746500006d3200002e780000b4
:1011600049740000656d0000566100006c75000058
:101170006520000069730000200000004c69000039
:101180007374000049740000656d0000322e000089
:10119000707800005072000065760000696f0000f2
:1011a000757300002069000073200000004c0000ef
:1011b0006973000074490000746500006d3200001e
:1011c0002e700000784e000065780000742000004a
:1011d00069730000200000004c6900007374000077
:1011e00049740000656d0000332e0000784900004e
:1011f000746500006d560000616c000075650000ac
:101200002069000073200000004c0000697300009a
:1012100074490000746500006d3300002e700000fa
:101220007850000072650000766900006f7500005c
:101230007320000069730000200000004c6900006a
:101240007374000049740000656d0000332e0000c7
:10125000707800004e65000078740000206900007e
:101260007320000000520000656d00006f760000e2
:10127000652000004c690000737400004974000090
:10128000656d000032000000514300006f6e0000e9
:10129000734200003100000051500000726f0000e6
:1012a0006442000032000000514300006f6e0000f5
:1012b000734200003300000051500000726f0000c4
:1012c000644200003400000051500000726f0000c2
:1012d0006442000035000000514300006f6e0000c2
:1012e00073420000360000001111000022220000ad
:1012f000333300004444000055550000666600008a
:10130000777700008888000099990000aaaa000059
:10131000bbbb0000cccc0000dddd0000eeee000029
:10132000cecd0000acab0000494400004c450000ad
:1013300000a50000a5a50000a5a50000a5a500002a
:10134000a5a50000a5a50000a5a50000a5a5000075
:10135000a5a50000a5a50000a50000004c430000c5
:101360004400000077770000772e000046720000ee
:1013700065650000525400004f5300002e6f0000be
:101380007267000000000000425400006573000016
:1013900074310000004200005465000073740000c6
:1013a00032000000496e0000744d000061740000be
:0813b0006800000004000000c9
:020000040000fa
:1013b8001000fa00200798003107980042079800ab
:1013c800530798006407980075079800600220008a
:1013d8007026020000000000000f78001e00780050
:1013e8000000e000100032004e00900000004000b5
:1013f8007026020000000000800078001e007800bf
:10140800410898001e007800400890000000e000a5
:1014180005003a001e00780058270200000000006e
:101428000000eb00000f78001e0078000000e000cc
:10143800120032004e0090008000eb000001eb002b
:10144800821f78009e0378007e039000ee029000d1
:101458005e0290000001be00be0090002e009000c9
:101468000b0007008f87e9001e0078006f00070057
:101478001000200010079800020037000080eb00e1
:10148800100798001e0090000080fa000000060077
:101498001400fa00200798003107980042079800c6
:1014a800530798006407980075079800060f98007e
:1014b800170f98004e009000000040008000780050
:1014c8001e0890004008900001017800510a200091
:1014d80002080200000000001e089000c0089000ea
:1014e800110798001e089000c00890004e01900057
:1014f800f0ff27000000410000004000808040000d
:101508001e089000710898000000eb00000f78009a
:101518000d0037003e0090001e004000904078000b
:101528001e0890001e0040007a0040000148780024
:101538003e0090001e004000104078000004e000cb
:10154800050032001e0fe8001e007800e30f50006f
:10155800f0ff360001003700000000001e08900070
:101568008040eb00515898007e009000e30f500037
:101578000200360030002000700798001e08900016
:10158800fe009000310898001e0890000080e800d6
:10159800d02d0200000000001e0890006c004000e2
:1015a800d02d0200000000001e0890009e08900048
:1015b800410098007e009000e40010001e08900092
:1015c800610098001e0890009e089000110898007d
:1015d8001e0990006000b8000011980011119800d1
:1015e8001e0890008040eb00416098006e0190005a
:1015f800ae0090001e0090006e2c0200000000005b
:10160800800078001e089000010878000e089000fd
:101618000000e000030032000e0890009e089000d1
:10162800010878000080fa00000006000200fa00b5
:10163800000f7800682d0200000000004040800084
:101648000000e80040408800004080000000e00002
:1016580007003a009e007800014088004040800062
:10166800e10f50000d003a002a0407000b00370074
:10167800704080000000e00008003a000040800050
:10168800b00890001e00780030089000808f50004d
:1016980002003e009e00780001408800b0408000b3
:1016a8000000e800b04088001e007800b0089000f4
:1016b80060408000808f5000030036001e007800d4
:1016c80030089000604088001e81e8001e00780005
:1016d800300890006a00b9008000780080c52100b9
:1016e8000080400082007800de2d0200000000002b
:1016f800822d020000000000704080000000e00021
:101708000900320000408000b00890001e007800f8
:1017180030089000808f500003003100d63202005c
:1017280000000000000000000080fa000000060031
:101738000400fa0010079800682d0200000000005d
:101748001e0090000000e00002003a000040800007
:10175800010037001e009000000f78001e80e8008e
:101768007e2e0200000000001e0078002008900075
:101778000000e000040032009e0078006c80400009
:101788007e2e020000000000b04080000000e8004b
:10179800b0408800004080009e007800808f500094
:1017a80009003a001e80e80080007800e0c92100a6
:1017b800de2d020000000000304080000000e8003c
:1017c8003040880006003700404080000000e900f3
:1017d800404088001e007800180407002204070013
:1017e800822d020000000000704080000000e00030
:1017f80007003200004080009e007800808f500073
:1018080003003a00d6320200000000000000000089
:101818000080fa00000006000c00fa00400798005b
:10182800510798000000eb00000f78009b010700ab
:1018380051408000110798004e00900090007800f9
:101848005e00900000804000200798004e00900045
:10185800900078001e009000808f50000c00360029
:101868004e009000900078002e009000808f50006d
:1018780012003600ae0090001e009000808f5000cd
:101888000e00360010002000000f78000b00370013
:101898004e009000900078002e009000808f50003d
:1018a80004003e00ae0090001e009000808f5000a3
:1018b8000200360010002000000f78004e00900053
:1018c800ae009000010878001e0078000000e000db
:1018d80005003200ae0090001e009000008050000d
:1018e8008000eb00fc050700720107003007980034
:1018f8003e0090000000e00003003a00d6320200eb
:1019080000000000000000000080fa00000006004f
:101918000400fa00100798000000eb00000f7800a0
:101928001e0090000000e000060032005b01070086
:101938008000eb001e009000e70507005d0107002e
:10194800000f78001e0078000000e00003003a0055
:10195800d632020000000000000000000080fa00fb
:10196800000006000c00fa00400798005107980094
:101978000000eb00000f78005e009000e30f5000bd
:10198800020036003000200050079800682d020041
:10199800000000004e0090000000e00002003a0045
:1019a80000408000010037004e00900010079800aa
:1019b8001e009000b008900021079800ae0090002b
:1019c8005e009000808f50004a003200de009000d8
:1019d8002e009000808f50000c00360000408000e0
:1019e8009e009000808f50000e0032000040800062
:1019f800b00890005e009000808f500009003e0003
:101a080010002000000f780006003700004080001a
:101a18009e009000808f500002003a0010002000c5
:101a2800000f78001e009000b00890003107980061
:101a38001e009000de009000310898001e00900003
:101a4800600090000000e000040035005e00900097
:101a5800e40010001e009000610098001e00900035
:101a6800500190003e0090006a00b90080007800a4
:101a780080c5210000804000800f510017003a0007
:101a88001e0090000080e8007e2e0200000000008a
:101a98001e009000b008900060408000808f5000c9
:101aa800030036001e009000300890006040880057
:101ab8001e0090000081e8001e0090003008900091
:101ac8006a00b9008000780080c5210000804000cd
:101ad80082007800de2d0200000000001e00780061
:101ae8000000e00003003200d632020000000000cf
:101af80000000000822d0200000000000080fa00b3
:101b0800000006000400fa0010079800682d020083
:101b1800000000001e0090000000e00002003a00f3
:101b280000408000010037001e009000000f780080
:101b38001e80e8007e2e0200000000001e007800d3
:101b4800200890000000e000040032009e007800a9
:101b58006c8040007e2e0200000000001e80e8001d
:101b68008000780080ca2100de2d020000000000fd
:101b7800822d020000000000704080000000e0009c
:101b880005003200682d020000000000360307003f
:101b9800822d020000000000004080009e007800b6
:101ba800808f50000e003a00704080000000e00076
:101bb80004003200d63202000000000000000000dd
:101bc8000700370041e5800040408000808f5000ca
:101bd80002003a000028ef0001003700a4010700c6
:101be8000080fa00000006000600fa0020079800ae
:101bf8000000eb00000f7800ae009000110798007d
:101c08001e009000d000900080ca2100808f5000f4
:101c18000b003a001e009000a008900040c9210067
:101c2800808f5000060032001e00900020089000af
:101c38000000e00002003a0010002000000f7800c9
:101c48001e0078000080fa00000006000400fa0078
:101c5800100798009e009000010f78001e00780081
:101c68000000e0002a003200004080009e0078005a
:101c7800808f500026003200682d0200000000000e
:101c88001e007800d8ff07000000e0001e003200a8
:101c98001e80e8007e2e0200000000001e00780072
:101ca800b008900060408000808f5000030036002c
:101cb8001e00780030089000604088001e81e8000f
:101cc8001e007800300890006a00b9008000780093
:101cd80080c521000080400082007800de2d0200cf
:101ce800000000001e007800b0089000004080004e
:101cf80030089000808f500003003900d63202006f
:101d08000000000000000000822d0200000000001a
:101d18000080fa00000006000800fa00300798006a
:101d28000000eb00000f7800be009000110798003b
:101d38000000eb00200798001e009000aaff070093
:101d48000000e00029003200e04080000000e000d0
:101d580020003a001e009000b0089000004080006b
:101d680030089000808f50000200390010002000d9
:101d7800000f78001e0090000080e8007e2e020010
:101d8800000000001e009000b00890006040800035
:101d9800808f5000030036001e009000300890002d
:101da800604088001e0090000081e8001e0090003e
:101db800300890006a00b9008000780080c52100d2
:101dc8000080400082007800de2d02000000000044
:101dd800060037001e0090006c004000800078006c
:101de80040c92100de2d0200000000001e0078001e
:101df8000080fa00000006000200fa00a581200019
:101e08000002eb008001eb00320720004199280016
:101e18006037210066fd0700000f78001e0078007b
:101e2800e10f50000e003a0011028000f0f12f007f
:101e3800008060000050a000100288000000000030
:101e4800000000000080eb00c04088001000200067
:101e5800704088000a28ef00082d020000000000ea
:101e68000080fa00000006000000fa00110280005d
:101e7800f0f12f00008060000050a00010028800e0
:101e880000000000000000000e28ef003a2d0200bc
:101e9800000000000080fa00000006000000fa00c0
:101ea800e04080000000e800e04088000080fa0080
:101eb800000006000600fa000000eb00000f7800a2
:101ec8000000eb0010079800682d020000000000d9
:101ed800e04080000000e900e0408800e040800029
:101ee8000000e00048003a00404080000000e000a8
:101ef8004500320024003700d0e480003000900014
:101f0800000f78009e0078006c8040007e2e020052
:101f1800000000001e80e8007e2e02000000000085
:101f28001e007800b008900060408000808f50004c
:101f3800030036001e0078003008900060408800da
:101f48001e81e8001e007800300890006a00b90081
:101f58008000780080c52100008040008200780061
:101f6800de2d0200000000001e007800b00890007e
:101f78000040800030089000808f50000200390037
:101f88001000200090408800a0e480000000e000dd
:101f9800d9ff3a001e0078000000e000010032007e
:101fa8003102070081408000210798002e00900030
:101fb8000000e0000c0032003b0007000000e000d9
:101fc8000200320010002000904088002e0090008f
:101fd8000000e900200798002e0090000000e000b3
:101fe800f5ff3a001028ef00904080000000e00064
:101ff800050032001000200010079800d6320200b9
:102008000000000000000000822d02000000000017
:102018001e0090000080fa00000006000200fa008e
:10202800682d02000000000051408000010f780078
:10203800822d0200000000001e0078000080fa00d7
:10204800000006000400fa000000eb00000f780012
:1020580051408000110798001e0090000080fa008f
:10206800000006000000fa00404080000080fa00ee
:10207800000006000400fa00100798001e009000f7
:102088000000e00002003a00004080000100370034
:102098001e009000000f78009e0078007a804000b3
:1020a8000080fa00000006000a00fa000000eb00b9
:1020b800000f7800e04080000000e00061003a0076
:1020c800504080000000e800100798009e00900033
:1020d800514088001e0090000000e0000a003a000d
:1020e800114080002107980020408000104088009f
:1020f800ae00900021408800a04080000000e80069
:10210800a0408800d8010700c04080009e009000d1
:10211800808f50003f0039000100370000000000a8
:1021280010408000100078000000e00003003a0032
:102138000080eb00c0408800360037001040800067
:102148003000900030009000300798003e0090006a
:1021580090009000410798009e0090004e0090006b
:10216800808f500003003100ce009000c1408800ed
:10217800280037003e0090000080e8007e2e020014
:10218800000000003e009000200890000000e000e1
:10219800040032003e0090006c0040007e2e0200d9
:1021a800000000003e009000b008900060408000f1
:1021b800808f5000030036003e00900030089000e9
:1021c800604088003e0090000081e8003e009000da
:1021d800300890006a00b9008000780080c52100ae
:1021e8000080400082007800de2d02000000000020
:1021f8003e009000b0089000004080003008900039
:10220800808f5000c5ff390010002000000f7800b3
:10221800c3ff370000408000300890006a00b90012
:102228008000780080c52100008040001000780000
:10223800e10f50000600360010002000000f780063
:1022480003003700804080000000e80080408800dc
:10225800904080000000e0000200320010002000e2
:10226800000f78001e0078000080fa0000000600c9
:102278000600fa00e04080000000e00003003200a1
:1022880010002000904088003b0037001228ef0023
:102298000040800070089000100798001e00900011
:1022a80074005000100798004201200091992800fe
:1022b8001e009000c2070200000000000000e000bd
:1022c8000500320000408000fa0040000040800015
:1022d800f62302000000000061408000010f780032
:1022e800010037001e0fe9001e0078006a00b900df
:1022f8008000780080c52100008040001000780030
:102308000000e000f7ff32001e0078006a00b90004
:102318008000780080c521000080400020079800d8
:102328002e00900010009000900090002e00900069
:10233800110098002e009000900090002e00900050
:1023480064004000808f500005003a002e00900085
:1023580010009000900090002e009000110098004e
:102368002e0090001000900030009000004088007f
:102378009e007800614088000080fa000000060096
:102388000400fa00000f7800110798000040800050
:102398006c004000800078001e0078001a2e0200b1
:1023a80000000000110020001e0090004a030700f2
:1023b8000080fa00000006000600fa00000f78000e
:1023c8001107980022079800004080001e01900025
:1023d80001002800828070006100980000408000a1
:1023e8006c004000800078001e007800de2d02009e
:1023f80000000000110020002e00900036030700a6
:102408000080fa00000006000600fa002007980085
:102418002e009000300090003000900010079800c7
:102428001e0090006c0040007e2e0200000000009c
:10243800e04080000000e00018003a001e00900014
:102448000080e8007e2e0200000000001e009000c0
:10245800b008900060408000808f50000300360074
:102468001e00900030089000604088001e00900018
:102478000081e8001e009000300890006a00b90052
:102488008000780080c5210000804000820078002c
:10249800de2d020000000000060037001e0090003c
:1024a8006c0040008000780040c92100de2d020049
:1024b800000000001e009000b0089000004080005e
:1024c80030089000808f5000050036001000200072
:1024d800000f7800100020009040880002003700ac
:1024e8000000eb00000f78001e0078000080fa0062
:1024f800000006000800fa0020079800310798003d
:10250800be00900000002800810070002e0090009e
:10251800010878002e009000300090001007980005
:102528002e0090007e2e0200000000001e00900089
:102538000080e8007e2e0200000000001e009000cf
:10254800b008900060408000808f50000300360083
:102558001e00900030089000604088001e00900027
:102568000081e8001e009000300890006a00b90061
:102578008000780080c5210000804000820078003b
:10258800de2d0200000000001e009000b008900040
:102598000040800030089000808f50000500360011
:1025a80010002000000f78001000200090408800e4
:1025b800020037000000eb00000f78001e007800d2
:1025c8000080fa00000006000200fa00000f780000
:1025d800a14080001e00780001087800514080006a
:1025e8001e007800110098000080fa000000060024
:1025f8000800fa002007980031079800682d0200ab
:102608000000000051408000110798003e00900033
:1026180010007800e10f400003003a000000eb00d2
:10262800000f7800250037002e00900090007800f9
:10263800a0408000808f5000080032002e009000db
:10264800900090001e009000808f500003003e0014
:1026580010002000000f7800180037002e009000ae
:10266800100090009e009000808050003e00900076
:1026780010007800808f50000e0031003e0090005e
:10268800900078002e009000100190001e0090002d
:1026980000005100808040003e0090000108780052
:1026a8002e009000c8ff07000000eb00000f780024
:1026b8000200370010002000000f7800822d020071
:1026c800000000001e0078000080fa0000000600ec
:1026d8000000fa0010002000904088000080fa00f6
:1026e800000006000200fa00000f78002d00070025
:1026f800c0e28000e10f500003003600d63202002d
:102708000000000000000000f023020000000000ac
:10271800f6ff37000200fa000000eb00000f780017
:10272800080037001e0078006a00b90080007800b1
:1027380080c52100008040009e2d0200000000009e
:102748001e0fe8001e007800e30f5000f5ff36006a
:1027580000c821009e2d020000000000a0c8210032
:102768009e2d02000000000040c921009e2d02009d
:1027780000000000e0c921009e2d020000000000ba
:1027880080ca21009e2d02000000000000c8210020
:1027980010408800a0c82100204088000080fa006e
:1027a800000006000400fa001f003700bbfd070008
:1027b800f0e4800000f0a7000000ea00000fe90044
:1027c8001e0078004f00de00000f7800b9fd0700fa
:1027d8001e0078000000e00013003a00682d020097
:1027e8000000000020e580003000900010079800ed
:1027f8001e0090000080e8007e2e0200000000000d
:10280800404080000000e9004040880030408000df
:102818000000e90030408800822d0200000000001e
:102828001e00900005000700304080000000e00016
:10283800deff3a000080fa00000006000200fa00fd
:10284800000f78001e00780040089000582702000a
:10285800000000001e007800582702000000000059
:102868000080fa00000006000200fa001040800014
:10287800100078000000e00003003a000080eb0040
:10288800c0408800070037001040800030009000ea
:1028980030009000000f78001e00780010009000b3
:1028a800c04088000080fa00000006000200fa001c
:1028b80000408000e0009000010f78000040800098
:1028c80001408000b1089000e48010006100980089
:1028d8001e0078000080fa00000006000800fa00d8
:1028e8002007980031079800682d020000000000ba
:1028f800004080009010900000109000e00f500001
:10290800e08f58000c003a000040800011c0b3006e
:10291800416098003e0090000000e0000600320090
:10292800110020003e009000eb010700d6320200a3
:102938000000000000000000822d020000000000de
:10294800682d020000000000004080000011900087
:1029580090119000028fbe001e00be00e00f5000d4
:10296800e08f58000f0032002e0090000000e000b9
:1029780005003200024080006000b8000011980095
:102988001111980007003700024080000082eb0018
:102998008082eb003e004200ae804a0000119800a1
:1029a80011119800004080008040eb0041609800c1
:1029b800822d0200000000001e00be000080fa0008
:1029c800000006000e00fa00100798002107980082
:1029d8003207980043079800540798006507980045
:1029e800682d020000000000004080004060900058
:1029f800e24f500022003200044080000411900091
:102a0800941190001e009000ae0090000080ea0033
:102a18008180ea0082027800030178008001780052
:102a28000100780083826200000061008000eb00f2
:102a3800c000dd00000020000001be006128b800d1
:102a48000001710081817100021298001312980030
:102a58000040800011c0b300416098006e009000f3
:102a68000000e00006003200110020006e00900017
:102a780099010700d63202000000000000000000a3
:102a8800822d020000000000682d020000000000f6
:102a98005e0090000000e000050032000040800069
:102aa80090109000001090005e0190000089be0018
:102ab8000040800040609000e14f500003003a0061
:102ac8000000eb00000f7800180037000440800079
:102ad80004119000941190003e009000ce009000e8
:102ae8000080ea008180ea00820278000301780011
:102af8008001780001007800838262000000610094
:102b08008000eb00c000dd00000020000001be00d6
:102b18006128b800000171008181710002129800db
:102b28001312980010002000000f78000040800069
:102b38008040eb0041609800822d020000000000f8
:102b48001e0078000080fa00000006001000fa005d
:102b580030079800420798005307980061079800cb
:102b68007407980010002000000f7800be00900045
:102b780011079800682d0200000000007e009000f8
:102b88000000e000050032001e0090009010900048
:102b9800001090007e0190000089be001e00900089
:102ba80040619000424798001e00900021c0b30089
:102bb800416098006e009000e20f5000170032004c
:102bc800e20f500005003e000000e0002e00320039
:102bd800e10f5000060032002c003700e30f5000d0
:102be80017003200e40f50001b00320027003700a6
:102bf8001e00900000119000901190004e0090006f
:102c0800de00900000007100818071001e019000bc
:102c180000119800111198001c0037001e00900048
:102c2800901090000010900061004000e080480083
:102c38001e01900000119800111198001300370030
:102c48001e0090004e019000de01900002109800d6
:102c5800131098000d0037004e409000e24f5000ce
:102c6800060032001e0090004e019000de01900028
:102c78000210980013109800040037000000eb00c1
:102c8800000f780001003700000000004e4090005f
:102c9800e14f500020003a001e0090000080e8003c
:102ca8007e2e0200000000001e009000b008900078
:102cb80060408000808f5000030036001e009000a6
:102cc80030089000604088001e0090000081e800f5
:102cd8001e009000300890006a00b900800078005b
:102ce80080c521000080400082007800de2d0200af
:102cf800000000001e009000b00890000040800016
:102d080030089000808f500003003600d632020051
:102d18000000000000000000822d020000000000fa
:102d28001e0078000080fa00000006001400fa0077
:102d380040079800520798006307980071079800a9
:102d4800040f9800150f980010002000000f78005d
:102d5800ce009000110798000000eb0020079800b3
:102d68000e0890000000e000050032001e009000f0
:102d780090109000001090000e0990000089be008d
:102d88001e00900040619000624798001e0090006d
:102d980021c0b300416098007e009000e20f50000f
:102da80017003200e20f500005003e000000e0006e
:102db8002e003200e10f5000060032002c003700d0
:102dc800e30f500017003200e40f50001b003200e0
:102dd800270037001e00900000119000901190000d
:102de8005e009000ee00900000007100818071008c
:102df8001e01900000119800111198001c00370066
:102e08001e0090009010900000109000610040009b
:102e1800e08048001e0190000011980011119800f0
:102e2800130037001e0090005e019000ee01900034
:102e380002109800131098000d0037006e409000a3
:102e4800e24f5000060032001e0090005e01900024
:102e5800ee0190000210980013109800040037004b
:102e68000000eb00000f78000100370000000000b0
:102e78006e409000e14f500030003a00e040800082
:102e88000000e00018003a001e0090000080e800f2
:102e98007e2e0200000000001e009000b008900086
:102ea80060408000808f5000030036001e009000b4
:102eb80030089000604088001e0090000081e80003
:102ec8001e009000300890006a00b9008000780069
:102ed80080c521000080400082007800de2d0200bd
:102ee80000000000060037001e0090006c00400043
:102ef8008000780040c92100de2d0200000000009b
:102f08001e009000b008900000408000300890003b
:102f1800808f5000090036001e0890000000e00075
:102f2800040032001e0890001100200001087800fb
:102f38000200370010002000904088001e00780032
:102f48000080fa00000006000a00fa003007980026
:102f580041079800be009000010f78000000eb00c8
:102f6800100798001e007800c06090004147980044
:102f78001e00780021c0b300416098001e00780050
:102f8800901090000010900061004000e080480020
:102f98001e01780000119800111198004e40900011
:102fa800e14f50002e003a00e04080000000e000b1
:102fb80016003a001e80e8007e2e02000000000085
:102fc8001e007800b008900060408000808f50009c
:102fd800030036001e00780030089000604088002a
:102fe8001e81e8001e007800300890006a00b900d1
:102ff8008000780080c521000080400082007800b1
:10300800de2d020000000000060037009e00780058
:103018006c8040008000780040c92100de2d02004d
:10302800000000001e007800b008900000408000fa
:1030380030089000808f5000090036004e00900044
:103048000000e000040032004e0090001100200053
:103058000108780002003700100020009040880026
:103068000080fa00000006000600fa002007980019
:103078002e0090000000e00002003a0000408000ae
:10308800010037002e00900010079800682d0200fc
:10309800000000001e00900040609000e24f5000c9
:1030a80006003a001e0090008040eb004160980046
:1030b80010002000000f7800020037000000eb002d
:1030c800000f7800822d0200000000001e0078002a
:1030d8000080fa00000006000800fa0020079800a7
:1030e8003107980051408000010f780000408000af
:1030f8000080e8007e2e0200000000002e009000f4
:10310800e10f40000a003a003e0090000000e00095
:1031180007003200004080000080e800800078004e
:1031280080ca2100de2d0200000000001a003700ce
:103138002e0090001e0040001007980000408000fc
:103148009e009000110098001e0090009e0f5000f5
:1031580006003100004080008080e80020408000a8
:103168001a2e0200000000000b003700004080000b
:103178008080e800104080001a2e02000000000045
:10318800c04080009e009000808f500002003100f7
:103198009e009000c14088000080fa0000000600f0
:1031a8000600fa0010079800210798009e0090007a
:1031b800010f7800682d0200000000001e00780052
:1031c800100178001e007800f00890001e007800ba
:1031d800001090000088b9000000780080004100cd
:1031e8001e007800110098001e0078008000eb0097
:1031f800610898001e007800900078001e00780092
:10320800210098001e007800100178001e00780048
:10321800700890008000e9001e00780000109000ff
:103228000088b90000007800800041001e00780086
:10323800310098001e00780080c0eb0021609800e3
:103248001e00780080c0eb00316098002e009000ce
:103258000000e0000e003a001e00780040009000d8
:103268000000e000120032009e00780068804000f4
:1032780008120200000000000000e0000c0032000c
:10328800d6320200000000000000000008003700ed
:103298009e007800688040009e2d0200000000001b
:1032a8009e007800728040009e2d02000000000001
:1032b800822d020000000000100020000080fa00ab
:1032c800000006000c00fa0030079800410798003b
:1032d800224f98004e0090000000e00003003a00e2
:1032e8000000eb00000f780005003700be009000da
:1032f8004e0090000088b90000007800000f7800a8
:10330800410220001e8040007026020000000000dc
:10331800100798001e0090000000e000090032002d
:103328001e0090004002b000200798001e02900086
:10333800ae4990002e019000ce0090003e00900013
:10334800030007001e0090000080fa00000006003d
:103358000a00fa00000f7800110798002207980069
:1033680063479800440798001e0090000000e000a2
:1033780004003a00ce0090004e009000010878004a
:1033880003003700ae0090004e009000010878005e
:103398004e0090009e007800710898004e00900042
:1033a8009e00900001109800110020004e0090002f
:1033b8007bff07000080fa00000006001200fa00f8
:1033c800500798006107980072079800030f98004b
:1033d8000000eb00000f7800de0090001107980055
:1033e8000100370000000000682d02000000000006
:1033f8001e009000e00890001e00900070089000e9
:10340800808f5000030039000e089000e20f500032
:103418001d003a000e099000ee0090001e0090007a
:10342800e9010700200798001e009000100890008e
:103438000000e0000a0032001e0090007200400008
:1034480008120200000000000000e0000a0032003c
:10345800d63202000000000000000000060037001d
:103468002e0090000000e00003003200d632020077
:103478000000000000000000822d02000000000093
:1034880010002000480037007e0090000000e00097
:1034980004003a00822d0200000000000000eb004a
:1034a800410037001e0078000000e00005003a00e7
:1034b80066004700e812020000000000100020002b
:1034c800000f7800822d020000000000520f020059
:1034d80000000000682d0200000000001e0090009f
:1034e80020609000e14f400003003a001e00900069
:1034f8008040eb00216098001e0090003060900032
:10350800e14f400003003a001e0090008040eb00ad
:1035180031609800822d020000000000ee00470094
:1035280066004700fc120200000000000000e000f6
:1035380018003a001e0090007b0207000000e0001f
:103548000f003200fe0090001e009000680040004e
:10355800c4110200000000001e00900012020700c3
:103568005e0f0200000000000000e0009dff3a002e
:10357800d632020000000000000000009aff370069
:103588001e009000080207005e0f02000000000005
:1035980095ff37001e009000030207005e0f02002f
:1035a800000000000000eb000080fa0000000600a8
:1035b8001000fa0040079800510798006207980029
:1035c80073079800ce009000110798000000eb00e8
:1035d800200798001e009000e00890001e00900050
:1035e80070089000808f5000030039007e00900022
:1035f800e20f500023003a001e009000b0609000d7
:10360800614798007e019000de0090001e00900047
:103618006d0107006e409000e14f400011003a0034
:103628001e009000100890000000e0001200320018
:103638001e00900072004000081202000000000006
:103648000000e0000c0032006e0090000000e00076
:10365800090032006e009000110020000108780077
:10366800050037006e4090000040e8008040780078
:103678001e0090003160980010002000000f7800b4
:10368800020037000000eb00000f78001e007800f1
:103698000080fa00000006000e00fa0050079800ab
:1036a80061079800de009000110798000000eb0009
:1036b800200798001e009000e0089000310798004d
:1036c8001e009000f00890003e009000808f50008f
:1036d800230036001e009000b0609000014f980053
:1036e8003e0090008000e8001e00900061089800ed
:1036f8000e489000e14f400011003a001e00900073
:10370800100890000000e000120032001e00900037
:103718007200400008120200000000000000e000f3
:103728000c0032006e0090000000e000090032003a
:103738006e00900011002000010878000500370095
:103748000e4890000040e800804078001e0090007d
:103758003160980010002000000f78000200370048
:103768000000eb00000f78001e0078000080fa00cf
:10377800000006001400fa0060079800710798001e
:10378800020f9800130f98000000eb00000f78005c
:10379800ee009000110798000300370000000000b9
:1037a8000100370000000000682d02000000000042
:1037b8001e009000e0089000210798002e0090005d
:1037c8000000e0002f0032001e009000b0009000c2
:1037d80031079800fe0090001e0090004f0107007e
:1037e8001e0890000000e00012003a002e00900031
:1037f8008000e9001e009000610898001e009000fb
:10380800400090000000e0001a0032001e00900006
:103818006800400008120200000000000000e000fc
:1038280014003200d6320200000000000000000040
:10383800100037001e009000be0090003100980074
:103848001e009000100890000000e00009003200ff
:103858001e009000720040000812020000000000e4
:103868000000e00003003200d63202000000000031
:1038780000000000822d020000000000100020005f
:103888004c0037000e0890000000e00004003a00e9
:10389800822d0200000000000000eb004500370008
:1038a8001e0078000000e00005003a0068004700ac
:1038b800e81202000000000010002000000f78004d
:1038c800822d020000000000520f020000000000dc
:1038d800682d0200000000001e009000206090008b
:1038e800e14f400003003a001e0090008040eb00ca
:1038f800216098001e00900030609000e14f400069
:1039080003003a001e0090008040eb0031609800f0
:10391800822d020000000000f00047006800470008
:10392800fc120200000000000000e00018003a004d
:103938001e0090005c0107000000e0000f0032004c
:103948008e0890001e00900072004000c411020012
:10395800000000001e009000130107005e0f020027
:10396800000000000000e0008cff3a00d6320200a0
:1039780000000000000000008bff37001e009000d0
:10398800090107005e0f02000000000086ff3700f3
:103998001e009000040107005e0f020000000000f6
:1039a8001e009000400107000000e0007dff32008b
:1039b8000000eb000080fa00000006001000fa008a
:1039c800500798006107980072079800de00900081
:1039d800110798000000eb00200798001e009000d7
:1039e800e0089000310798003e0090000000e000d9
:1039f800260032001e009000a0609000014f980041
:103a0800ee0090001e009000c40007003e009000e9
:103a18008000e9001e009000610898000e489000a0
:103a2800e14f400011003a001e0090004000900055
:103a38000000e000120032001e0090006800400004
:103a480008120200000000000000e0000c00320034
:103a58007e0090000000e000090032007e00900027
:103a68001100200001087800050037000e4890007a
:103a78000040e800804078001e0090002160980017
:103a880010002000000f7800020037000000eb0053
:103a9800000f78001e0078000080fa000000060081
:103aa8000c00fa004007980051079800ce009000db
:103ab800110798000000eb00200798001e009000f6
:103ac800600890000000e0000c0032001e0090002a
:103ad800b000900031079800de0090001e009000b2
:103ae8008e0007001e009000be0090003100980074
:103af80010002000000f7800020037000000eb00e3
:103b0800000f78001e0078000080fa000000060010
:103b18000400fa0010079800682d02000000000059
:103b28001e009000e0089000010f7800822d02002e
:103b3800000000001e0078000080fa000000060067
:103b48000600fa0020079800ae009000010f7800e8
:103b5800682d0200000000001e007800f0089000a8
:103b68001e00780060089000008050001007980040
:103b7800822d0200000000001e0090000080fa0064
:103b8800000006000400fa00100798001e009000cc
:103b9800e0089000010f78001e0078000080fa000d
:103ba800000006000400fa00100798009e0090002c
:103bb800010f78001e00780058270200000000005e
:103bc8000080fa00000006000a00fa0020079800aa
:103bd80031079800420798000000eb001007980092
:103be8002e009000e0089000010f78002e00900051
:103bf800001090000000e000420032004e009000eb
:103c08000000e0001a003a002e009000801090009a
:103c18002e0090002000900001017800be00900066
:103c2800f4070200000000002e009000a0009000a1
:103c38002e00900000109000808040002e00900020
:103c4800210098002e009000a00090002e00900007
:103c580010009000808f50002a0039002e0090003c
:103c6800900078002e009000210098002500370071
:103c78002e009000801090002e00900030009000e0
:103c880001017800be009000f40702000000000067
:103c98002e009000b00090002e00900000109000c0
:103ca8000000ea00808040002e009000310098005b
:103cb8002e009000b00090002e00900010007800b8
:103cc800808f5000080031002e0090009000900076
:103cd8002e009000001090000000ea008080400054
:103ce8002e009000310098004e009000e20f500026
:103cf80004003a001e0078000000e00001003200d5
:103d08001e0fe9009e00e8002e0090006108980050
:103d18001e0090000080fa00000006000400fa006f
:103d2800000f7800110798001e007800001090001e
:103d38000000e0001a0032001e007800b000900079
:103d48001e00780000109000808040001e0078005f
:103d5800310098001e007800b00090001e00780026
:103d680010009000808f5000040039001e00780079
:103d7800900078001e007800310098001e0078003e
:103d8800801090001e00780030009000010178003b
:103d9800800078001e009000f40702000000000078
:103da8000080fa00000006000400fa0010079800de
:103db800682d0200000000001e009000b060900016
:103dc800014f78000d0037001e0090001008900089
:103dd8000000e0000d0032001e009000720040005c
:103de80008120200000000000000e000020032009b
:103df8006c130200000000001e4fe9001e4078000e
:103e08000004e000f0ff3c00010037000000000063
:103e18001e00900080c0eb0031609800822d0200e7
:103e280000000000682d0200000000001e00900045
:103e3800a0609000114798000f0037001e00900006
:103e4800400090000000e0000f0032001e009000cb
:103e58006800400008120200000000000000e000b6
:103e6800020032006c130200000000001e409000a7
:103e78000040e900104798001e4090000004e00050
:103e8800eeff3c0001003700000000001e0090001b
:103e980080c0eb0021609800822d02000000000025
:103ea8000080fa00000006000400fa0010079800dd
:103eb800682d0200000000001e00900060089000bd
:103ec8000000e00003003a0010002000000f780016
:103ed800020037000000eb00000f7800822d02007e
:103ee800000000001e0078000080fa0000000600b4
:103ef8000400fa00100798001e0090006008900067
:103f08000000e00003003a0010002000000f7800d5
:103f1800020037000000eb00000f78001e00780058
:103f28000080fa00000006000400fa00100798005c
:103f3800682d0200000000001e009000e0089000bc
:103f48001e00900070089000808f500003003a0017
:103f580010002000000f7800020037000000eb007e
:103f6800000f7800822d0200000000001e0078007b
:103f78000080fa00000006000400fa00100798000c
:103f88001e009000e00890001e009000700890004d
:103f9800808f500003003a0010002000000f7800c6
:103fa800020037000000eb00000f78001e007800c8
:103fb8000080fa00000006000000fa000041eb0053
:103fc80021002000500020006619020000000000b7
:103fd800f0408800f04080000000e000100032004f
:103fe8008002eb00140020008001eb003207200063
:103ff800419c280080012200dc090200000000002a
:10400800058220000002eb008001eb00320720004f
:10401800b19c2800e0242200dc0902000000000016
:104028000080fa00000006000c00fa005007980013
:10403800680107000000eb003007980025003700f2
:104048003e009000a10020000008dd00000f78006d
:10405800121002000000000010079800f0408000d5
:10406800e80047008001eb001e017800be1b02003b
:10407800000000000000e0000200320010002000f4
:104088003041880012100200000000009e009000dd
:1040980001005000200798002e0090009e0f50004d
:1040a8000200310010002000304188001e01780015
:1040b800ef0041002e009000808f50000200310078
:1040c80010002000304188003e0090000000e80009
:1040d800300798003e009000e40f5000d8ff3400ed
:1040e8000000eb00300798000d003700f04080001a
:1040f800e60047008001eb000001eb00e219020036
:1041080000000000e10f5000020032001000200003
:10411800304188003e0090000000e8003007980019
:104128003e009000e40f5000f0ff34000000eb0068
:1041380030079800250037003e009000a1002000bd
:104148000008dd00000f78001210020000000000d7
:1041580010079800f0408000e60047008001eb005f
:104168001e017800e2190200000000000000e000d3
:1041780002003200100020003041880012100200b6
:10418800000000009e0090000100500020079800e9
:104198002e0090009e0f50000200310010002000f9
:1041a800304188001e017800ef0041002e00900089
:1041b800808f50000200310010002000304188003c
:1041c8003e0090000000e800300798003e00900094
:1041d800e40f5000d8ff34002828ef000041800089
:1041e8002a0e0200000000000300370040012000f2
:1041f8008c0c0200000000004141800050052000a6
:10420800808f5000f9ff3a00400120008c0c02001a
:10421800000000002828ef000000eb00300798009d
:104228002b003700f0408000e80047008001eb00d9
:104238000001eb00be1b020000000000e10f50006f
:10424800020032001000200030418800f040800059
:10425800e60047008001eb000001eb00e2190200d4
:1042680000000000e10f50000200320010002000a2
:10427800304188004141800050052000808f500067
:1042880002003a0010002000304188000041800000
:1042980031002000b60c02000000000041418000ff
:1042a80050052000808f500002003a0010002000c6
:1042b80030418800004180008000eb00b60c02000d
:1042c800000000003e0090000000e8003007980061
:1042d8003e009000e40f5000d2ff34000300370086
:1042e800400120008c0c02000000000041418000c9
:1042f80050052000808f5000f9ff3a00400120004f
:104308008c0c0200000000002828ef000000eb00e1
:10431800300798000d003700f0408000e8004700a3
:104328008001eb000001eb00be1b02000000000052
:10433800e10f5000020032001000200030418800d8
:104348003e0090000000e800300798003e00900012
:10435800e40f5000f0ff3400004180002a0e0200f4
:104368000000000003003700400120008c0c020010
:10437800000000004141800050052000808f50005f
:10438800f9ff3a00400120008c0c020000000000f8
:104398002828ef000000eb00300798002b003700ba
:1043a800f0408000e60047008001eb000001eb00d0
:1043b800e219020000000000e10f50000200320084
:1043c8001000200030418800f0408000e8004700dd
:1043d8008001eb000001eb00be1b020000000000a2
:1043e800e10f500002003200100020003041880028
:1043f8004141800050052000808f500002003a00a3
:104408001000200030418800004180003100200069
:10441800b60c020000000000414180005005200059
:10442800808f500002003a001000200030418800c0
:10443800004180008000eb00b60c02000000000084
:104448003e0090000000e800300798003e00900011
:10445800e40f5000d2ff3400030037004001200071
:104468008c0c020000000000414180005005200033
:10447800808f5000f9ff3a00400120008c0c0200a8
:1044880000000000104180000000e8001041880092
:10449800e7fe37000800fa00300798000000eb003c
:1044a800860d02000000000012100200000000004b
:1044b800000f78000000eb0020079800500520004e
:1044c80040418800f0408000e40047008001eb0094
:1044d800f20a2000e2190200000000000000e000db
:1044e8000200320010002000304188001210020043
:1044f800000000001e005000100798009e00900069
:10450800e00a2000808f500002003e0010002000ca
:10451800304188009e009000e00b2000808f500002
:1045280002003600100020003041880050052000ad
:10453800404188000000eb00860d020000000000ea
:104548001210020000000000000f78005005200043
:1045580040418800f0408000e40047008001eb0003
:10456800f20a2000be1b0200000000000000e0006c
:1045780002003200100020003041880012100200b2
:10458800000000001e005000100798009e009000d8
:10459800e00a2000808f500002003e00100020003a
:1045a800304188009e009000e00b2000808f500072
:1045b800020036001000200030418800500520001d
:1045c80040418800204180000000e8002041880028
:1045d800b2ff37001000fa00b0042000100798005e
:1045e8005000200020079800700020003007980035
:1045f800210020000000eb00b60c020000000000c3
:10460800121002000000000040079800f00a200085
:104618008c0c0200000000001210020000000000d4
:1046280050079800de0090004e00900080805000f7
:104638003e009000f00ab000808f50000200360063
:104648001000200030418800121002000000000015
:1046580050079800de009000710798000000eb00fa
:10466800000f7800190037009e0078001e009000a7
:104678000088b900800078005e009000008040004b
:10468800600798006e0047009e009000100c020022
:10469800000000001210020000000000ee00900070
:1046a800810050003e009000f00ab000808f50005a
:1046b80002003600100020003041880010418000c0
:1046c8000000e800104188001e0fe8002e0090004e
:1046d8009e007800808f5000e3ff39001100200011
:1046e8000000eb00b60c0200000000000080fa0099
:1046f800000006000200fa0010002000000f7800f9
:104708001141800050418000808f500002003a0023
:104718000000eb00000f780021418000604180001c
:10472800808f500002003a000000eb00000f780074
:1047380030418000e10f500002003a000000eb0019
:10474800000f7800204180006041880010418000ff
:10475800504188001e0078000080fa000000060022
:104768000000fa00170007006100200002b02400d2
:104778000300200020002000c62e020000000000d8
:10478800304280008002eb00000278008001eb00dc
:10479800022020000181280000432200dc090200d9
:1047a8000000000000e224001432020000000000b3
:1047b800000f0200000000000000eb000080fa007b
:1047c800000006000000fa0070310200000000003e
:1047d8000080fa00000006000000fa000080fa00dd
:1047e800000006000400fa00000f78001107980086
:1047f80011028000f0f12f00008060000050a0003e
:10480800100288000000000000000000ffff3700d1
:104818000200fa00000f7800201780004700de0031
:10482800614060000004a200614060000080fb005d
:10483800610060004700dd00211780000170a100c1
:104848000100700020178800401f20008c0c020017
:1048580000000000f0ff37000200fa00000f7800a7
:104868008002eb00340020008001eb00620e200083
:10487800b1812800c0402200dc09020000000000cd
:10488800504280008002eb00000278008001eb00bb
:10489800620e200051822800a0512200dc0902008b
:1048a800000000000000eb009c0b0200000000006c
:1048b8000080fa00000006000400fa0010079800c3
:1048c8009e009000010f7800160037001e00780047
:1048d800104078000001eb00804078000000eb00f9
:1048e800242c020000000000e10f50000d003a00e7
:1048f800201780004500de00614060000004a2002f
:10490800614060000080fb00610060004500dd0040
:10491800211780000150a1000100700020178800b5
:104928001e0fe8001e007800104078000004e00028
:10493800e6ff3a00e4a2a9000080fa0000000600a1
:104948000c00fa0050079800e40047000200090034
:104958008018eb000040eb00004f780040c0b30027
:1049680010479800de0090001107980040c0b3007f
:10497800004f7800230037001e4078008081fb003c
:104988001e019000d0cc2c000010b8004308de00b7
:104998006a00b900000078000000510080407800eb
:1049a80003004700414098009e009000d0cc2c00a6
:1049b8000008b8004308de00100798001e40780081
:1049c8000080fb0000004700404090000004e00029
:1049d800020032009e407800114798001e4078007f
:1049e8000080fb009e4078008180fb00810047002a
:1049f800c14090000143b0000000470041409800ca
:104a08001e4fe9001e4078000004e000daff3d0078
:104a18001e4090000080fb00e4004700008040003a
:104a2800a5ff07000080fa00000006000200fa0057
:104a3800000f780020cb21009e2d0200000000000e
:104a4800c0122000e0e58800c0cb2100d02d020074
:104a580000000000c1cb210020cb21001a2e02004b
:104a6800000000000019200030e6880060cc21001a
:104a7800d02d02000000000061cc210020cb2100d5
:104a88001a2e020000000000401f200080e6880067
:104a980000cd2100d02d02000000000001cd210032
:104aa80020cb21001a2e020000000000f08228000e
:104ab80081ff0700a0e58000a1ff070010842800ff
:104ac8007dff0700408428007bff070090e58000f9
:104ad8009bff07001084280077ff0700e085280067
:104ae80075ff0700e0e5800095ff070010842800a7
:104af80071ff0700708728006fff070000e680003d
:104b08008fff0700108428006bff0700008928002a
:104b180069ff0700f0e5800089ff0700108428007e
:104b280065ff0700508a280063ff070030e6800011
:104b380083ff0700108428005fff0700e08b280030
:104b48005dff070050e680007dff07001084280005
:104b580059ff0700708d280057ff070040e68000c6
:104b680077ff07001084280053ff0700c08e280035
:104b780051ff070080e6800071ff070010842800bd
:104b88004dff0700509028004bff0700a0e680006b
:104b98006bff07001084280047ff0700e0912800fa
:104ba80045ff070090e6800065ff07001084280095
:104bb80041ff0700108428003fff070030932800ba
:104bc8003dff0700108428003bff070040842800b1
:104bd80039ff070060cc21007e2e02000000000093
:104be80057ff07001084280033ff070061cc21001d
:104bf80020cb21001a2e020000000000e0852800ca
:104c08002dff0700e0e580004dff07001084280015
:104c180029ff07007087280027ff070000e68000ab
:104c280047ff07001084280023ff07000089280099
:104c380021ff0700f0e5800041ff070010842800ed
:104c48001dff0700508a28001bff070030e6800080
:104c58003bff07001084280017ff0700e08b28009f
:104c680015ff070050e6800035ff07001084280074
:104c780011ff0700708d28000fff070040e6800035
:104c88002fff0700108428000bff0700c08e2800a4
:104c980009ff070080e6800029ff0700108428002c
:104ca80005ff07005090280003ff0700a0e68000da
:104cb80023ff070010842800fffe0700e09128006a
:104cc800fdfe070090e680001dff07001084280005
:104cd800f9fe0700ffff37000a00fa0040079800b6
:104ce8000000eb0020079800520f020000000000af
:104cf800904180000000e00001003a009f0007009a
:104d0800c14180004e009000008060000000e0007b
:104d180060003a004e0090000000e0000d003200f4
:104d2800d04e8400ce0090000080400040079800dc
:104d38004e00900061006000004078000004e00030
:104d4800040032004e0090000000a1000080e8003e
:104d5800400798004e0090000000e0004d0032002f
:104d6800a0418000ce009000808f500049003e0096
:104d7800e08220001007980071418000010f780040
:104d8800040037009e007800110798001e00780084
:104d9800100f78001e007800900090004e009000e0
:104da800808f5000040031001e0078001000780049
:104db8000000e000f3ff3a00904180009e00780078
:104dc800808f5000330032001e0090009000780061
:104dd800d04e840000804000200798001e00780014
:104de800900078001e009000010878001e007800ee
:104df800900090004e00900080805000d04e8400bb
:104e080000004000808f50000e0036004e009000d9
:104e18001e004000300798001e00780090009000a7
:104e28004e009000808050003e00900011009800d5
:104e38001e007800ce009000110098003e009000ff
:104e480085000700a14180001e0078001000900036
:104e580000805000a0418800a1418000b04180003e
:104e6800808f500002003100a0418000b0418800ce
:104e78001e00780090009000c04180008100700002
:104e88001e007800110098001e0078008000eb00da
:104e9800010878005e0f0200000000002e0090005c
:104ea8000080fa00000006000600fa0020079800bb
:104eb800ae009000010f78002e0090000000e00086
:104ec80021003200d04e84000000ea001e0f40008e
:104ed8009e007800110798001e0090009000900036
:104ee800c0418000008060000000e0001600320031
:104ef8001e009000100078000000e00012003a0048
:104f08001e00900090009000c04180000080ea00e0
:104f1800808060001e00900011009800520f02006f
:104f2800000000001e00900090009000a04180004a
:104f380000804000a04188001e0090004600070045
:104f48005e0f0200000000000080fa00000006006a
:104f58000000fa00a04180000080fa00000006006e
:104f68000000fa00b04180000080fa00000006004e
:104f78000000fa000080fa00000006000800fa00ad
:104f8800004021001007980080852000000f78005d
:104f98001e00780061006000004078000004e00016
:104fa800070032001e0fe8001e00a1001e0090003e
:104fb8009e00500080852000008040001007980067
:104fc8009e007800210798002e009000704188000c
:104fd8003028ef00ae0090001e009000008f4000c7
:104fe800d04e84001e0f10001e00a1001e00780085
:104ff80090418800904180008000eb0011009800eb
:10500800904180008000eb0001087800ae0090001d
:10501800310798003e0090009e0010003e0090006e
:1050280011009800914180003e009000010878002e
:105038003e00900010009000b04188003e009000b3
:1050480010009000a041880000002800c04188009e
:105058000080fa00000006000600fa002007980009
:10506800e0822000000f7800020037001e00780060
:10507800100f78001e007800900078002e00900035
:10508800808f5000f9ff39009e00780011079800c2
:105098001e007800100090009e0090008080400064
:1050a8002e009000808f500009003a001e00780002
:1050b800900090002e00900010009000808040002a
:1050c8001e007800110098009e00780021079800c3
:1050d800ae009000110798002e009000100090007c
:1050e8009e009000808040001e007800100078002c
:1050f800808f500017003a001e007800900078005a
:1051080090418000808f50000e0032002e009000e9
:10511800900090001e0078001000780010009000a9
:10512800808040002e009000110098001e0078003a
:1051380010007800900078002e0090000108780098
:1051480008003700914180002e0090000108780087
:10515800040037001e007800900078002e009000b0
:10516800010878002e0090009e007800808f500083
:10517800030032001e007800ae009000010878009d
:105188000080fa00000006001600fa00200f9800c0
:1051980010002000000f7800500020001007980031
:1051a80000012000200798000000eb00300798005d
:1051b80060002000702602000000000040079800f0
:1051c8000041eb00210020001e0078006619020053
